{
  "contractName": "CryptoLife",
  "abi": [
    {
      "inputs": [
        {
          "internalType": "uint8",
          "name": "network",
          "type": "uint8"
        }
      ],
      "stateMutability": "nonpayable",
      "type": "constructor"
    },
    {
      "anonymous": false,
      "inputs": [
        {
          "indexed": false,
          "internalType": "address[]",
          "name": "receivers",
          "type": "address[]"
        },
        {
          "indexed": false,
          "internalType": "uint256",
          "name": "amount",
          "type": "uint256"
        }
      ],
      "name": "basicIncomeReadyToPay",
      "type": "event"
    },
    {
      "anonymous": false,
      "inputs": [
        {
          "indexed": true,
          "internalType": "address",
          "name": "partnerAddress",
          "type": "address"
        },
        {
          "indexed": true,
          "internalType": "uint256",
          "name": "bonusType",
          "type": "uint256"
        },
        {
          "indexed": false,
          "internalType": "uint256",
          "name": "amount",
          "type": "uint256"
        },
        {
          "indexed": false,
          "internalType": "uint256",
          "name": "level",
          "type": "uint256"
        },
        {
          "indexed": false,
          "internalType": "uint256",
          "name": "mp",
          "type": "uint256"
        }
      ],
      "name": "bonusPaidOut",
      "type": "event"
    },
    {
      "anonymous": false,
      "inputs": [
        {
          "indexed": true,
          "internalType": "address",
          "name": "partnerAddress",
          "type": "address"
        },
        {
          "indexed": false,
          "internalType": "uint256",
          "name": "level",
          "type": "uint256"
        },
        {
          "indexed": false,
          "internalType": "uint256",
          "name": "mp",
          "type": "uint256"
        }
      ],
      "name": "levelUp",
      "type": "event"
    },
    {
      "anonymous": false,
      "inputs": [
        {
          "indexed": true,
          "internalType": "address",
          "name": "partnerAddress",
          "type": "address"
        },
        {
          "indexed": false,
          "internalType": "uint256",
          "name": "bonusType",
          "type": "uint256"
        },
        {
          "indexed": false,
          "internalType": "uint256",
          "name": "level",
          "type": "uint256"
        },
        {
          "indexed": false,
          "internalType": "uint256",
          "name": "amount",
          "type": "uint256"
        },
        {
          "indexed": false,
          "internalType": "uint256",
          "name": "mp",
          "type": "uint256"
        },
        {
          "indexed": false,
          "internalType": "uint256",
          "name": "bonusMp",
          "type": "uint256"
        }
      ],
      "name": "missingBounus",
      "type": "event"
    },
    {
      "anonymous": false,
      "inputs": [
        {
          "indexed": true,
          "internalType": "address",
          "name": "partnerAddress",
          "type": "address"
        },
        {
          "indexed": false,
          "internalType": "uint256",
          "name": "level",
          "type": "uint256"
        },
        {
          "indexed": false,
          "internalType": "uint256",
          "name": "mp",
          "type": "uint256"
        }
      ],
      "name": "poolIsReopened",
      "type": "event"
    },
    {
      "anonymous": false,
      "inputs": [
        {
          "indexed": true,
          "internalType": "uint256",
          "name": "partnerID",
          "type": "uint256"
        },
        {
          "indexed": true,
          "internalType": "address",
          "name": "partnerAddress",
          "type": "address"
        },
        {
          "indexed": true,
          "internalType": "address",
          "name": "sponsorAddress",
          "type": "address"
        },
        {
          "indexed": false,
          "internalType": "uint256",
          "name": "mp",
          "type": "uint256"
        }
      ],
      "name": "registration",
      "type": "event"
    },
    {
      "stateMutability": "payable",
      "type": "receive"
    },
    {
      "inputs": [
        {
          "internalType": "uint256",
          "name": "mp",
          "type": "uint256"
        },
        {
          "internalType": "uint256",
          "name": "level",
          "type": "uint256"
        },
        {
          "internalType": "uint80",
          "name": "roundID",
          "type": "uint80"
        }
      ],
      "name": "partnerLevelUp",
      "outputs": [],
      "stateMutability": "payable",
      "type": "function"
    },
    {
      "inputs": [
        {
          "internalType": "uint256",
          "name": "sponsorID",
          "type": "uint256"
        },
        {
          "internalType": "uint256",
          "name": "mp",
          "type": "uint256"
        },
        {
          "internalType": "uint80",
          "name": "roundID",
          "type": "uint80"
        }
      ],
      "name": "registerNewPartner",
      "outputs": [],
      "stateMutability": "payable",
      "type": "function"
    },
    {
      "inputs": [
        {
          "internalType": "address",
          "name": "partnerAddress",
          "type": "address"
        },
        {
          "internalType": "uint256",
          "name": "mp",
          "type": "uint256"
        },
        {
          "internalType": "uint80",
          "name": "roundID",
          "type": "uint80"
        }
      ],
      "name": "buySlotsExternal",
      "outputs": [],
      "stateMutability": "payable",
      "type": "function"
    },
    {
      "inputs": [
        {
          "internalType": "uint80",
          "name": "roundID",
          "type": "uint80"
        }
      ],
      "name": "getExchangeRate",
      "outputs": [
        {
          "internalType": "uint256",
          "name": "exchangeRate",
          "type": "uint256"
        },
        {
          "internalType": "uint80",
          "name": "newRoundID",
          "type": "uint80"
        },
        {
          "internalType": "uint8",
          "name": "decimals",
          "type": "uint8"
        }
      ],
      "stateMutability": "view",
      "type": "function"
    },
    {
      "inputs": [],
      "name": "basicIncomePay",
      "outputs": [],
      "stateMutability": "nonpayable",
      "type": "function"
    },
    {
      "inputs": [],
      "name": "isCommisionTransfered",
      "outputs": [
        {
          "internalType": "bool",
          "name": "transfered",
          "type": "bool"
        }
      ],
      "stateMutability": "view",
      "type": "function"
    },
    {
      "inputs": [],
      "name": "getPref",
      "outputs": [
        {
          "internalType": "uint256",
          "name": "pref",
          "type": "uint256"
        }
      ],
      "stateMutability": "view",
      "type": "function"
    },
    {
      "inputs": [],
      "name": "isRegistered",
      "outputs": [
        {
          "internalType": "bool",
          "name": "",
          "type": "bool"
        }
      ],
      "stateMutability": "view",
      "type": "function"
    },
    {
      "inputs": [
        {
          "internalType": "uint80",
          "name": "roundID",
          "type": "uint80"
        }
      ],
      "name": "getRegistrationPrices",
      "outputs": [
        {
          "internalType": "uint256[]",
          "name": "registrationPrices",
          "type": "uint256[]"
        },
        {
          "internalType": "uint80",
          "name": "newRoundID",
          "type": "uint80"
        }
      ],
      "stateMutability": "view",
      "type": "function"
    },
    {
      "inputs": [
        {
          "internalType": "address",
          "name": "partnerAddress",
          "type": "address"
        }
      ],
      "name": "getReferals",
      "outputs": [
        {
          "internalType": "address[]",
          "name": "",
          "type": "address[]"
        }
      ],
      "stateMutability": "view",
      "type": "function"
    },
    {
      "inputs": [
        {
          "internalType": "address",
          "name": "partnerAddress",
          "type": "address"
        }
      ],
      "name": "getNetworkCount",
      "outputs": [
        {
          "internalType": "uint256",
          "name": "count",
          "type": "uint256"
        }
      ],
      "stateMutability": "view",
      "type": "function"
    },
    {
      "inputs": [
        {
          "internalType": "uint80",
          "name": "roundID",
          "type": "uint80"
        }
      ],
      "name": "getNextLevelPrices",
      "outputs": [
        {
          "internalType": "uint256[]",
          "name": "nextLevelPrices",
          "type": "uint256[]"
        }
      ],
      "stateMutability": "view",
      "type": "function"
    },
    {
      "inputs": [],
      "name": "getMyData",
      "outputs": [
        {
          "internalType": "uint256",
          "name": "id",
          "type": "uint256"
        },
        {
          "internalType": "uint256[]",
          "name": "level",
          "type": "uint256[]"
        },
        {
          "internalType": "uint256[]",
          "name": "level1",
          "type": "uint256[]"
        },
        {
          "internalType": "uint256[]",
          "name": "level2",
          "type": "uint256[]"
        },
        {
          "internalType": "uint256",
          "name": "registrationDate",
          "type": "uint256"
        },
        {
          "internalType": "uint256",
          "name": "blockNumber",
          "type": "uint256"
        },
        {
          "internalType": "address[]",
          "name": "referals",
          "type": "address[]"
        },
        {
          "internalType": "uint256",
          "name": "network",
          "type": "uint256"
        }
      ],
      "stateMutability": "view",
      "type": "function"
    },
    {
      "inputs": [],
      "name": "getbasicIncomeData",
      "outputs": [
        {
          "internalType": "uint256",
          "name": "balance",
          "type": "uint256"
        },
        {
          "internalType": "uint256",
          "name": "bonusSumm",
          "type": "uint256"
        },
        {
          "internalType": "uint256",
          "name": "result",
          "type": "uint256"
        },
        {
          "internalType": "uint256",
          "name": "mp",
          "type": "uint256"
        },
        {
          "internalType": "uint256",
          "name": "minimumLevel",
          "type": "uint256"
        }
      ],
      "stateMutability": "view",
      "type": "function"
    },
    {
      "inputs": [
        {
          "internalType": "address",
          "name": "partnerAddress",
          "type": "address"
        },
        {
          "internalType": "uint256",
          "name": "level",
          "type": "uint256"
        }
      ],
      "name": "marketingReg",
      "outputs": [],
      "stateMutability": "nonpayable",
      "type": "function"
    }
  ],
  "bytecode": "0x608060405260016004556000600f556000601060006101000a81548160ff0219169083151502179055503480156200003657600080fd5b50604051620059223803806200592283398181016040528101906200005c919062000cc0565b60008160ff161415620000dc57730567f2323251f0aab15c8dfb1967e4e8a7d42aee600160006101000a81548173ffffffffffffffffffffffffffffffffffffffff021916908373ffffffffffffffffffffffffffffffffffffffff160217905550670de0b6b3a7640000600b81905550611ce260048190555062000140565b732514895c72f50d8bd4b4f9b1110f0d6bd2c97526600160006101000a81548173ffffffffffffffffffffffffffffffffffffffff021916908373ffffffffffffffffffffffffffffffffffffffff16021790555066038d7ea4c68000600b819055505b336000806101000a81548173ffffffffffffffffffffffffffffffffffffffff021916908373ffffffffffffffffffffffffffffffffffffffff16021790555060036007819055506003600754026006819055506200019e62000bc7565b6009819080600181540180825580915050600190039060005260206000209060020201600090919091909150600082015181600001556020820151816001019080519060200190620001f292919062000be1565b50505060098190806001815401808255809150506001900390600052602060002090600202016000909190919091506000820151816000015560208201518160010190805190602001906200024992919062000be1565b5050506009819080600181540180825580915050600190039060005260206000209060020201600090919091909150600082015181600001556020820151816001019080519060200190620002a092919062000be1565b5050506005600e81905550604b6008819055506009600281548110620002c257fe5b90600052602060002090600202016001016003908060018154018082558091505060019003906000526020600020016000909190919091505560096002815481106200030a57fe5b90600052602060002090600202016001016003908060018154018082558091505060019003906000526020600020016000909190919091505560096002815481106200035257fe5b90600052602060002090600202016001016003908060018154018082558091505060019003906000526020600020016000909190919091505560096002815481106200039a57fe5b9060005260206000209060020201600101600290806001815401808255809150506001900390600052602060002001600090919091909150556009600281548110620003e257fe5b90600052602060002090600202016001016002908060018154018082558091505060019003906000526020600020016000909190919091505560096001815481106200042a57fe5b90600052602060002090600202016001016005908060018154018082558091505060019003906000526020600020016000909190919091505560096001815481106200047257fe5b906000526020600020906002020160010160029080600181540180825580915050600190039060005260206000200160009091909190915055600a6009600081548110620004bc57fe5b90600052602060002090600202016000018190555060286009600181548110620004e257fe5b90600052602060002090600202016000018190555060c860096002815481106200050857fe5b9060005260206000209060020201600001819055506010600a819055506200055960008054906101000a900473ffffffffffffffffffffffffffffffffffffffff16600a546200057060201b60201c565b42600c819055506006600d81905550505062000e38565b60008054906101000a900473ffffffffffffffffffffffffffffffffffffffff1673ffffffffffffffffffffffffffffffffffffffff163373ffffffffffffffffffffffffffffffffffffffff161462000601576040517f08c379a0000000000000000000000000000000000000000000000000000000008152600401620005f89062000d76565b60405180910390fd5b620006338260008054906101000a900473ffffffffffffffffffffffffffffffffffffffff166200090360201b60201c565b60005b6009805490508160ff161015620008fe57600260008473ffffffffffffffffffffffffffffffffffffffff1673ffffffffffffffffffffffffffffffffffffffff1681526020019081526020016000206002016040518060200160405280600160ff1681525090806001815401808255809150506001900390600052602060002001600090919091909150906001620006d192919062000c33565b5060008054906101000a900473ffffffffffffffffffffffffffffffffffffffff1673ffffffffffffffffffffffffffffffffffffffff168373ffffffffffffffffffffffffffffffffffffffff16600260008673ffffffffffffffffffffffffffffffffffffffff1673ffffffffffffffffffffffffffffffffffffffff168152602001908152602001600020600001547f422145007b4bd8541c28e0f237e5894ec3385a33f0adc0f42e02a97b5dfabccd8460405162000794919062000dc5565b60405180910390a460005b600183038160ff161015620008ef57600260008573ffffffffffffffffffffffffffffffffffffffff1673ffffffffffffffffffffffffffffffffffffffff1681526020019081526020016000206002018260ff1681548110620007ff57fe5b90600052602060002001600190806001815401808255809150506001900390600052602060002001600090919091909150558373ffffffffffffffffffffffffffffffffffffffff167f35a42fa7cd43201e9185480f67fe2066fe29007662da7ca0534721f17239a998600260008773ffffffffffffffffffffffffffffffffffffffff1673ffffffffffffffffffffffffffffffffffffffff1681526020019081526020016000206002018460ff1681548110620008ba57fe5b906000526020600020018054905084604051620008d992919062000d98565b60405180910390a280806001019150506200079f565b50808060010191505062000636565b505050565b60006004546003805490500190506003839080600181540180825580915050600190039060005260206000200160009091909190916101000a81548173ffffffffffffffffffffffffffffffffffffffff021916908373ffffffffffffffffffffffffffffffffffffffff16021790555080600260008573ffffffffffffffffffffffffffffffffffffffff1673ffffffffffffffffffffffffffffffffffffffff1681526020019081526020016000206000018190555081600260008573ffffffffffffffffffffffffffffffffffffffff1673ffffffffffffffffffffffffffffffffffffffff16815260200190815260200160002060010160006101000a81548173ffffffffffffffffffffffffffffffffffffffff021916908373ffffffffffffffffffffffffffffffffffffffff16021790555042600260008573ffffffffffffffffffffffffffffffffffffffff1673ffffffffffffffffffffffffffffffffffffffff1681526020019081526020016000206004018190555043600260008573ffffffffffffffffffffffffffffffffffffffff1673ffffffffffffffffffffffffffffffffffffffff1681526020019081526020016000206005018190555060008054906101000a900473ffffffffffffffffffffffffffffffffffffffff1673ffffffffffffffffffffffffffffffffffffffff168373ffffffffffffffffffffffffffffffffffffffff161462000bc257600260008373ffffffffffffffffffffffffffffffffffffffff1673ffffffffffffffffffffffffffffffffffffffff168152602001908152602001600020600301839080600181540180825580915050600190039060005260206000200160009091909190916101000a81548173ffffffffffffffffffffffffffffffffffffffff021916908373ffffffffffffffffffffffffffffffffffffffff1602179055505b505050565b604051806040016040528060008152602001606081525090565b82805482825590600052602060002090810192821562000c20579160200282015b8281111562000c1f57825182559160200191906001019062000c02565b5b50905062000c2f919062000c8a565b5090565b82805482825590600052602060002090810192821562000c77579160200282015b8281111562000c76578251829060ff1690559160200191906001019062000c54565b5b50905062000c86919062000c8a565b5090565b5b8082111562000ca557600081600090555060010162000c8b565b5090565b60008151905062000cba8162000e1e565b92915050565b60006020828403121562000cd357600080fd5b600062000ce38482850162000ca9565b91505092915050565b600062000cfb60298362000de2565b91507f596f752068617665206e6f2070726f6d697373696f6e20746f2074686973206f60008301527f7065726174696f6e2e00000000000000000000000000000000000000000000006020830152604082019050919050565b62000d5f8162000df3565b82525050565b62000d708162000e0a565b82525050565b6000602082019050818103600083015262000d918162000cec565b9050919050565b600060408201905062000daf600083018562000d54565b62000dbe602083018462000d65565b9392505050565b600060208201905062000ddc600083018462000d65565b92915050565b600082825260208201905092915050565b6000819050919050565b600060ff82169050919050565b600062000e178262000dfd565b9050919050565b62000e298162000dfd565b811462000e3557600080fd5b50565b614ada8062000e486000396000f3fe6080604052600436106100eb5760003560e01c8063a232703f1161008a578063cb137e5b11610059578063cb137e5b146102ee578063d9c8a38b1461032d578063e3f324881461035f578063f8b7e36e1461037b5761010a565b8063a232703f1461023b578063b836f52614610257578063bdfbab6614610282578063c2722996146102bf5761010a565b806322366844116100c65780632236684414610193578063281cabc7146101be57806371c8872a146101d5578063958d1a91146102125761010a565b806228bef01461010f578063021008851461014c5780631576c962146101775761010a565b3661010a5734600f600082825401925050819055506101086103b9565b005b600080fd5b34801561011b57600080fd5b5061013660048036038101906101319190613f15565b6104c9565b60405161014391906146b2565b60405180910390f35b34801561015857600080fd5b50610161610684565b60405161016e91906146b2565b60405180910390f35b610191600480360381019061018c9190613f7a565b61071d565b005b34801561019f57600080fd5b506101a8610a2b565b6040516101b59190614544565b60405180910390f35b3480156101ca57600080fd5b506101d3610a77565b005b3480156101e157600080fd5b506101fc60048036038101906101f79190614018565b610c0d565b60405161020991906144f2565b60405180910390f35b34801561021e57600080fd5b5061023960048036038101906102349190613f3e565b610e08565b005b61025560048036038101906102509190613fc9565b611184565b005b34801561026357600080fd5b5061026c611466565b6040516102799190614544565b60405180910390f35b34801561028e57600080fd5b506102a960048036038101906102a49190613f15565b61150c565b6040516102b691906144a0565b60405180910390f35b3480156102cb57600080fd5b506102d4611661565b6040516102e59594939291906147c7565b60405180910390f35b3480156102fa57600080fd5b5061031560048036038101906103109190614018565b6116b0565b6040516103249392919061481a565b60405180910390f35b34801561033957600080fd5b50610342611903565b6040516103569897969594939291906146cd565b60405180910390f35b61037960048036038101906103749190613fc9565b611dda565b005b34801561038757600080fd5b506103a2600480360381019061039d9190614018565b61209c565b6040516103b0929190614514565b60405180910390f35b60006103c3612156565b90506000662386f26fc1000065befe6f672000600b540183510201905080600f54106104c557601060009054906101000a900460ff166104895760008054906101000a900473ffffffffffffffffffffffffffffffffffffffff1673ffffffffffffffffffffffffffffffffffffffff166108fc65befe6f6720008451029081150290604051600060405180830381858888f1935050505015801561046c573d6000803e3d6000fd5b506001601060006101000a81548160ff0219169083151502179055505b7fa9b92a373d3473c612a19cd22a98189cc78b3487a6b8e6e045bbd1a3cc0e3b2582600b546040516104bc9291906144c2565b60405180910390a15b5050565b600080600260003373ffffffffffffffffffffffffffffffffffffffff1673ffffffffffffffffffffffffffffffffffffffff168152602001908152602001600020600001541161054f576040517f08c379a000000000000000000000000000000000000000000000000000000000815260040161054690614632565b60405180910390fd5b600260008373ffffffffffffffffffffffffffffffffffffffff1673ffffffffffffffffffffffffffffffffffffffff16815260200190815260200160002060030180549050905060005b600260008473ffffffffffffffffffffffffffffffffffffffff1673ffffffffffffffffffffffffffffffffffffffff168152602001908152602001600020600301805490508160ff16101561067e5761066d600260008573ffffffffffffffffffffffffffffffffffffffff1673ffffffffffffffffffffffffffffffffffffffff1681526020019081526020016000206003018260ff168154811061063d57fe5b9060005260206000200160009054906101000a900473ffffffffffffffffffffffffffffffffffffffff166104c9565b82019150808060010191505061059a565b50919050565b60008060009054906101000a900473ffffffffffffffffffffffffffffffffffffffff1673ffffffffffffffffffffffffffffffffffffffff163373ffffffffffffffffffffffffffffffffffffffff1614610715576040517f08c379a000000000000000000000000000000000000000000000000000000000815260040161070c906145d2565b60405180910390fd5b600454905090565b6000600260003373ffffffffffffffffffffffffffffffffffffffff1673ffffffffffffffffffffffffffffffffffffffff16815260200190815260200160002060000154116107a2576040517f08c379a000000000000000000000000000000000000000000000000000000000815260040161079990614632565b60405180910390fd5b600082101580156107b7575060098054905082105b6107f6576040517f08c379a00000000000000000000000000000000000000000000000000000000081526004016107ed90614692565b60405180910390fd5b81600260008573ffffffffffffffffffffffffffffffffffffffff1673ffffffffffffffffffffffffffffffffffffffff168152602001908152602001600020600201805490501161087d576040517f08c379a0000000000000000000000000000000000000000000000000000000008152600401610874906145f2565b60405180910390fd5b60008080600061088c856116b0565b92509250925060008667ffffffffffffffff811180156108ab57600080fd5b506040519080825280602002602001820160405280156108da5781602001602082028036833780820191505090505b50905060005b878160ff161161093b576108f88160ff1686856124dd565b828260ff168151811061090757fe5b602002602001018181525050818160ff168151811061092257fe5b60200260200101518601955080806001019150506108e0565b508434101561097f576040517f08c379a0000000000000000000000000000000000000000000000000000000008152600401610976906145b2565b60405180910390fd5b60005b878160ff16116109bf576109b289838360ff168151811061099f57fe5b602002602001015160018460ff1661251b565b8080600101915050610982565b50600085340390506000811115610a18573373ffffffffffffffffffffffffffffffffffffffff166108fc829081150290604051600060405180830381858888f19350505050158015610a16573d6000803e3d6000fd5b505b610a206103b9565b505050505050505050565b600080600260003373ffffffffffffffffffffffffffffffffffffffff1673ffffffffffffffffffffffffffffffffffffffff1681526020019081526020016000206000015411905090565b60008054906101000a900473ffffffffffffffffffffffffffffffffffffffff1673ffffffffffffffffffffffffffffffffffffffff163373ffffffffffffffffffffffffffffffffffffffff1614610b05576040517f08c379a0000000000000000000000000000000000000000000000000000000008152600401610afc906145d2565b60405180910390fd5b601060009054906101000a900460ff1615610c03576000610b24612156565b905060005b81518160ff161015610b7b57610b5c828260ff1681518110610b4757fe5b60200260200101516000600b54600080612a31565b600b54600f600082825403925050819055508080600101915050610b29565b506000601060006101000a81548160ff02191690831515021790555062093a80600c54014211610bbb576002600b60008282540292505081905550610bfa565b6224ea00600c54014210158015610bdb5750671bc16d674ec80000600b54115b15610bf9576002600b600082825481610bf057fe5b04925050819055505b5b42600c81905550505b610c0b6103b9565b565b60606000600260003373ffffffffffffffffffffffffffffffffffffffff1673ffffffffffffffffffffffffffffffffffffffff1681526020019081526020016000206000015411610c94576040517f08c379a0000000000000000000000000000000000000000000000000000000008152600401610c8b90614632565b60405180910390fd5b60098054905067ffffffffffffffff81118015610cb057600080fd5b50604051908082528060200260200182016040528015610cdf5781602001602082028036833780820191505090505b50905060005b81518160ff161015610e02576000600190508160ff16600260003373ffffffffffffffffffffffffffffffffffffffff1673ffffffffffffffffffffffffffffffffffffffff168152602001908152602001600020600201805490501115610daa57600260003373ffffffffffffffffffffffffffffffffffffffff1673ffffffffffffffffffffffffffffffffffffffff1681526020019081526020016000206002018260ff1681548110610d9757fe5b9060005260206000200180549050810190505b6000806000610db8876116b0565b925092509250610dd6610dcf338760ff1687612ad2565b8483612cba565b868660ff1681518110610de557fe5b602002602001018181525050505050508080600101915050610ce5565b50919050565b60008054906101000a900473ffffffffffffffffffffffffffffffffffffffff1673ffffffffffffffffffffffffffffffffffffffff163373ffffffffffffffffffffffffffffffffffffffff1614610e96576040517f08c379a0000000000000000000000000000000000000000000000000000000008152600401610e8d906145d2565b60405180910390fd5b610ec08260008054906101000a900473ffffffffffffffffffffffffffffffffffffffff16612ec5565b60005b6009805490508160ff16101561117f57600260008473ffffffffffffffffffffffffffffffffffffffff1673ffffffffffffffffffffffffffffffffffffffff1681526020019081526020016000206002016040518060200160405280600160ff1681525090806001815401808255809150506001900390600052602060002001600090919091909150906001610f5b929190613e13565b5060008054906101000a900473ffffffffffffffffffffffffffffffffffffffff1673ffffffffffffffffffffffffffffffffffffffff168373ffffffffffffffffffffffffffffffffffffffff16600260008673ffffffffffffffffffffffffffffffffffffffff1673ffffffffffffffffffffffffffffffffffffffff168152602001908152602001600020600001547f422145007b4bd8541c28e0f237e5894ec3385a33f0adc0f42e02a97b5dfabccd8460405161101c9190614895565b60405180910390a460005b600183038160ff16101561117157600260008573ffffffffffffffffffffffffffffffffffffffff1673ffffffffffffffffffffffffffffffffffffffff1681526020019081526020016000206002018260ff168154811061108557fe5b90600052602060002001600190806001815401808255809150506001900390600052602060002001600090919091909150558373ffffffffffffffffffffffffffffffffffffffff167f35a42fa7cd43201e9185480f67fe2066fe29007662da7ca0534721f17239a998600260008773ffffffffffffffffffffffffffffffffffffffff1673ffffffffffffffffffffffffffffffffffffffff1681526020019081526020016000206002018460ff168154811061113f57fe5b90600052602060002001805490508460405161115c929190614851565b60405180910390a28080600101915050611027565b508080600101915050610ec3565b505050565b6000600260003373ffffffffffffffffffffffffffffffffffffffff1673ffffffffffffffffffffffffffffffffffffffff1681526020019081526020016000206000015414611209576040517f08c379a000000000000000000000000000000000000000000000000000000000815260040161120090614672565b60405180910390fd5b6000821015801561121e575060098054905082105b61125d576040517f08c379a000000000000000000000000000000000000000000000000000000000815260040161125490614692565b60405180910390fd5b60008311801561128c57507fffffffffffffffffffffffffffffffffffffffffffffffffffffffffffffffff83105b6112cb576040517f08c379a00000000000000000000000000000000000000000000000000000000081526004016112c290614652565b60405180910390fd5b6000808060006112da856116b0565b92509250925060005b868160ff161161130c576112fb8160ff1685846124dd565b8501945080806001019150506112e3565b5083341015611350576040517f08c379a0000000000000000000000000000000000000000000000000000000008152600401611347906145b2565b60405180910390fd5b60008060009054906101000a900473ffffffffffffffffffffffffffffffffffffffff169050600060045489039050600081118015611393575060038054905081105b156113d357600381815481106113a557fe5b9060005260206000200160009054906101000a900473ffffffffffffffffffffffffffffffffffffffff1691505b6113dd3383612ec5565b60006113eb338a6001612ad2565b90506113f933828887613188565b600087340390506000811115611451573373ffffffffffffffffffffffffffffffffffffffff166108fc829081150290604051600060405180830381858888f1935050505015801561144f573d6000803e3d6000fd5b505b6114596103b9565b5050505050505050505050565b60008060009054906101000a900473ffffffffffffffffffffffffffffffffffffffff1673ffffffffffffffffffffffffffffffffffffffff163373ffffffffffffffffffffffffffffffffffffffff16146114f7576040517f08c379a00000000000000000000000000000000000000000000000000000000081526004016114ee906145d2565b60405180910390fd5b601060009054906101000a900460ff16905090565b60606000600260003373ffffffffffffffffffffffffffffffffffffffff1673ffffffffffffffffffffffffffffffffffffffff1681526020019081526020016000206000015411611593576040517f08c379a000000000000000000000000000000000000000000000000000000000815260040161158a90614632565b60405180910390fd5b600260008373ffffffffffffffffffffffffffffffffffffffff1673ffffffffffffffffffffffffffffffffffffffff16815260200190815260200160002060030180548060200260200160405190810160405280929190818152602001828054801561165557602002820191906000526020600020905b8160009054906101000a900473ffffffffffffffffffffffffffffffffffffffff1673ffffffffffffffffffffffffffffffffffffffff168152602001906001019080831161160b575b50505050509050919050565b6000806000806000600f549450600b549350600061167d612156565b9050662386f26fc1000065befe6f672000600b54018251020193506001600980549050039250600d549150509091929394565b600080600080600080600080600160009054906101000a900473ffffffffffffffffffffffffffffffffffffffff1673ffffffffffffffffffffffffffffffffffffffff1663feaf968c6040518163ffffffff1660e01b815260040160a06040518083038186803b15801561172457600080fd5b505afa158015611738573d6000803e3d6000fd5b505050506040513d601f19601f8201168201806040525081019061175c9190614041565b9450945094509450945083975084965060008969ffffffffffffffffffff1614611855576000806000806000600160009054906101000a900473ffffffffffffffffffffffffffffffffffffffff1673ffffffffffffffffffffffffffffffffffffffff16639a6fc8f58f6040518263ffffffff1660e01b81526004016117e3919061487a565b60a06040518083038186803b1580156117fb57600080fd5b505afa15801561180f573d6000803e3d6000fd5b505050506040513d601f19601f820116820180604052508101906118339190614041565b945094509450945094506078870182111561184f57839c508d9b505b50505050505b600160009054906101000a900473ffffffffffffffffffffffffffffffffffffffff1673ffffffffffffffffffffffffffffffffffffffff1663313ce5676040518163ffffffff1660e01b815260040160206040518083038186803b1580156118bd57600080fd5b505afa1580156118d1573d6000803e3d6000fd5b505050506040513d601f19601f820116820180604052508101906118f591906140b8565b955050505050509193909250565b600060608060606000806060600080600260003373ffffffffffffffffffffffffffffffffffffffff1673ffffffffffffffffffffffffffffffffffffffff1681526020019081526020016000206000015411611995576040517f08c379a000000000000000000000000000000000000000000000000000000000815260040161198c90614632565b60405180910390fd5b600260003373ffffffffffffffffffffffffffffffffffffffff1673ffffffffffffffffffffffffffffffffffffffff168152602001908152602001600020600001549750600260003373ffffffffffffffffffffffffffffffffffffffff1673ffffffffffffffffffffffffffffffffffffffff168152602001908152602001600020600201600081548110611a2857fe5b90600052602060002001805480602002602001604051908101604052809291908181526020018280548015611a7c57602002820191906000526020600020905b815481526020019060010190808311611a68575b505050505096506001600260003373ffffffffffffffffffffffffffffffffffffffff1673ffffffffffffffffffffffffffffffffffffffff168152602001908152602001600020600201805490501115611c7257600260003373ffffffffffffffffffffffffffffffffffffffff1673ffffffffffffffffffffffffffffffffffffffff168152602001908152602001600020600201600181548110611b1f57fe5b90600052602060002001805480602002602001604051908101604052809291908181526020018280548015611b7357602002820191906000526020600020905b815481526020019060010190808311611b5f575b5050505050955060028060003373ffffffffffffffffffffffffffffffffffffffff1673ffffffffffffffffffffffffffffffffffffffff168152602001908152602001600020600201805490501115611c7157600260003373ffffffffffffffffffffffffffffffffffffffff1673ffffffffffffffffffffffffffffffffffffffff168152602001908152602001600020600201600281548110611c1557fe5b90600052602060002001805480602002602001604051908101604052809291908181526020018280548015611c6957602002820191906000526020600020905b815481526020019060010190808311611c55575b505050505094505b5b600260003373ffffffffffffffffffffffffffffffffffffffff1673ffffffffffffffffffffffffffffffffffffffff168152602001908152602001600020600401549350600260003373ffffffffffffffffffffffffffffffffffffffff1673ffffffffffffffffffffffffffffffffffffffff168152602001908152602001600020600301805480602002602001604051908101604052809291908181526020018280548015611d7957602002820191906000526020600020905b8160009054906101000a900473ffffffffffffffffffffffffffffffffffffffff1673ffffffffffffffffffffffffffffffffffffffff1681526020019060010190808311611d2f575b50505050509150611d89336104c9565b9050600260003373ffffffffffffffffffffffffffffffffffffffff1673ffffffffffffffffffffffffffffffffffffffff1681526020019081526020016000206005015492509091929394959697565b6000600260003373ffffffffffffffffffffffffffffffffffffffff1673ffffffffffffffffffffffffffffffffffffffff1681526020019081526020016000206000015411611e5f576040517f08c379a0000000000000000000000000000000000000000000000000000000008152600401611e5690614632565b60405180910390fd5b600082118015611e715750600a548211155b611eb0576040517f08c379a0000000000000000000000000000000000000000000000000000000008152600401611ea790614612565b60405180910390fd5b60008310158015611ec5575060098054905083105b611f04576040517f08c379a0000000000000000000000000000000000000000000000000000000008152600401611efb90614692565b60405180910390fd5b600082905083600260003373ffffffffffffffffffffffffffffffffffffffff1673ffffffffffffffffffffffffffffffffffffffff168152602001908152602001600020600201805490501115611fb657600260003373ffffffffffffffffffffffffffffffffffffffff1673ffffffffffffffffffffffffffffffffffffffff1681526020019081526020016000206002018481548110611fa357fe5b9060005260206000200180549050810190505b6000611fc3338684612ad2565b90506000806000611fd3866116b0565b9250925092506000611fe6858584612cba565b90508034101561202b576040517f08c379a0000000000000000000000000000000000000000000000000000000008152600401612022906145b2565b60405180910390fd5b61203733868685613188565b80341115612089573373ffffffffffffffffffffffffffffffffffffffff166108fc8234039081150290604051600060405180830381858888f19350505050158015612087573d6000803e3d6000fd5b505b6120916103b9565b505050505050505050565b60606000806000806120ad866116b0565b92509250925081935060098054905067ffffffffffffffff811180156120d257600080fd5b506040519080825280602002602001820160405280156121015781602001602082028036833780820191505090505b50945060005b6009805490508160ff16101561214d576121258160ff1685846124dd565b868260ff168151811061213457fe5b6020026020010181815250508080600101915050612107565b50505050915091565b60606000805b6003805490508160ff1610156122b4576009805490506002600060038460ff168154811061218657fe5b9060005260206000200160009054906101000a900473ffffffffffffffffffffffffffffffffffffffff1673ffffffffffffffffffffffffffffffffffffffff1673ffffffffffffffffffffffffffffffffffffffff1681526020019081526020016000206002018054905014156122a757600d546002600060038460ff168154811061220f57fe5b9060005260206000200160009054906101000a900473ffffffffffffffffffffffffffffffffffffffff1673ffffffffffffffffffffffffffffffffffffffff1673ffffffffffffffffffffffffffffffffffffffff1681526020019081526020016000206002016001600980549050038154811061228a57fe5b9060005260206000200180549050106122a65781806001019250505b5b808060010191505061215c565b508060ff1667ffffffffffffffff811180156122cf57600080fd5b506040519080825280602002602001820160405280156122fe5781602001602082028036833780820191505090505b50915060005b6003805490508160ff1610156124d8576009805490506002600060038460ff168154811061232e57fe5b9060005260206000200160009054906101000a900473ffffffffffffffffffffffffffffffffffffffff1673ffffffffffffffffffffffffffffffffffffffff1673ffffffffffffffffffffffffffffffffffffffff1681526020019081526020016000206002018054905014156124cb57600d546002600060038460ff16815481106123b757fe5b9060005260206000200160009054906101000a900473ffffffffffffffffffffffffffffffffffffffff1673ffffffffffffffffffffffffffffffffffffffff1673ffffffffffffffffffffffffffffffffffffffff1681526020019081526020016000206002016001600980549050038154811061243257fe5b9060005260206000200180549050106124ca5760038160ff168154811061245557fe5b9060005260206000200160009054906101000a900473ffffffffffffffffffffffffffffffffffffffff16838260ff168151811061248f57fe5b602002602001019073ffffffffffffffffffffffffffffffffffffffff16908173ffffffffffffffffffffffffffffffffffffffff16815250505b5b8080600101915050612304565b505090565b6000828260120160ff16600a0a600986815481106124f757fe5b906000526020600020906002020160000154028161251157fe5b0490509392505050565b60006064600e5485028161252b57fe5b049050600081850390506000606486600854028161254557fe5b049050600061255688878488613252565b905060008054906101000a900473ffffffffffffffffffffffffffffffffffffffff1673ffffffffffffffffffffffffffffffffffffffff168173ffffffffffffffffffffffffffffffffffffffff16141561268f5785600260008060009054906101000a900473ffffffffffffffffffffffffffffffffffffffff1673ffffffffffffffffffffffffffffffffffffffff1673ffffffffffffffffffffffffffffffffffffffff168152602001908152602001600020600201868154811061261b57fe5b9060005260206000200180549050101561268e57600061265c60008054906101000a900473ffffffffffffffffffffffffffffffffffffffff168789612ad2565b905061268c60008054906101000a900473ffffffffffffffffffffffffffffffffffffffff168260016000613188565b505b5b61269a818787613620565b6126a8816001848989612a31565b600260008973ffffffffffffffffffffffffffffffffffffffff1673ffffffffffffffffffffffffffffffffffffffff16815260200190815260200160002060010160009054906101000a900473ffffffffffffffffffffffffffffffffffffffff169050818303925060005b60096001600980549050038154811061272a57fe5b9060005260206000209060020201600101805490508160ff161015612a165760008054906101000a900473ffffffffffffffffffffffffffffffffffffffff1673ffffffffffffffffffffffffffffffffffffffff168273ffffffffffffffffffffffffffffffffffffffff1614156127d9576127d060008054906101000a900473ffffffffffffffffffffffffffffffffffffffff166002830160ff16868a8a612a31565b60009350612a16565b600080600190505b6009805490508160ff1610156129855760098160ff168154811061280157fe5b9060005260206000209060020201600101805490508360ff1610156129785760648a60098360ff168154811061283357fe5b90600052602060002090600202016001018560ff168154811061285257fe5b9060005260206000200154028161286557fe5b049450600160096001600980549050038154811061287f57fe5b906000526020600020906002020160010180549050038360ff161480156128a557508585115b156128b657859450600095506128bc565b84860395505b8060ff166001600260008773ffffffffffffffffffffffffffffffffffffffff1673ffffffffffffffffffffffffffffffffffffffff168152602001908152602001600020600201805490500310612918578482019150612977565b8373ffffffffffffffffffffffffffffffffffffffff167f330b935365d99a346b11ce634c02de10d387034134f883f299ea249786e9c738600285018b888c866040516129699594939291906148b0565b60405180910390a284870196505b5b80806001019150506127e1565b5060008111156129a3576129a2836002840160ff16838b8b612a31565b5b600260008473ffffffffffffffffffffffffffffffffffffffff1673ffffffffffffffffffffffffffffffffffffffff16815260200190815260200160002060010160009054906101000a900473ffffffffffffffffffffffffffffffffffffffff169250508080600101915050612715565b5083600f600082825401925050819055505050505050505050565b8473ffffffffffffffffffffffffffffffffffffffff166108fc849081150290604051600060405180830381858888f19350505050158015612a77573d6000803e3d6000fd5b50838573ffffffffffffffffffffffffffffffffffffffff167f3fb6be6fde1c2353aebe4ddfbdfc13864771e1cbccfd55dc4dd9cb1070c90ad2858585604051612ac393929190614790565b60405180910390a35050505050565b60606001830167ffffffffffffffff81118015612aee57600080fd5b50604051908082528060200260200182016040528015612b1d5781602001602082028036833780820191505090505b50905060005b600184018160ff161015612cb257600260008673ffffffffffffffffffffffffffffffffffffffff1673ffffffffffffffffffffffffffffffffffffffff168152602001908152602001600020600201805490508160ff161015612c885782600260008773ffffffffffffffffffffffffffffffffffffffff1673ffffffffffffffffffffffffffffffffffffffff1681526020019081526020016000206002018260ff1681548110612bd257fe5b906000526020600020018054905010612c07576000828260ff1681518110612bf657fe5b602002602001018181525050612c83565b600260008673ffffffffffffffffffffffffffffffffffffffff1673ffffffffffffffffffffffffffffffffffffffff1681526020019081526020016000206002018160ff1681548110612c5757fe5b90600052602060002001805490508303828260ff1681518110612c7657fe5b6020026020010181815250505b612ca5565b82828260ff1681518110612c9857fe5b6020026020010181815250505b8080600101915050612b23565b509392505050565b600080600260003373ffffffffffffffffffffffffffffffffffffffff1673ffffffffffffffffffffffffffffffffffffffff1681526020019081526020016000206000015411612d40576040517f08c379a0000000000000000000000000000000000000000000000000000000008152600401612d3790614632565b60405180910390fd5b6000905060008054906101000a900473ffffffffffffffffffffffffffffffffffffffff1673ffffffffffffffffffffffffffffffffffffffff163373ffffffffffffffffffffffffffffffffffffffff1614612ebe57600080600090505b85518160ff161015612ebb57600091508060ff16600260003373ffffffffffffffffffffffffffffffffffffffff1673ffffffffffffffffffffffffffffffffffffffff168152602001908152602001600020600201805490501115612e6057600260003373ffffffffffffffffffffffffffffffffffffffff1673ffffffffffffffffffffffffffffffffffffffff1681526020019081526020016000206002018160ff1681548110612e4f57fe5b906000526020600020018054905091505b60005b868260ff1681518110612e7257fe5b60200260200101518160ff161015612ead578060ff16830160020a612e9b8360ff1688886124dd565b02840193508080600101915050612e63565b508080600101915050612d9f565b50505b9392505050565b60006004546003805490500190506003839080600181540180825580915050600190039060005260206000200160009091909190916101000a81548173ffffffffffffffffffffffffffffffffffffffff021916908373ffffffffffffffffffffffffffffffffffffffff16021790555080600260008573ffffffffffffffffffffffffffffffffffffffff1673ffffffffffffffffffffffffffffffffffffffff1681526020019081526020016000206000018190555081600260008573ffffffffffffffffffffffffffffffffffffffff1673ffffffffffffffffffffffffffffffffffffffff16815260200190815260200160002060010160006101000a81548173ffffffffffffffffffffffffffffffffffffffff021916908373ffffffffffffffffffffffffffffffffffffffff16021790555042600260008573ffffffffffffffffffffffffffffffffffffffff1673ffffffffffffffffffffffffffffffffffffffff1681526020019081526020016000206004018190555043600260008573ffffffffffffffffffffffffffffffffffffffff1673ffffffffffffffffffffffffffffffffffffffff1681526020019081526020016000206005018190555060008054906101000a900473ffffffffffffffffffffffffffffffffffffffff1673ffffffffffffffffffffffffffffffffffffffff168373ffffffffffffffffffffffffffffffffffffffff161461318357600260008373ffffffffffffffffffffffffffffffffffffffff1673ffffffffffffffffffffffffffffffffffffffff168152602001908152602001600020600301839080600181540180825580915050600190039060005260206000200160009091909190916101000a81548173ffffffffffffffffffffffffffffffffffffffff021916908373ffffffffffffffffffffffffffffffffffffffff1602179055505b505050565b60005b83518160ff16101561324b5760005b848260ff16815181106131a957fe5b60200260200101518160ff16101561323d576000808054906101000a900473ffffffffffffffffffffffffffffffffffffffff1673ffffffffffffffffffffffffffffffffffffffff168773ffffffffffffffffffffffffffffffffffffffff16146132215761321e878460ff1687876137ba565b90505b61322f87828560ff16613887565b50808060010191505061319a565b50808060010191505061318b565b5050505050565b60008060009054906101000a900473ffffffffffffffffffffffffffffffffffffffff1673ffffffffffffffffffffffffffffffffffffffff168573ffffffffffffffffffffffffffffffffffffffff1614156132d15760008054906101000a900473ffffffffffffffffffffffffffffffffffffffff169050613618565b6000600260008773ffffffffffffffffffffffffffffffffffffffff1673ffffffffffffffffffffffffffffffffffffffff16815260200190815260200160002060010160009054906101000a900473ffffffffffffffffffffffffffffffffffffffff16905082600260008873ffffffffffffffffffffffffffffffffffffffff1673ffffffffffffffffffffffffffffffffffffffff1681526020019081526020016000206002018054905011156135b0576000600260008873ffffffffffffffffffffffffffffffffffffffff1673ffffffffffffffffffffffffffffffffffffffff16815260200190815260200160002060020184815481106133d457fe5b906000526020600020018054905090508581111561341a576133f7878786613d20565b613405578692505050613618565b61341182878787613252565b92505050613618565b858114156135435761342d878786613d20565b156134475761343e82878787613252565b92505050613618565b600654600260008973ffffffffffffffffffffffffffffffffffffffff1673ffffffffffffffffffffffffffffffffffffffff168152602001908152602001600020600201858154811061349757fe5b9060005260206000200160018803815481106134af57fe5b906000526020600020015410806134c75750600a5486145b156134d6578692505050613618565b8673ffffffffffffffffffffffffffffffffffffffff167f330b935365d99a346b11ce634c02de10d387034134f883f299ea249786e9c7386001888888600060405161352695949392919061455f565b60405180910390a261353a82878787613252565b92505050613618565b8673ffffffffffffffffffffffffffffffffffffffff167f330b935365d99a346b11ce634c02de10d387034134f883f299ea249786e9c7386001888888600060405161359395949392919061455f565b60405180910390a26135a782878787613252565b92505050613618565b8573ffffffffffffffffffffffffffffffffffffffff167f330b935365d99a346b11ce634c02de10d387034134f883f299ea249786e9c7386001878787600060405161360095949392919061455f565b60405180910390a261361481868686613252565b9150505b949350505050565b7fffffffffffffffffffffffffffffffffffffffffffffffffffffffffffffffff600260008573ffffffffffffffffffffffffffffffffffffffff1673ffffffffffffffffffffffffffffffffffffffff168152602001908152602001600020600201828154811061368e57fe5b9060005260206000200160018403815481106136a657fe5b9060005260206000200154101561373b57600260008473ffffffffffffffffffffffffffffffffffffffff1673ffffffffffffffffffffffffffffffffffffffff168152602001908152602001600020600201818154811061370457fe5b90600052602060002001600183038154811061371c57fe5b90600052602060002001600081548092919060010191905055506137b5565b600160065401600260008573ffffffffffffffffffffffffffffffffffffffff1673ffffffffffffffffffffffffffffffffffffffff168152602001908152602001600020600201828154811061378e57fe5b9060005260206000200160018403815481106137a657fe5b90600052602060002001819055505b505050565b6000806000905084600260008873ffffffffffffffffffffffffffffffffffffffff1673ffffffffffffffffffffffffffffffffffffffff16815260200190815260200160002060020180549050111561386c57600260008773ffffffffffffffffffffffffffffffffffffffff1673ffffffffffffffffffffffffffffffffffffffff168152602001908152602001600020600201858154811061385b57fe5b906000526020600020018054905090505b8060020a61387b8686866124dd565b02915050949350505050565b80600260008573ffffffffffffffffffffffffffffffffffffffff1673ffffffffffffffffffffffffffffffffffffffff16815260200190815260200160002060020180549050111561395857600260008473ffffffffffffffffffffffffffffffffffffffff1673ffffffffffffffffffffffffffffffffffffffff168152602001908152602001600020600201818154811061392157fe5b90600052602060002001600190806001815401808255809150506001900390600052602060002001600090919091909150556139e2565b600260008473ffffffffffffffffffffffffffffffffffffffff1673ffffffffffffffffffffffffffffffffffffffff1681526020019081526020016000206002016040518060200160405280600160ff16815250908060018154018082558091505060019003906000526020600020016000909190919091509060016139e0929190613e13565b505b6001600260008573ffffffffffffffffffffffffffffffffffffffff1673ffffffffffffffffffffffffffffffffffffffff1681526020019081526020016000206002018281548110613a3157fe5b90600052602060002001805490501115613af4578273ffffffffffffffffffffffffffffffffffffffff167f35a42fa7cd43201e9185480f67fe2066fe29007662da7ca0534721f17239a998600260008673ffffffffffffffffffffffffffffffffffffffff1673ffffffffffffffffffffffffffffffffffffffff1681526020019081526020016000206002018381548110613aca57fe5b906000526020600020018054905083604051613ae7929190614767565b60405180910390a2613bff565b600260008473ffffffffffffffffffffffffffffffffffffffff1673ffffffffffffffffffffffffffffffffffffffff16815260200190815260200160002060010160009054906101000a900473ffffffffffffffffffffffffffffffffffffffff1673ffffffffffffffffffffffffffffffffffffffff168373ffffffffffffffffffffffffffffffffffffffff16600260008673ffffffffffffffffffffffffffffffffffffffff1673ffffffffffffffffffffffffffffffffffffffff168152602001908152602001600020600001547f422145007b4bd8541c28e0f237e5894ec3385a33f0adc0f42e02a97b5dfabccd84604051613bf691906146b2565b60405180910390a45b60008054906101000a900473ffffffffffffffffffffffffffffffffffffffff1673ffffffffffffffffffffffffffffffffffffffff168373ffffffffffffffffffffffffffffffffffffffff1614613d1b57613d1a600260008573ffffffffffffffffffffffffffffffffffffffff1673ffffffffffffffffffffffffffffffffffffffff16815260200190815260200160002060010160009054906101000a900473ffffffffffffffffffffffffffffffffffffffff1683600260008773ffffffffffffffffffffffffffffffffffffffff1673ffffffffffffffffffffffffffffffffffffffff1681526020019081526020016000206002018481548110613d0657fe5b90600052602060002001805490508461251b565b5b505050565b600060075460016007546001600260008973ffffffffffffffffffffffffffffffffffffffff1673ffffffffffffffffffffffffffffffffffffffff1681526020019081526020016000206002018681548110613d7957fe5b906000526020600020016001880381548110613d9157fe5b90600052602060002001540381613da457fe5b06011415613e0c57613db7848484613620565b8373ffffffffffffffffffffffffffffffffffffffff167f7c8a861c4df6814b1d1b6217c8ebd8bfd3a86ae7e26b8531f12571a0a025f87b8484604051613dff929190614767565b60405180910390a2600190505b9392505050565b828054828255906000526020600020908101928215613e54579160200282015b82811115613e53578251829060ff16905591602001919060010190613e33565b5b509050613e619190613e65565b5090565b5b80821115613e7e576000816000905550600101613e66565b5090565b600081359050613e9181614a31565b92915050565b600081519050613ea681614a48565b92915050565b600081359050613ebb81614a5f565b92915050565b600081519050613ed081614a5f565b92915050565b600081359050613ee581614a8d565b92915050565b600081519050613efa81614a8d565b92915050565b600081519050613f0f81614a76565b92915050565b600060208284031215613f2757600080fd5b6000613f3584828501613e82565b91505092915050565b60008060408385031215613f5157600080fd5b6000613f5f85828601613e82565b9250506020613f7085828601613eac565b9150509250929050565b600080600060608486031215613f8f57600080fd5b6000613f9d86828701613e82565b9350506020613fae86828701613eac565b9250506040613fbf86828701613ed6565b9150509250925092565b600080600060608486031215613fde57600080fd5b6000613fec86828701613eac565b9350506020613ffd86828701613eac565b925050604061400e86828701613ed6565b9150509250925092565b60006020828403121561402a57600080fd5b600061403884828501613ed6565b91505092915050565b600080600080600060a0868803121561405957600080fd5b600061406788828901613eeb565b955050602061407888828901613e97565b945050604061408988828901613ec1565b935050606061409a88828901613ec1565b92505060806140ab88828901613eeb565b9150509295509295909350565b6000602082840312156140ca57600080fd5b60006140d884828501613f00565b91505092915050565b60006140ed8383614111565b60208301905092915050565b60006141058383614455565b60208301905092915050565b61411a81614986565b82525050565b600061412b82614923565b6141358185614953565b935061414083614903565b8060005b8381101561417157815161415888826140e1565b975061416383614939565b925050600181019050614144565b5085935050505092915050565b60006141898261492e565b6141938185614964565b935061419e83614913565b8060005b838110156141cf5781516141b688826140f9565b97506141c183614946565b9250506001810190506141a2565b5085935050505092915050565b6141e581614998565b82525050565b6141f4816149fb565b82525050565b61420381614a0d565b82525050565b6000614216601983614975565b91507f596f752073656e74206e6f7420656e6f75676820636f696e73000000000000006000830152602082019050919050565b6000614256602983614975565b91507f596f752068617665206e6f2070726f6d697373696f6e20746f2074686973206f60008301527f7065726174696f6e2e00000000000000000000000000000000000000000000006020830152604082019050919050565b60006142bc601c83614975565b91507f4d61726b6574696e6720706c616e206973206e6f7420616374697665000000006000830152602082019050919050565b60006142fc601283614975565b91507f57726f6e67206c6576656c206e756d62657200000000000000000000000000006000830152602082019050919050565b600061433c601e83614975565b91507f5468652061646472657373206973206e6f7420726567697374657265642e00006000830152602082019050919050565b600061437c601083614975565b91507f57726f6e672073706f6e736f72204944000000000000000000000000000000006000830152602082019050919050565b60006143bc602283614975565b91507f546865206164647265737320697320616c72656164792072656769737465726560008301527f642e0000000000000000000000000000000000000000000000000000000000006020830152604082019050919050565b6000614422601b83614975565b91507f57726f6e67206d61726b6574696e6720706c616e206e756d62657200000000006000830152602082019050919050565b61445e816149ce565b82525050565b61446d816149ce565b82525050565b61447c816149e5565b82525050565b61448b81614a1f565b82525050565b61449a816149d8565b82525050565b600060208201905081810360008301526144ba8184614120565b905092915050565b600060408201905081810360008301526144dc8185614120565b90506144eb6020830184614464565b9392505050565b6000602082019050818103600083015261450c818461417e565b905092915050565b6000604082019050818103600083015261452e818561417e565b905061453d6020830184614473565b9392505050565b600060208201905061455960008301846141dc565b92915050565b600060a08201905061457460008301886141fa565b6145816020830187614464565b61458e6040830186614464565b61459b6060830185614464565b6145a860808301846141eb565b9695505050505050565b600060208201905081810360008301526145cb81614209565b9050919050565b600060208201905081810360008301526145eb81614249565b9050919050565b6000602082019050818103600083015261460b816142af565b9050919050565b6000602082019050818103600083015261462b816142ef565b9050919050565b6000602082019050818103600083015261464b8161432f565b9050919050565b6000602082019050818103600083015261466b8161436f565b9050919050565b6000602082019050818103600083015261468b816143af565b9050919050565b600060208201905081810360008301526146ab81614415565b9050919050565b60006020820190506146c76000830184614464565b92915050565b6000610100820190506146e3600083018b614464565b81810360208301526146f5818a61417e565b90508181036040830152614709818961417e565b9050818103606083015261471d818861417e565b905061472c6080830187614464565b61473960a0830186614464565b81810360c083015261474b8185614120565b905061475a60e0830184614464565b9998505050505050505050565b600060408201905061477c6000830185614464565b6147896020830184614464565b9392505050565b60006060820190506147a56000830186614464565b6147b26020830185614464565b6147bf6040830184614464565b949350505050565b600060a0820190506147dc6000830188614464565b6147e96020830187614464565b6147f66040830186614464565b6148036060830185614464565b6148106080830184614464565b9695505050505050565b600060608201905061482f6000830186614464565b61483c6020830185614473565b6148496040830184614491565b949350505050565b60006040820190506148666000830185614464565b6148736020830184614482565b9392505050565b600060208201905061488f6000830184614473565b92915050565b60006020820190506148aa6000830184614482565b92915050565b600060a0820190506148c56000830188614482565b6148d26020830187614464565b6148df6040830186614464565b6148ec6060830185614464565b6148f96080830184614482565b9695505050505050565b6000819050602082019050919050565b6000819050602082019050919050565b600081519050919050565b600081519050919050565b6000602082019050919050565b6000602082019050919050565b600082825260208201905092915050565b600082825260208201905092915050565b600082825260208201905092915050565b6000614991826149ae565b9050919050565b60008115159050919050565b6000819050919050565b600073ffffffffffffffffffffffffffffffffffffffff82169050919050565b6000819050919050565b600060ff82169050919050565b600069ffffffffffffffffffff82169050919050565b6000614a06826149ce565b9050919050565b6000614a18826149ce565b9050919050565b6000614a2a826149d8565b9050919050565b614a3a81614986565b8114614a4557600080fd5b50565b614a51816149a4565b8114614a5c57600080fd5b50565b614a68816149ce565b8114614a7357600080fd5b50565b614a7f816149d8565b8114614a8a57600080fd5b50565b614a96816149e5565b8114614aa157600080fd5b5056fea26469706673582212206fa18be786edaa865347bdac29c3ecb049f515d996b8b909bbcdcebf3655c48364736f6c63430007060033",
  "immutableReferences": {},
  "source": "// SPDX-License-Identifier: GPL-3.0\r\n\r\npragma solidity >=0.7.0 <0.9.0;\r\npragma abicoder v2;\r\n\r\n// import not working on wondows \"File import callback not supported\" error\r\nimport \"../node_modules/@chainlink/contracts/src/v0.7/interfaces/AggregatorV3Interface.sol\";\r\n\r\ncontract CryptoLife {\r\n    \r\n    address private owner; // An owner's address\r\n    \r\n    // A marketing plan struture\r\n\r\n    struct MP {\r\n        uint registrationPrice;\r\n        uint[] leaderBonusLevels;\r\n    }\r\n\r\n    // A partner structure\r\n    struct Partner {\r\n        uint id; // An ID of the partner\r\n        address sponsorAddress; // A sponsor's address\r\n        uint[][] level; // An array of a next slot numbers for each level of all marketing plans\r\n        address[] referals; // An array of a direct referals\r\n        uint registrationDate; // A registration date timestamp\r\n        uint registrationBlockNumber; // A registration block number\r\n    }\r\n\r\n    // Coin price reciver\r\n    AggregatorV3Interface internal priceFeed;\r\n\r\n    // A list of partners\r\n    mapping (address => Partner) private partners; \r\n\r\n    // An array of IDs for a short referal links\r\n    address[] private shortIdForLinks;\r\n\r\n    // An ID prefix  \r\n    uint private prefID = 1; \r\n\r\n    // A list of a bounuses in persents\r\n    uint[] private leaderBonusLevels; \r\n\r\n    // Number of slots to a next-level upgrade\r\n    uint private slotsPerLevel;\r\n\r\n     // Number of slots in a level's pool \r\n    uint private slotsPerPool;\r\n\r\n    // A direct bonus or the slots\r\n    uint private directBonus;\r\n\r\n    // A list of marketing plans\r\n    MP[] private marketingPlans;\r\n\r\n    // Marketing plans maximum level\r\n    uint private maxAvaibleLevel; \r\n\r\n    // A summ to collect and pay out to a Basic Income\r\n    uint private basicIncomeSumm;\r\n\r\n    // A date and time when a current Basic Income collection started\r\n    uint private basicIncomeStartDate;\r\n\r\n    // A minimum level required to become a Basic Income\r\n    uint private basicIncomeMinimumLevel;\r\n\r\n    // A Basic Income colletction fee\r\n    uint private basicIncomeFee;\r\n\r\n    // A Basic Income collected summ\r\n    uint private basicIncomeCollectedSumm = 0;\r\n\r\n    // A Basic Income commission transfer flag\r\n    bool private commissionTransfered = false;\r\n\r\n    // A registration event\r\n    event registration (\r\n        uint indexed partnerID, \r\n        address indexed partnerAddress, \r\n        address indexed sponsorAddress,\r\n        uint mp\r\n    );\r\n    \r\n    // A level up event\r\n    event levelUp (\r\n        address indexed partnerAddress, \r\n        uint level,\r\n        uint mp\r\n    );\r\n    \r\n    // A bonus paid out event\r\n    event bonusPaidOut (\r\n        address indexed partnerAddress,\r\n        uint indexed bonusType, \r\n        uint amount,\r\n        uint level,\r\n        uint mp\r\n    );\r\n\r\n    // A pool reopened  event\r\n    event poolIsReopened (\r\n        address indexed partnerAddress, \r\n        uint level,\r\n        uint mp\r\n    );\r\n    \r\n    // A missed bonus event\r\n    event missingBounus (\r\n        address indexed partnerAddress, \r\n        uint bonusType,\r\n        uint level,\r\n        uint amount,\r\n        uint mp,\r\n        uint bonusMp\r\n    );\r\n\r\n    // A Basic Income ready to pay event\r\n    event basicIncomeReadyToPay (\r\n        address[] receivers,\r\n        uint amount\r\n    );\r\n   \r\n    // The only registered partners allowed modifier\r\n    modifier onlyRegistered {\r\n        \r\n        // hecking that the address is registered\r\n        require( partners[msg.sender].id > 0, \"The address is not registered.\");\r\n        \r\n        _;\r\n\r\n    }\r\n   \r\n    // The only registered partners allowed modifier\r\n    modifier onlyNotRegistered {\r\n        \r\n        // hecking that the address is registered\r\n        require( partners[msg.sender].id == 0, \"The address is already registered.\");\r\n        \r\n        _;\r\n\r\n    }\r\n\r\n    // The only owner allowed modifier\r\n    modifier onlyOwner {\r\n        \r\n        // Check owner's address\r\n        require(msg.sender == owner, \"You have no promission to this operation.\");\r\n        \r\n        _;\r\n    }\r\n\r\n    \r\n    constructor (uint8 network){\r\n\r\n\r\n        // Coin price receiver activation depends on network\r\n\r\n        if (network == 0){\r\n\r\n            // Deployed to the mainnet\r\n\r\n            // BNB/USD mainnet address 0x0567F2323251f0Aab15c8dFb1967E4e8A7D42aeE\r\n            priceFeed = AggregatorV3Interface(0x0567F2323251f0Aab15c8dFb1967E4e8A7D42aeE);\r\n\r\n            // Set the Basic Income summ for mainnet\r\n            basicIncomeSumm = 1 ether; \r\n\r\n            // Set reserved places number\r\n            prefID = 7394;           \r\n\r\n        } else {\r\n\r\n            // BNB/USD testnet address 0x2514895c72f50D8bd4B4F9b1110F0D6bD2c97526\r\n            priceFeed = AggregatorV3Interface(0x2514895c72f50D8bd4B4F9b1110F0D6bD2c97526);\r\n\r\n            // Set the Basic Income summ for testnets\r\n            basicIncomeSumm = 0.001 ether;\r\n        }\r\n        \r\n        // Initiation of a matrix rules\r\n        \r\n        owner = msg.sender; // The owner is a contract sender\r\n\r\n        slotsPerPool = 3; // A pool on each level has three slots\r\n        slotsPerLevel = slotsPerPool * 3; // Each level has three free pools with three slots each\r\n        \r\n\r\n        // initiate a marketing plans\r\n        MP memory mp;\r\n        marketingPlans.push(mp);\r\n        marketingPlans.push(mp);\r\n        marketingPlans.push(mp);\r\n    \r\n        // Set a Basic Income bounus fee in percents \r\n        basicIncomeFee = 5;\r\n\r\n        // Set a bonus for selling a slots in percents \r\n        directBonus = 75;\r\n\r\n        // Set network bounuses for the 3rd marketing plan in percents \r\n        \r\n        // Set an additional bonus for purchases of partners of the 2nd level of depth\r\n        marketingPlans[2].leaderBonusLevels.push(3); \r\n        \r\n        // Set an additional bonus for purchases of partners of the 3rd level of depth\r\n        marketingPlans[2].leaderBonusLevels.push(3);\r\n        \r\n        // Set a bonus for purchases of partners of the 4th level of depth\r\n        marketingPlans[2].leaderBonusLevels.push(3); \r\n        \r\n        // Set a bonus for purchases of partners of the 5th level of depth\r\n        marketingPlans[2].leaderBonusLevels.push(2); \r\n        \r\n        // Set a bonus for purchases of partners of the 6th level of depth\r\n        marketingPlans[2].leaderBonusLevels.push(2); \r\n\r\n        // Set network bonuses for the 2nd marketing plan in percents \r\n\r\n        // Set a bonus for purchases of partners of the 2nd level of depth\r\n        marketingPlans[1].leaderBonusLevels.push(5); \r\n        \r\n        // Set a bonus for purchases of partners of the 3rd level of depth\r\n        marketingPlans[1].leaderBonusLevels.push(2);\r\n\r\n        // No network bonuses for the 1st marketing plan\r\n\r\n        \r\n        // Set fixed prices of marketing plans in USD\r\n\r\n        // Registration price of the 1st marketing plan\r\n        marketingPlans[0].registrationPrice = 10;\r\n\r\n        // Registration price of the 2nd marketing plan\r\n        marketingPlans[1].registrationPrice = 40;\r\n\r\n        // Registration price  of the 3rd marketing plan\r\n        marketingPlans[2].registrationPrice = 200;\r\n\r\n        // Set the Marketin Plans maximum level\r\n        maxAvaibleLevel = 16;\r\n\r\n        // Register the owner\r\n        marketingReg(owner, maxAvaibleLevel);\r\n\r\n        // Set the colection start date\r\n        basicIncomeStartDate = block.timestamp;\r\n\r\n        // Set the minimum level requerement\r\n        basicIncomeMinimumLevel = 6;\r\n    }\r\n    \r\n    // Add all direct sended coins to the Basic Income found\r\n    receive () payable external {\r\n\r\n        // Add received summ to the Basic Income collected summ\r\n        basicIncomeCollectedSumm += msg.value;\r\n\r\n        // Check the Basic Income payment opotunity\r\n        checkBasicIncomePayment();\r\n\r\n    }\r\n   \r\n    // Level up the partner\r\n    function partnerLevelUp(uint mp, uint level, uint80 roundID) payable public onlyRegistered { \r\n\r\n        // Check a levels number to up         \r\n        require(level > 0 && level <= maxAvaibleLevel, \"Wrong level number\");\r\n\r\n        // Check a marketing plan number\r\n        require (mp >= 0 && mp < marketingPlans.length, \"Wrong marketing plan number\");\r\n\r\n        // A next level number varable\r\n        uint nextMPLevel = level ;\r\n\r\n        // A required marketing plan activation check\r\n        if (partners[msg.sender].level.length > mp){\r\n\r\n            // The required marketing plan is active\r\n\r\n            // Increase the next level by current marketing plan levels number\r\n            nextMPLevel += partners[msg.sender].level[mp].length;\r\n\r\n        }\r\n\r\n        // Set array of a required level ups on each marketing plan to level up current\r\n        uint[] memory requiredLevels = getRequiredLevels(msg.sender, mp, nextMPLevel);\r\n\r\n        // Get the current exchange rate\r\n        (\r\n            uint exchangeRate,\r\n            uint80 newRoundID,\r\n            uint8 decimals // The number of decimals in the current exchange rate.\r\n        )=getExchangeRate(roundID);\r\n      \r\n        // Set the level up price\r\n        uint levelPrice = nextLevelPrice(requiredLevels, exchangeRate, decimals);\r\n            \r\n        // Check if the sent summ is enough\r\n        require(msg.value >= levelPrice, \"You sent not enough coins\");\r\n\r\n        // Level up the partner\r\n        upPartnerLevels(msg.sender, requiredLevels, exchangeRate, decimals);\r\n\r\n        // Check the operation balence\r\n        if ( msg.value > levelPrice) {\r\n\r\n            // The balance above the zero\r\n                \r\n            // Return the balace to the sender\r\n            payable(msg.sender).transfer(msg.value - levelPrice);\r\n        }   \r\n\r\n        // Check if the Basic Income payment is ready\r\n        checkBasicIncomePayment();\r\n                \r\n    }\r\n        \r\n    // A new partner registration\r\n    function registerNewPartner (uint sponsorID, uint mp, uint80 roundID) payable public onlyNotRegistered {\r\n\r\n        // Check a marketing plan number\r\n        require(mp >= 0 && mp < marketingPlans.length, \"Wrong marketing plan number\");\r\n\r\n        // Check a sponsor ID \r\n        require( sponsorID > 0 && sponsorID < type(uint).max, \"Wrong sponsor ID\");\r\n       \r\n        // Set the registration cost\r\n        uint registrationCost = 0;\r\n\r\n        // Get the current exchange rate\r\n        (\r\n            uint exchangeRate,\r\n            uint80 newRoundID,\r\n            uint8 decimals // The number of decimals in the current exchange rate.\r\n        )=getExchangeRate(roundID);\r\n\r\n        // Loop marketing plans\r\n        for (uint8 i = 0; i<=mp; i++) {\r\n\r\n            // Increase the reistration cost by a current marketing plan registration price \r\n            registrationCost += getRegistrationPrice(i, exchangeRate, decimals);  \r\n\r\n        }\r\n           \r\n        // Check if the sent amount is enough\r\n        require(msg.value >= registrationCost, \"You sent not enough coins\");        \r\n        \r\n        // The owner is a sponsor of all registrations without or with a wrong sponsors ID\r\n        address sponsorAddress = owner; \r\n\r\n        // Correct sponsor ID \r\n        uint sponsorIDcorrected = sponsorID - prefID;\r\n        \r\n        // Check a corrected sponsor's ID\r\n        if ( sponsorIDcorrected  > 0 && sponsorIDcorrected < shortIdForLinks.length) {\r\n            \r\n            // Recive an sponsor's address from the short links list\r\n            sponsorAddress = shortIdForLinks[sponsorIDcorrected]; \r\n        }\r\n\r\n        // New Partner creation \r\n        createNewPartner(msg.sender, sponsorAddress);\r\n\r\n        // Set array of a required level ups on each marketing plan to level up \r\n        uint[] memory requiredLevels = getRequiredLevels(msg.sender, mp, 1);           \r\n        \r\n        // Level up the partner\r\n        upPartnerLevels(msg.sender, requiredLevels, exchangeRate, decimals);      \r\n\r\n        // A balance after registration\r\n        uint balance = msg.value - registrationCost;\r\n\r\n        // Check the operation balence\r\n        if ( balance > 0) {\r\n            \r\n            // Return the balace to the sender\r\n            payable(msg.sender).transfer(balance);\r\n        }\r\n\r\n        // Check if the Basic Income payment is ready\r\n        checkBasicIncomePayment();\r\n           \r\n    }\r\n\r\n    // Buy Slots from external projects\r\n    function buySlotsExternal (address partnerAddress, uint mp, uint80 roundID) public payable onlyRegistered {\r\n\r\n        // Check a marketing plan number\r\n        require(mp >= 0 && mp < marketingPlans.length, \"Wrong marketing plan number\");\r\n\r\n        // Check if the marketing plan is active\r\n        require(partners[partnerAddress].level.length>mp, \"Marketing plan is not active\");\r\n       \r\n        // Set the registration cost\r\n        uint slotCost = 0;\r\n\r\n        // Get the current exchange rate\r\n        (\r\n            uint exchangeRate,\r\n            uint80 newRoundID,\r\n            uint8 decimals // The number of decimals in the current exchange rate.\r\n        )=getExchangeRate(roundID);\r\n\r\n        // Level 1 prices array\r\n        uint[] memory prices = new uint[](mp);\r\n\r\n        // Loop marketing plans\r\n        for (uint8 i = 0; i<=mp; i++) {\r\n\r\n            // Set  a current marketing plan registration price \r\n            prices[i] = getRegistrationPrice(i, exchangeRate, decimals);  \r\n\r\n            // Increase the reistration cost by the current marketing plan registration price \r\n            slotCost += prices[i];\r\n\r\n        }\r\n           \r\n        // Check that the sent summ is enough\r\n        require(msg.value >= slotCost, \"You sent not enough coins\");  \r\n\r\n\r\n        // Loop marketing plans\r\n        for (uint8 i = 0; i<=mp; i++) {\r\n\r\n           // Buy level 1 slot of the current marketing plan\r\n           payToPrtners(partnerAddress,  prices[i], 1, i);\r\n\r\n        }\r\n\r\n\r\n        // A balance after registration\r\n        uint balance = msg.value - slotCost;\r\n\r\n        // Check the operation balence\r\n        if ( balance > 0) {\r\n            \r\n            // Return the balace to the sender\r\n            payable(msg.sender).transfer(balance);\r\n        }\r\n\r\n        // Check if the Basic Income payment is ready\r\n        checkBasicIncomePayment();\r\n           \r\n    }\r\n\r\n    // Get the current exchange rate by round ID\r\n    function getExchangeRate(uint80 roundID) public view returns(uint exchangeRate, uint80 newRoundID, uint8 decimals) {\r\n\r\n\r\n        (\r\n            uint80 lastRoundID, \r\n            int lastPrice,\r\n            uint lastStartedAt,\r\n            uint lastTimeStamp,\r\n            uint80 lastAnsweredInRound\r\n        ) = priceFeed.latestRoundData();\r\n\r\n        exchangeRate = uint(lastPrice);\r\n        newRoundID = lastRoundID;\r\n\r\n        if (roundID != 0){\r\n\r\n            (\r\n                uint80 id, \r\n                int price,\r\n                uint startedAt,\r\n                uint  timeStamp,\r\n                uint80 answeredInRound\r\n            ) = priceFeed.getRoundData(roundID);\r\n\r\n            if (timeStamp > lastTimeStamp + 2*1 minutes) {\r\n\r\n                exchangeRate = uint(price);\r\n                newRoundID = roundID;                \r\n            }\r\n        }\r\n        decimals = priceFeed.decimals();\r\n    }   \r\n\r\n    // Pay the Basic Income\r\n    function basicIncomePay () public onlyOwner {\r\n\r\n        // Check if a blockchain commision summ to make a payments of the Basic Income transfered\r\n        if (commissionTransfered) {\r\n\r\n            // Commission was transfered\r\n\r\n            // Get Basic Income receivers\r\n            address[] memory receivers = getBasicIncomeReceivers();\r\n\r\n            // Loop receivers to pay\r\n            for (uint8 i = 0; i < receivers.length; i++){\r\n\r\n                // Pay tahe Basic Income to the Partner\r\n                payToPartner(receivers[i], 0, basicIncomeSumm, 0, 0); \r\n\r\n                // Reduce collected summ\r\n                basicIncomeCollectedSumm -= basicIncomeSumm;\r\n            }\r\n\r\n            // Set the commission transfered flag to false\r\n            commissionTransfered  = false;\r\n\r\n            // Check the Basic Income collection duration\r\n            if (block.timestamp <= basicIncomeStartDate + 1 weeks) {\r\n\r\n                // The Basic Income was collected less then a week\r\n\r\n                // Twice the Basic Income amount\r\n                basicIncomeSumm *=2;\r\n\r\n            } else if (block.timestamp >= basicIncomeStartDate + 4 * 1 weeks && basicIncomeSumm > 2 ether) {\r\n\r\n                // The Basic Income was collected more then 4 weeks\r\n\r\n                // Half the Basic Income amount\r\n                basicIncomeSumm /=2;\r\n            }\r\n\r\n            // Set a new Basic Income collection start date\r\n            basicIncomeStartDate = block.timestamp;\r\n        } \r\n\r\n        // Check if the Basic Income payment is ready agan\r\n        checkBasicIncomePayment();   \r\n    }\r\n\r\n    // Fast Basic Income ready to pay check\r\n    function isCommisionTransfered() public view onlyOwner returns (bool transfered) {\r\n\r\n        transfered = commissionTransfered;\r\n    }\r\n\r\n    // Get reserved places number\r\n    function getPref() public view onlyOwner returns (uint pref) {\r\n\r\n        pref = prefID;\r\n    }\r\n\r\n    // Check for registration\r\n    function isRegistered () \r\n        public \r\n        view \r\n        returns (bool) {\r\n                \r\n        // Returns true if ID is setted\r\n        return partners[msg.sender].id>0;\r\n    } \r\n\r\n    // Get the current registration prices by round ID\r\n    function getRegistrationPrices (uint80 roundID) public view returns (uint[] memory registrationPrices, uint80 newRoundID){\r\n\r\n        // Get the current exchange rate\r\n        (\r\n            uint exchangeRate, // The current exchange rate\r\n            uint80 currentRoundID,  // A new round ID\r\n            uint8 decimals // The number of decimals in the current exchange rate\r\n        )=getExchangeRate(roundID); \r\n\r\n        // Set the new round ID\r\n        newRoundID = currentRoundID;\r\n\r\n        // Set the length of the registration prices array equal to the marketing plans number \r\n        registrationPrices = new uint[](marketingPlans.length);\r\n\r\n        // Loop marketing plans\r\n        for (uint8 i = 0; i <marketingPlans.length; i++){\r\n\r\n            // Set current price\r\n            registrationPrices[i] = getRegistrationPrice(i, exchangeRate, decimals);\r\n        }\r\n    }   \r\n    \r\n    // Get a list of the partners who were sponsored by the address of the partner\r\n    function getReferals(address partnerAddress) \r\n        public \r\n        view \r\n        onlyRegistered \r\n        returns ( address[] memory) {\r\n \r\n        // Return the partner's referals list  \r\n        return partners[partnerAddress].referals;\r\n    }\r\n\r\n    // Count members in the partner's network\r\n    function getNetworkCount(address partnerAddress)\r\n        public\r\n        view\r\n        onlyRegistered\r\n        returns(uint count) {\r\n        \r\n        // Count referals\r\n        count = partners[partnerAddress].referals.length;\r\n\r\n        // Loop referals\r\n        for(uint8 i = 0; i < partners[partnerAddress].referals.length; i++)  {\r\n\r\n            // Add referal's network count\r\n            count += getNetworkCount(partners[partnerAddress].referals[i]);\r\n        }      \r\n    }\r\n\r\n    // Get Next level prices\r\n    function getNextLevelPrices(uint80 roundID) \r\n        public \r\n        view \r\n        onlyRegistered \r\n        returns (\r\n            uint[] memory nextLevelPrices\r\n            ){\r\n\r\n        nextLevelPrices = new uint[](marketingPlans.length);\r\n        for(uint8 i = 0; i< nextLevelPrices.length; i++){\r\n\r\n            // Set a next level number of the current marketing plan\r\n            uint nextLevel = 1;\r\n\r\n            // Check the current marketing plan activation\r\n            if (partners[msg.sender].level.length > i){\r\n\r\n                // The marketing plan is active\r\n\r\n                // Increase the next level number by the level of the current marketing plan\r\n                nextLevel += partners[msg.sender].level[i].length;\r\n            }\r\n\r\n            // Get the current exchange rate\r\n            (\r\n                uint exchangeRate,\r\n                uint80 newRoundID,\r\n                uint8 decimals // The number of decimals in the current exchange rate\r\n            )=getExchangeRate(roundID);\r\n\r\n            // Return a price of a level ups to the current level number of the current marketing plan \r\n            nextLevelPrices[i] = nextLevelPrice(getRequiredLevels(msg.sender, i, nextLevel), exchangeRate, decimals);\r\n\r\n        }\r\n    } \r\n\r\n    // Get account data\r\n    function getMyData() \r\n        public \r\n        view \r\n        onlyRegistered \r\n        returns (\r\n            uint id, \r\n            uint[] memory level,\r\n            uint[] memory level1,\r\n            uint[] memory level2,\r\n            uint registrationDate,\r\n            uint blockNumber, \r\n            address[] memory referals, \r\n            uint network\r\n            ) {\r\n\r\n        id = partners[msg.sender].id;\r\n        level = partners[msg.sender].level[0];\r\n        if (partners[msg.sender].level.length>1) {\r\n            level1 = partners[msg.sender].level[1];\r\n            if (partners[msg.sender].level.length>2)\r\n            {\r\n                level2 = partners[msg.sender].level[2];\r\n            }\r\n        }\r\n                        \r\n        registrationDate = partners[msg.sender].registrationDate;\r\n        referals = partners[msg.sender].referals;\r\n        network = getNetworkCount(msg.sender);\r\n        blockNumber = partners[msg.sender].registrationBlockNumber;\r\n    }\r\n\r\n    // Get the current Basic Income status\r\n    function getbasicIncomeData() \r\n        public \r\n        view \r\n        returns (\r\n            uint balance,\r\n            uint bonusSumm,\r\n            uint result,\r\n            uint mp,\r\n            uint minimumLevel\r\n            ) {\r\n\r\n        // Return Basic Income collected summ\r\n        balance = basicIncomeCollectedSumm;\r\n\r\n        // Return summ of the Basic Income\r\n        bonusSumm = basicIncomeSumm;\r\n\r\n        // Get Basic Income receivers\r\n        address[] memory receivers = getBasicIncomeReceivers();\r\n\r\n        // Caculate required summ to pay to all receivers\r\n        result = receivers.length * (basicIncomeSumm+0.00021 ether)+0.01 ether;\r\n\r\n        // Return number of the reuired activated marketing plan\r\n        mp = marketingPlans.length-1;\r\n\r\n        // Return minimum required marketing plan level \r\n        minimumLevel = basicIncomeMinimumLevel;\r\n    }\r\n\r\n    // Registration under special conditions\r\n    function marketingReg(address partnerAddress, uint level) public onlyOwner {\r\n\r\n        // New Partner creation\r\n        createNewPartner(partnerAddress, owner);\r\n\r\n        // New Partner levels up\r\n        // Loop marketing plans\r\n        for (uint8 i = 0; i < marketingPlans.length; i++){\r\n\r\n            // Activate current marketing plan\r\n            partners[partnerAddress].level.push([1]);\r\n\r\n            // Call the reistration event \r\n            emit registration (\r\n                partners[partnerAddress].id, \r\n                partnerAddress, \r\n                owner,\r\n                i\r\n                );\r\n\r\n            // Loop required levels count\r\n            for (uint8 k = 0; k < level-1; k++){\r\n\r\n                // Level up Partner's current marketing plan\r\n                partners[partnerAddress].level[i].push(1);\r\n                \r\n                // Call the level up event\r\n                emit levelUp (\r\n                partnerAddress, \r\n                partners[partnerAddress].level[i].length,\r\n                i\r\n                );                  \r\n            }\r\n\r\n        }\r\n    }\r\n\r\n    // Get a required number of level ups of each marketing plan to \r\n    // level up current marketin plan to requested level\r\n    function getRequiredLevels (address partnerAddress, uint mp, uint level) \r\n        private \r\n        view \r\n        returns (uint[] memory requiredLevels) {\r\n\r\n        // Initiate a required levels array with length equals to the marketing plans count \r\n        requiredLevels = new uint[](mp+1);\r\n\r\n        // Loop marketing plans of the Partner\r\n        for (uint8 i = 0; i < mp + 1 ; i++){\r\n\r\n            // Check for the marketing plan activation\r\n            if (i < partners[partnerAddress].level.length){\r\n\r\n                // The Marketiong plan is active\r\n\r\n                // Check for the level of the current marketing plan\r\n                if (partners[partnerAddress].level[i].length >= level){\r\n\r\n                    // The level if equal or higher then required\r\n\r\n                    // Zero level ups of the current marketing plan is required\r\n                    requiredLevels[i] = 0;\r\n\r\n                } else {\r\n\r\n                    // The level of the current marketing plan is less then required\r\n\r\n                    // Return difference between curent and requested levels of \r\n                    // the current marketing plan \r\n                    requiredLevels[i] = level - partners[partnerAddress].level[i].length;\r\n                }\r\n            } else {\r\n\r\n                // The marketing plan is not active\r\n\r\n                // Required number of the level ups of the current marketing plan is equal to \r\n                // the required level    \r\n                requiredLevels[i] = level;\r\n            }\r\n\r\n        }\r\n    }\r\n\r\n    // The levels up function\r\n    function upPartnerLevels (address partnerAddress, uint[] memory requiredLevels, uint exchangeRate, uint8 decimals) private {\r\n\r\n        // The current level of the current marketing plan can't be less\r\n        // then a previos marketing plan level\r\n        // A level up procedure always starts from a first marketing plan and\r\n        // step by step go to current\r\n\r\n        // Loop reured marketing plans\r\n        for (uint8 i = 0; i < requiredLevels.length; i++) {\r\n\r\n            // Loop required levels of the current marketing plan to up\r\n            for(uint8 k = 0; k < requiredLevels[i]; k++) {\r\n\r\n                // Current level up price\r\n                uint price = 0;\r\n\r\n                // Check for owner\r\n                if (partnerAddress != owner){\r\n\r\n                    // The partner is not the owner\r\n\r\n                    // Set the current level up price\r\n                    price = levelUpPrice(partnerAddress, i, exchangeRate, decimals);\r\n                }\r\n                \r\n\r\n                // Level up the partner\r\n                upPartnerLevel(partnerAddress, price, i);\r\n            }\r\n        }\r\n    }\r\n    \r\n    // The level up execution procedure\r\n    function upPartnerLevel (address partnerAddress, uint price, uint mp) private {\r\n\r\n        // Check the current marketing plan activation        \r\n        if (partners[partnerAddress].level.length > mp) {\r\n\r\n            // The marketing plan is active\r\n\r\n            // Add a next slot number to the a level of the current marketing plan\r\n            partners[partnerAddress].level[mp].push(1);\r\n\r\n        } else {\r\n\r\n            // The marketing plan is not  active\r\n\r\n            // Activate the current marketing plan and add a next slot number of a first level\r\n            partners[partnerAddress].level.push([1]);\r\n\r\n        }\r\n        \r\n        // Is it registration?\r\n        if (partners[partnerAddress].level[mp].length>1 ) {\r\n            \r\n            // Call the level up event with the sponsor ID and the new partner's level\r\n            emit levelUp (\r\n                partnerAddress, \r\n                partners[partnerAddress].level[mp].length,\r\n                mp\r\n                );        \r\n        } else {\r\n            \r\n            // Call the reistration event with a new partner's ID and \r\n            //the sponsor address\r\n            emit registration (\r\n                partners[partnerAddress].id, \r\n                partnerAddress, \r\n                partners[partnerAddress].sponsorAddress,\r\n                mp\r\n                );\r\n        }\r\n\r\n        // Chek for owner\r\n        if (partnerAddress != owner){\r\n\r\n            // The partner is not the owner\r\n\r\n            // Buy a new marketing plan level slot in the matrix\r\n            payToPrtners(\r\n                partners[partnerAddress].sponsorAddress, \r\n                price, \r\n                partners[partnerAddress].level[mp].length,\r\n                mp\r\n                );\r\n        }\r\n    }\r\n\r\n    // The level up price calculation fauction\r\n    function levelUpPrice(address partnerAddress, uint mp, uint exchangeRate, uint8 decimals) private view returns(uint price) {\r\n\r\n\r\n        // Return the registration price of the desired marketing plan, \r\n        // multiplied by two to the power equal to the current level\r\n\r\n        uint level = 0;\r\n\r\n        if (partners[partnerAddress].level.length > mp) {\r\n\r\n            level = partners[partnerAddress].level[mp].length;\r\n        }\r\n\r\n        price = getRegistrationPrice(mp, exchangeRate, decimals)*2**level;\r\n    }\r\n    \r\n    // The payments execution function\r\n    function payToPrtners (address sponsorAddress, uint amount, uint level, uint mp) private {\r\n        \r\n\r\n        // Calculate summ of a Basic Income fee\r\n        uint toBasicIncome = amount*basicIncomeFee/100;\r\n\r\n        // Take the Basic Income fee\r\n        uint leftToPay = amount-toBasicIncome;\r\n\r\n        // Calculate summ to pay out for the slot\r\n         uint summToPay = directBonus*amount/100; \r\n\r\n        // Looking the first eligible sponsor to sell the slot on the level \r\n        // of the required marketing plan\r\n        // It can be only the first same-level sponsor with a free slot \r\n        // in a pool or the higer-level sponsor\r\n        address currentPartnerAddressToPay = findPartnerToPay(sponsorAddress, level, summToPay, mp); \r\n                      \r\n        // Check should we look at the structure or this is a owner's referal\r\n        if (currentPartnerAddressToPay == owner) {\r\n\r\n            // Up owner's level if necessary\r\n            if (partners[owner].level[mp].length < level) {\r\n\r\n                uint[] memory requiredLevels = getRequiredLevels(owner, mp, level);\r\n\r\n                upPartnerLevels(owner, requiredLevels, 1, 0);\r\n\r\n            }\r\n        }\r\n            \r\n        // Incriment a next slot number at the level\r\n        saveLevelIncrement(currentPartnerAddressToPay, level, mp);\r\n\r\n        // Pay for the slot to an eligible sponsor\r\n        payToPartner(currentPartnerAddressToPay, 1, summToPay, level, mp); \r\n\r\n           \r\n        // Set a next partner to pay out leader's bonuses\r\n        currentPartnerAddressToPay = partners[sponsorAddress].sponsorAddress; \r\n            \r\n        // Reduce the amount to be paid by the amount of the payment already made \r\n        leftToPay -= summToPay;\r\n            \r\n        // Paying network bonuses to leaders \r\n\r\n        // Loop a higest marketing plan leaders bounuses \r\n        for (uint8 i = 0; i < marketingPlans[marketingPlans.length-1].leaderBonusLevels.length; i++) {\r\n                \r\n            // Check if the next sponsor is the owner\r\n            if (currentPartnerAddressToPay == owner) {\r\n                    \r\n                // Pay to the owner\r\n                payToPartner(owner, i + 2, leftToPay, level, mp);\r\n\r\n                leftToPay = 0;\r\n\r\n                break; // Stop the payment procedure\r\n            }\r\n\r\n            // A summ of the network bonus to pay to the current partner\r\n            uint currentSummToPay = 0;\r\n          \r\n            for (uint8 k = 1; k < marketingPlans.length; k++){\r\n\r\n                if (i < marketingPlans[k].leaderBonusLevels.length){\r\n\r\n                    // Calculate summ of a bonus to pay out\r\n                    summToPay = marketingPlans[k].leaderBonusLevels[i]*amount/100;\r\n\r\n                    // Rounding error protection\r\n                    // Checking the amount of the last bonus\r\n                    if (i == marketingPlans[marketingPlans.length-1].leaderBonusLevels.length-1 && summToPay > leftToPay) {\r\n\r\n                       // Summ to pay is more than left amount or equal to it\r\n\r\n                        // Set summ to pay as left to pay amount\r\n                        summToPay = leftToPay;\r\n\r\n                        // Reset left to pay amount to 0\r\n                        leftToPay = 0;\r\n\r\n                    } else {\r\n\r\n                        // Reduce left to pay summ\r\n                        leftToPay -= summToPay;\r\n                    }                 \r\n                    \r\n                    // Check partners level\r\n                    if (partners[currentPartnerAddressToPay].level.length - 1 >= k) {\r\n\r\n                        // The partner has nessesary level to receive payment\r\n\r\n                        // Increase current summ to pay\r\n                        currentSummToPay += summToPay;\r\n                       \r\n                    } else {\r\n\r\n                        // The partner hasn't nessesary level to receive payment\r\n\r\n                        // Emit missing bonus event\r\n                        emit missingBounus (currentPartnerAddressToPay, i + 2, level, summToPay, mp, k);\r\n\r\n                        // Increase Basic Income summ to collect\r\n                        toBasicIncome +=summToPay;\r\n                    }\r\n\r\n                }\r\n                \r\n            }\r\n\r\n            // Check the current summ to pay\r\n            if (currentSummToPay > 0) {\r\n\r\n                // There are bonuses for payout\r\n\r\n                // Pay to the partner\r\n                payToPartner(currentPartnerAddressToPay, i + 2, currentSummToPay, level, mp);\r\n            }\r\n     \r\n            // Set a next partner to pay out \r\n            currentPartnerAddressToPay = partners[currentPartnerAddressToPay].sponsorAddress; \r\n        }\r\n        \r\n        // Increase Basic Income collected summ \r\n        basicIncomeCollectedSumm += toBasicIncome;     \r\n    }\r\n\r\n\r\n    // The payment function\r\n    function payToPartner (address partnerAddress, uint bonusType, uint amount, uint level, uint mp) private {\r\n        \r\n        \r\n        // Pay out bonus\r\n        payable(partnerAddress).transfer(amount); \r\n        \r\n        // Call a bonus pais out event with addres and paid summToPay\r\n        emit bonusPaidOut(partnerAddress, bonusType, amount, level, mp);        \r\n    }\r\n    \r\n    // Search for the partner who has fulfilled the conditions for receiving payment\r\n    function findPartnerToPay (\r\n            address partnerAddress, \r\n            uint level,\r\n            uint amount, \r\n            uint mp\r\n        ) \r\n        private \r\n        returns (address) {\r\n       \r\n        // Check if it is an owner's address\r\n        if ( partnerAddress == owner) {\r\n            \r\n            return owner; // Return the owner's address as an address to pay \r\n        }\r\n        \r\n        // Check conditionals for pay to the partner:\r\n        // The partner's level should be same or higher then level of payment\r\n        // The partner with higher level has unlimited slots \r\n        // The partner with the same level should have a free slot\r\n        // The partner's next free slot shouldn't be a last in the pool\r\n        // If any of the conditions is not met, then the payment is redirected to the sponsor. \r\n        // The sponsor must also pass a broach eligibility check.\r\n        \r\n        // Set partner's sponsor\r\n        address sponsorAddress = partners[partnerAddress].sponsorAddress;\r\n\r\n\r\n        // Check for required marketing palan ativation\r\n        if (partners[partnerAddress].level.length > mp) {\r\n\r\n            // The required marketing plan is active\r\n        \r\n            // Set current partner's level\r\n            uint partnersLevel = partners[partnerAddress].level[mp].length; \r\n            \r\n            // Check that the partner's level is higher than required\r\n            if (partnersLevel > level) {\r\n\r\n                // The level high enougth\r\n                \r\n                // Check if the partner shouldn't pay for reopen of the pool\r\n                if (!isReopen(partnerAddress, level, mp)) {\r\n                    \r\n                    // Return the partner's address as address to pay\r\n                    return partnerAddress; \r\n\r\n                } else { // The partner should pay for reopen of the pool to the sponsor\r\n                \r\n                    // Return a suitable sponsor to pay for the pool\r\n                    return findPartnerToPay(sponsorAddress, level, amount, mp); \r\n                }\r\n            } else { \r\n\r\n                // The partner's level not higer then payment level\r\n                \r\n                // Do the partner has a same level?\r\n                if (partnersLevel == level) {\r\n                    \r\n                    //Check if it is a reopen of the pool\r\n                    if (isReopen(partnerAddress, level, mp)) { \r\n\r\n                        // The partner pays for reopen of the pool\r\n                            \r\n                        // Search a sutable sponsor to pay for the reopen\r\n                        return findPartnerToPay(sponsorAddress, level, amount, mp);\r\n\r\n                    } else {\r\n\r\n                        // Check if the partner's slots at the level isn't exhausted\r\n                        if (partners[partnerAddress].level[mp][level-1] < slotsPerLevel || level == maxAvaibleLevel) {\r\n                            \r\n                            // Return the partner's address as address to pay\r\n                            return partnerAddress;  \r\n                            \r\n                        } else { \r\n\r\n                            // This partner haven't sutable slots\r\n                           \r\n                            // Call missing bounus event with the address of the partner \r\n                            // who missed the bonus and the bonus level \r\n                            emit missingBounus (partnerAddress, 1, level, amount, mp, 0);\r\n\r\n                            // Continue a suitable sponsor search\r\n                            return findPartnerToPay(sponsorAddress, level, amount, mp);\r\n                            \r\n                        }  \r\n                    }              \r\n                } else { // The partner's level lower then level of the payment\r\n                    \r\n                    // Call missing bounus event with the address of the partner \r\n                    // who missed the bonus and the bonus level \r\n                    emit missingBounus (partnerAddress, 1, level, amount, mp, 0);\r\n                    \r\n                    // Continue a suitable sponsor search \r\n                    return findPartnerToPay(sponsorAddress, level, amount, mp); \r\n                    \r\n                }\r\n            }\r\n        } else { \r\n\r\n            // The partner do not have an activated required marketing plan \r\n\r\n            // Call missing bounus event with the address of the partner \r\n            // who missed the bonus and the bonus level \r\n            emit missingBounus (partnerAddress, 1, level, amount, mp, 0);\r\n                    \r\n            // Continue a suitable sponsor search \r\n            return findPartnerToPay(sponsorAddress, level, amount, mp); \r\n\r\n        }\r\n    }\r\n    \r\n    // A pool reopen chek function \r\n    function isReopen (address partnerAddress, uint level, uint mp) private returns(bool reopen) {\r\n        \r\n        // Check current pool length less than maximum slots per pool number\r\n        if ((partners[partnerAddress].level[mp][level-1]-1) % slotsPerPool+1 == slotsPerPool){\r\n            \r\n            // Incriment a next slot number at the level\r\n            saveLevelIncrement(partnerAddress, level, mp);\r\n            \r\n            // Call the poll reopened event with the partner address and the pool level\r\n            emit poolIsReopened(partnerAddress, level, mp);\r\n            \r\n            reopen = true;\r\n        }\r\n    }\r\n    \r\n    \r\n    // IntOveflow protection \r\n    function saveLevelIncrement (address partnerAddress, uint level, uint mp) private {\r\n        \r\n        // The maximum uint value check                \r\n        if (partners[partnerAddress].level[mp][level-1] <type(uint).max) \r\n        {\r\n            // Incriment the level next slot value\r\n            partners[partnerAddress].level[mp][level-1] ++; \r\n        } \r\n        else \r\n        {\r\n            // Reset the level next slot to the slots per level value \r\n            //to prevent new free slots emergence\r\n            partners[partnerAddress].level[mp][level-1] = slotsPerLevel+1;\r\n        }\r\n    }\r\n\r\n    // New Partner data creation\r\n    function createNewPartner (address partnerAddress, address sponsorAddress) private {\r\n        \r\n        // Generate new ID\r\n        uint newID = shortIdForLinks.length + prefID;\r\n        \r\n        // Mapping ID to addres\r\n        shortIdForLinks.push (partnerAddress);\r\n\r\n        // Set the partner's ID\r\n        partners[partnerAddress].id = newID;\r\n        \r\n        // Set sponsor to the new partner\r\n        partners[partnerAddress].sponsorAddress = sponsorAddress;\r\n\r\n        // Set the registration date\r\n        partners[partnerAddress].registrationDate = block.timestamp;\r\n\r\n        // Set the registration block number\r\n        partners[partnerAddress].registrationBlockNumber = block.number;\r\n\r\n        if (partnerAddress != owner) {\r\n\r\n            // Add the new partner into the sponsor's list of referrals\r\n            partners[sponsorAddress].referals.push(partnerAddress);             \r\n        }   \r\n    }\r\n\r\n    // Current registration price\r\n    function getRegistrationPrice (uint mp, uint exchangeRate, uint8 decimals) private view returns (uint price) {\r\n\r\n        // Return a registration price to the required marketing plan\r\n        price = marketingPlans[mp].registrationPrice*10**(18+decimals)/exchangeRate;\r\n    }\r\n\r\n    // Calculate the next level price\r\n    function nextLevelPrice (uint[] memory requiredLevels, uint exchangeRate, uint8 decimals) private view onlyRegistered returns  (uint price) {\r\n        \r\n        // Tthe price of the next level is twice the price of the current one.\r\n        // The Level of the marketing plan have to be less or the same of previos plan's level.\r\n        // The price of the next level of the current marketing plan is a summ of a level ups prices\r\n        // of this and an all previos plans to the required level.\r\n\r\n        // Start a price count form 0\r\n        price = 0;\r\n\r\n        if (msg.sender != owner) {\r\n\r\n            uint currentLevel;\r\n\r\n            // Go through all the marketing plans, the levels at which should be increased\r\n            for (uint8 i = 0; i<requiredLevels.length; i++){\r\n\r\n                // Set the current level \r\n                currentLevel = 0;\r\n\r\n                // Check the current marketing plan activation\r\n                if (partners[msg.sender].level.length>i) {\r\n\r\n                    // The marketing plan is active\r\n\r\n                    // Increase the current level by the partner's level of the current marketing plan\r\n                    currentLevel = partners[msg.sender].level[i].length;\r\n                }\r\n\r\n                // Loop required levels of the current marketing plan\r\n                for (uint8 k = 0; k < requiredLevels[i]; k++){\r\n\r\n                    // Incriment the price by the price of the current marketing plan level\r\n                    price += getRegistrationPrice(i, exchangeRate, decimals)*2**(currentLevel+k);\r\n                }\r\n            }\r\n        }\r\n    }\r\n\r\n    // Get Basic Income receivers    \r\n    function getBasicIncomeReceivers() private view returns(address[] memory receivers){\r\n\r\n        uint8 j=0;\r\n\r\n        for (uint8 i = 0; i <  shortIdForLinks.length; i++){\r\n\r\n            // Check for conditions were passed\r\n\r\n            // Partner has the last Marketing Plan ative\r\n            if (partners[shortIdForLinks[i]].level.length == marketingPlans.length){\r\n\r\n                // Level of the last Marketing Plan is enough \r\n                if(partners[shortIdForLinks[i]].level[marketingPlans.length-1].length >= basicIncomeMinimumLevel){\r\n\r\n                    // Partner can receive Basic Income\r\n\r\n                    j++;\r\n                }\r\n            }\r\n        }\r\n\r\n        receivers = new address[](j);\r\n\r\n        for (uint8 i = 0; i <  shortIdForLinks.length; i++){\r\n\r\n            // Check for conditions were passed\r\n\r\n            // Partner has the last Marketing Plan ative\r\n            if (partners[shortIdForLinks[i]].level.length == marketingPlans.length){\r\n\r\n                // Level of the last Marketing Plan is enough \r\n                if(partners[shortIdForLinks[i]].level[marketingPlans.length-1].length >= basicIncomeMinimumLevel){\r\n\r\n                    // Partner can receive Basic Income\r\n\r\n                    // Add Prtner to the receivers array\r\n                    receivers[i] = shortIdForLinks[i];\r\n                }\r\n            }\r\n        }\r\n    }\r\n\r\n    // Basic Income ready check\r\n    function checkBasicIncomePayment() private {\r\n\r\n        // Get Basic Income receivers\r\n        address[] memory receivers = getBasicIncomeReceivers();\r\n\r\n        // Caculate required summ to pay to all receivers\r\n        uint result = receivers.length * (basicIncomeSumm+0.00021 ether)+0.01 ether;\r\n \r\n        // Check if a Basic Income summ reached\r\n        if (basicIncomeCollectedSumm >= result) {\r\n\r\n            // The Basic Income is coolected and ready to be paid\r\n\r\n            // Check if a blockchain commision summ to make a payments of the Basic Income transfered\r\n            if (!commissionTransfered) {\r\n\r\n                // To prevent partner's huge commision to make all payments\r\n                // the paymets of the Basic Income makes in separaded transaction\r\n                // from the owner's address. Blockchain commision summ is transfered \r\n                // to the address of the owner only once to make it. A script listen to\r\n                // the event and call basicIncomePay function from owner's address.\r\n                //\r\n                // This is not secured solution for members but   \r\n\r\n                // Transfer the blockchain commision summ to make a payments of the Basic Income\r\n                payable(owner).transfer(receivers.length * (0.00021 ether));\r\n                commissionTransfered = true; \r\n            } \r\n\r\n            // Emit an event to initiate the payments of the Basic Income to the Partners\r\n            emit basicIncomeReadyToPay(receivers, basicIncomeSumm);            \r\n       \r\n        }  \r\n    }\r\n\r\n}\r\n",
  "sourcePath": "C:\\Users\\iumantsev\\cryptolife\\contracts\\CryptoLife.sol",
  "compiler": {
    "name": "solc",
    "version": "0.7.6+commit.7338295f.Emscripten.clang"
  },
  "schemaVersion": "3.4.3",
  "updatedAt": "2022-05-04T11:34:34.815Z",
  "devdoc": {
    "kind": "dev",
    "methods": {},
    "version": 1
  },
  "userdoc": {
    "kind": "user",
    "methods": {},
    "version": 1
  }
}