{
  "contractName": "CryptoLife",
  "abi": [
    {
      "inputs": [],
      "stateMutability": "nonpayable",
      "type": "constructor"
    },
    {
      "anonymous": false,
      "inputs": [
        {
          "indexed": false,
          "internalType": "address[]",
          "name": "receivers",
          "type": "address[]"
        },
        {
          "indexed": false,
          "internalType": "uint256",
          "name": "amount",
          "type": "uint256"
        }
      ],
      "name": "basicIncomeReadyToPay",
      "type": "event"
    },
    {
      "anonymous": false,
      "inputs": [
        {
          "indexed": true,
          "internalType": "address",
          "name": "partnerAddress",
          "type": "address"
        },
        {
          "indexed": true,
          "internalType": "uint256",
          "name": "bonusType",
          "type": "uint256"
        },
        {
          "indexed": false,
          "internalType": "uint256",
          "name": "amount",
          "type": "uint256"
        },
        {
          "indexed": false,
          "internalType": "uint256",
          "name": "level",
          "type": "uint256"
        },
        {
          "indexed": false,
          "internalType": "uint256",
          "name": "mp",
          "type": "uint256"
        }
      ],
      "name": "bonusPaidOut",
      "type": "event"
    },
    {
      "anonymous": false,
      "inputs": [
        {
          "indexed": true,
          "internalType": "address",
          "name": "partnerAddress",
          "type": "address"
        },
        {
          "indexed": false,
          "internalType": "uint256",
          "name": "level",
          "type": "uint256"
        },
        {
          "indexed": false,
          "internalType": "uint256",
          "name": "mp",
          "type": "uint256"
        }
      ],
      "name": "levelUp",
      "type": "event"
    },
    {
      "anonymous": false,
      "inputs": [
        {
          "indexed": true,
          "internalType": "address",
          "name": "partnerAddress",
          "type": "address"
        },
        {
          "indexed": false,
          "internalType": "uint256",
          "name": "bonusType",
          "type": "uint256"
        },
        {
          "indexed": false,
          "internalType": "uint256",
          "name": "level",
          "type": "uint256"
        },
        {
          "indexed": false,
          "internalType": "uint256",
          "name": "amount",
          "type": "uint256"
        },
        {
          "indexed": false,
          "internalType": "uint256",
          "name": "mp",
          "type": "uint256"
        },
        {
          "indexed": false,
          "internalType": "uint256",
          "name": "bonusMp",
          "type": "uint256"
        }
      ],
      "name": "missingBounus",
      "type": "event"
    },
    {
      "anonymous": false,
      "inputs": [
        {
          "indexed": true,
          "internalType": "address",
          "name": "partnerAddress",
          "type": "address"
        },
        {
          "indexed": false,
          "internalType": "uint256",
          "name": "level",
          "type": "uint256"
        },
        {
          "indexed": false,
          "internalType": "uint256",
          "name": "mp",
          "type": "uint256"
        }
      ],
      "name": "poolIsReopened",
      "type": "event"
    },
    {
      "anonymous": false,
      "inputs": [
        {
          "indexed": true,
          "internalType": "uint256",
          "name": "partnerID",
          "type": "uint256"
        },
        {
          "indexed": true,
          "internalType": "address",
          "name": "partnerAddress",
          "type": "address"
        },
        {
          "indexed": true,
          "internalType": "address",
          "name": "sponsorAddress",
          "type": "address"
        },
        {
          "indexed": false,
          "internalType": "uint256",
          "name": "mp",
          "type": "uint256"
        }
      ],
      "name": "registration",
      "type": "event"
    },
    {
      "stateMutability": "payable",
      "type": "receive",
      "payable": true
    },
    {
      "inputs": [
        {
          "internalType": "uint256",
          "name": "mp",
          "type": "uint256"
        },
        {
          "internalType": "uint256",
          "name": "level",
          "type": "uint256"
        },
        {
          "internalType": "uint80",
          "name": "roundID",
          "type": "uint80"
        }
      ],
      "name": "partnerLevelUp",
      "outputs": [],
      "stateMutability": "payable",
      "type": "function",
      "payable": true
    },
    {
      "inputs": [
        {
          "internalType": "uint256",
          "name": "sponsorID",
          "type": "uint256"
        },
        {
          "internalType": "uint256",
          "name": "mp",
          "type": "uint256"
        },
        {
          "internalType": "uint80",
          "name": "roundID",
          "type": "uint80"
        }
      ],
      "name": "registerNewPartner",
      "outputs": [],
      "stateMutability": "payable",
      "type": "function",
      "payable": true
    },
    {
      "inputs": [
        {
          "internalType": "uint80",
          "name": "roundID",
          "type": "uint80"
        }
      ],
      "name": "getExchangeRate",
      "outputs": [
        {
          "internalType": "uint256",
          "name": "exchangeRate",
          "type": "uint256"
        },
        {
          "internalType": "uint80",
          "name": "newRoundID",
          "type": "uint80"
        },
        {
          "internalType": "uint8",
          "name": "decimals",
          "type": "uint8"
        }
      ],
      "stateMutability": "view",
      "type": "function",
      "constant": true
    },
    {
      "inputs": [],
      "name": "isRegistered",
      "outputs": [
        {
          "internalType": "bool",
          "name": "",
          "type": "bool"
        }
      ],
      "stateMutability": "view",
      "type": "function",
      "constant": true
    },
    {
      "inputs": [
        {
          "internalType": "uint80",
          "name": "roundID",
          "type": "uint80"
        }
      ],
      "name": "getRegistrationPrices",
      "outputs": [
        {
          "internalType": "uint256[]",
          "name": "registrationPrices",
          "type": "uint256[]"
        },
        {
          "internalType": "uint80",
          "name": "newRoundID",
          "type": "uint80"
        }
      ],
      "stateMutability": "view",
      "type": "function",
      "constant": true
    },
    {
      "inputs": [
        {
          "internalType": "address",
          "name": "partnerAddress",
          "type": "address"
        }
      ],
      "name": "getReferals",
      "outputs": [
        {
          "internalType": "address[]",
          "name": "",
          "type": "address[]"
        }
      ],
      "stateMutability": "view",
      "type": "function",
      "constant": true
    },
    {
      "inputs": [
        {
          "internalType": "address",
          "name": "partnerAddress",
          "type": "address"
        }
      ],
      "name": "getNetworkCount",
      "outputs": [
        {
          "internalType": "uint256",
          "name": "count",
          "type": "uint256"
        }
      ],
      "stateMutability": "view",
      "type": "function",
      "constant": true
    },
    {
      "inputs": [
        {
          "internalType": "uint80",
          "name": "roundID",
          "type": "uint80"
        }
      ],
      "name": "getNextLevelPrices",
      "outputs": [
        {
          "internalType": "uint256[]",
          "name": "nextLevelPrices",
          "type": "uint256[]"
        }
      ],
      "stateMutability": "view",
      "type": "function",
      "constant": true
    },
    {
      "inputs": [],
      "name": "getMyData",
      "outputs": [
        {
          "internalType": "uint256",
          "name": "id",
          "type": "uint256"
        },
        {
          "internalType": "uint256[]",
          "name": "level",
          "type": "uint256[]"
        },
        {
          "internalType": "uint256[]",
          "name": "level1",
          "type": "uint256[]"
        },
        {
          "internalType": "uint256[]",
          "name": "level2",
          "type": "uint256[]"
        },
        {
          "internalType": "uint256",
          "name": "registrationDate",
          "type": "uint256"
        },
        {
          "internalType": "uint256",
          "name": "blockNumber",
          "type": "uint256"
        },
        {
          "internalType": "address[]",
          "name": "referals",
          "type": "address[]"
        },
        {
          "internalType": "uint256",
          "name": "network",
          "type": "uint256"
        }
      ],
      "stateMutability": "view",
      "type": "function",
      "constant": true
    },
    {
      "inputs": [],
      "name": "getbasicIncomeData",
      "outputs": [
        {
          "internalType": "uint256",
          "name": "balance",
          "type": "uint256"
        },
        {
          "internalType": "uint256",
          "name": "bonusSumm",
          "type": "uint256"
        },
        {
          "internalType": "uint256",
          "name": "result",
          "type": "uint256"
        },
        {
          "internalType": "uint256",
          "name": "mp",
          "type": "uint256"
        },
        {
          "internalType": "uint256",
          "name": "minimumLevel",
          "type": "uint256"
        }
      ],
      "stateMutability": "view",
      "type": "function",
      "constant": true
    },
    {
      "inputs": [
        {
          "internalType": "address",
          "name": "partnerAddress",
          "type": "address"
        },
        {
          "internalType": "uint256",
          "name": "level",
          "type": "uint256"
        }
      ],
      "name": "marketingReg",
      "outputs": [],
      "stateMutability": "nonpayable",
      "type": "function"
    },
    {
      "inputs": [],
      "name": "basicIncomePay",
      "outputs": [],
      "stateMutability": "nonpayable",
      "type": "function"
    }
  ],
  "bytecode": "0x608060405260016004556000600f556000601060006101000a81548160ff0219169083151502179055503480156200003657600080fd5b50732514895c72f50d8bd4b4f9b1110f0d6bd2c97526600160006101000a81548173ffffffffffffffffffffffffffffffffffffffff021916908373ffffffffffffffffffffffffffffffffffffffff160217905550336000806101000a81548173ffffffffffffffffffffffffffffffffffffffff021916908373ffffffffffffffffffffffffffffffffffffffff1602179055506003600781905550600360075402600681905550620000ea62000b20565b60098190806001815401808255809150506001900390600052602060002090600202016000909190919091506000820151816000015560208201518160010190805190602001906200013e92919062000b3a565b50505060098190806001815401808255809150506001900390600052602060002090600202016000909190919091506000820151816000015560208201518160010190805190602001906200019592919062000b3a565b5050506009819080600181540180825580915050600190039060005260206000209060020201600090919091909150600082015181600001556020820151816001019080519060200190620001ec92919062000b3a565b5050506005600e81905550604b60088190555060096002815481106200020e57fe5b90600052602060002090600202016001016003908060018154018082558091505060019003906000526020600020016000909190919091505560096002815481106200025657fe5b90600052602060002090600202016001016003908060018154018082558091505060019003906000526020600020016000909190919091505560096002815481106200029e57fe5b9060005260206000209060020201600101600390806001815401808255809150506001900390600052602060002001600090919091909150556009600281548110620002e657fe5b90600052602060002090600202016001016002908060018154018082558091505060019003906000526020600020016000909190919091505560096002815481106200032e57fe5b90600052602060002090600202016001016002908060018154018082558091505060019003906000526020600020016000909190919091505560096001815481106200037657fe5b9060005260206000209060020201600101600590806001815401808255809150506001900390600052602060002001600090919091909150556009600181548110620003be57fe5b906000526020600020906002020160010160029080600181540180825580915050600190039060005260206000200160009091909190915055600a60096000815481106200040857fe5b906000526020600020906002020160000181905550602860096001815481106200042e57fe5b90600052602060002090600202016000018190555060c860096002815481106200045457fe5b9060005260206000209060020201600001819055506010600a81905550620004a560008054906101000a900473ffffffffffffffffffffffffffffffffffffffff16600a54620004c960201b60201c565b66038d7ea4c68000600b8190555042600c819055506006600d819055505062000d34565b60008054906101000a900473ffffffffffffffffffffffffffffffffffffffff1673ffffffffffffffffffffffffffffffffffffffff163373ffffffffffffffffffffffffffffffffffffffff16146200055a576040517f08c379a0000000000000000000000000000000000000000000000000000000008152600401620005519062000c8c565b60405180910390fd5b6200058c8260008054906101000a900473ffffffffffffffffffffffffffffffffffffffff166200085c60201b60201c565b60005b6009805490508160ff1610156200085757600260008473ffffffffffffffffffffffffffffffffffffffff1673ffffffffffffffffffffffffffffffffffffffff1681526020019081526020016000206002016040518060200160405280600160ff16815250908060018154018082558091505060019003906000526020600020016000909190919091509060016200062a92919062000b8c565b5060008054906101000a900473ffffffffffffffffffffffffffffffffffffffff1673ffffffffffffffffffffffffffffffffffffffff168373ffffffffffffffffffffffffffffffffffffffff16600260008673ffffffffffffffffffffffffffffffffffffffff1673ffffffffffffffffffffffffffffffffffffffff168152602001908152602001600020600001547f422145007b4bd8541c28e0f237e5894ec3385a33f0adc0f42e02a97b5dfabccd84604051620006ed919062000cdb565b60405180910390a460005b600183038160ff1610156200084857600260008573ffffffffffffffffffffffffffffffffffffffff1673ffffffffffffffffffffffffffffffffffffffff1681526020019081526020016000206002018260ff16815481106200075857fe5b90600052602060002001600190806001815401808255809150506001900390600052602060002001600090919091909150558373ffffffffffffffffffffffffffffffffffffffff167f35a42fa7cd43201e9185480f67fe2066fe29007662da7ca0534721f17239a998600260008773ffffffffffffffffffffffffffffffffffffffff1673ffffffffffffffffffffffffffffffffffffffff1681526020019081526020016000206002018460ff16815481106200081357fe5b9060005260206000200180549050846040516200083292919062000cae565b60405180910390a28080600101915050620006f8565b5080806001019150506200058f565b505050565b60006004546003805490500190506003839080600181540180825580915050600190039060005260206000200160009091909190916101000a81548173ffffffffffffffffffffffffffffffffffffffff021916908373ffffffffffffffffffffffffffffffffffffffff16021790555080600260008573ffffffffffffffffffffffffffffffffffffffff1673ffffffffffffffffffffffffffffffffffffffff1681526020019081526020016000206000018190555081600260008573ffffffffffffffffffffffffffffffffffffffff1673ffffffffffffffffffffffffffffffffffffffff16815260200190815260200160002060010160006101000a81548173ffffffffffffffffffffffffffffffffffffffff021916908373ffffffffffffffffffffffffffffffffffffffff16021790555042600260008573ffffffffffffffffffffffffffffffffffffffff1673ffffffffffffffffffffffffffffffffffffffff1681526020019081526020016000206004018190555043600260008573ffffffffffffffffffffffffffffffffffffffff1673ffffffffffffffffffffffffffffffffffffffff1681526020019081526020016000206005018190555060008054906101000a900473ffffffffffffffffffffffffffffffffffffffff1673ffffffffffffffffffffffffffffffffffffffff168373ffffffffffffffffffffffffffffffffffffffff161462000b1b57600260008373ffffffffffffffffffffffffffffffffffffffff1673ffffffffffffffffffffffffffffffffffffffff168152602001908152602001600020600301839080600181540180825580915050600190039060005260206000200160009091909190916101000a81548173ffffffffffffffffffffffffffffffffffffffff021916908373ffffffffffffffffffffffffffffffffffffffff1602179055505b505050565b604051806040016040528060008152602001606081525090565b82805482825590600052602060002090810192821562000b79579160200282015b8281111562000b7857825182559160200191906001019062000b5b565b5b50905062000b88919062000be3565b5090565b82805482825590600052602060002090810192821562000bd0579160200282015b8281111562000bcf578251829060ff1690559160200191906001019062000bad565b5b50905062000bdf919062000be3565b5090565b5b8082111562000bfe57600081600090555060010162000be4565b5090565b600062000c1160288362000cf8565b91507f596f752068617665206e6f2070726f6d697373696f6e20746f2074686973206f60008301527f7065726174696f6e0000000000000000000000000000000000000000000000006020830152604082019050919050565b62000c758162000d09565b82525050565b62000c868162000d20565b82525050565b6000602082019050818103600083015262000ca78162000c02565b9050919050565b600060408201905062000cc5600083018562000c6a565b62000cd4602083018462000c7b565b9392505050565b600060208201905062000cf2600083018462000c7b565b92915050565b600082825260208201905092915050565b6000819050919050565b600060ff82169050919050565b600062000d2d8262000d13565b9050919050565b6144b88062000d446000396000f3fe6080604052600436106100aa5760003560e01c8063bdfbab6611610064578063bdfbab66146101cf578063c27229961461020c578063cb137e5b1461023b578063d9c8a38b1461027a578063e3f32488146102ac578063f8b7e36e146102c8576100c9565b806228bef0146100ce578063223668441461010b578063281cabc71461013657806371c8872a1461014d578063958d1a911461018a578063a232703f146101b3576100c9565b366100c95734600f600082825401925050819055506100c7610306565b005b600080fd5b3480156100da57600080fd5b506100f560048036038101906100f091906139a2565b610419565b6040516101029190614090565b60405180910390f35b34801561011757600080fd5b506101206105d7565b60405161012d9190613f42565b60405180910390f35b34801561014257600080fd5b5061014b610623565b005b34801561015957600080fd5b50610174600480360381019061016f9190613a56565b6107b9565b6040516101819190613ef0565b60405180910390f35b34801561019657600080fd5b506101b160048036038101906101ac91906139cb565b6109b7565b005b6101cd60048036038101906101c89190613a07565b610d33565b005b3480156101db57600080fd5b506101f660048036038101906101f191906139a2565b611015565b6040516102039190613e9e565b60405180910390f35b34801561021857600080fd5b5061022161116d565b6040516102329594939291906141a5565b60405180910390f35b34801561024757600080fd5b50610262600480360381019061025d9190613a56565b6111bc565b604051610271939291906141f8565b60405180910390f35b34801561028657600080fd5b5061028f61140f565b6040516102a39897969594939291906140ab565b60405180910390f35b6102c660048036038101906102c19190613a07565b6118e9565b005b3480156102d457600080fd5b506102ef60048036038101906102ea9190613a56565b611b26565b6040516102fd929190613f12565b60405180910390f35b6000610310611be0565b90506000662386f26fc1000065befe6f672000600b540183510201905080600f541061041557601060009054906101000a900460ff166103d95760008054906101000a900473ffffffffffffffffffffffffffffffffffffffff1673ffffffffffffffffffffffffffffffffffffffff166108fc600065befe6f672000855102019081150290604051600060405180830381858888f193505050501580156103bc573d6000803e3d6000fd5b506001601060006101000a81548160ff0219169083151502179055505b7fa9b92a373d3473c612a19cd22a98189cc78b3487a6b8e6e045bbd1a3cc0e3b2582600b5460405161040c929190613ec0565b60405180910390a15b5050565b600080600260003373ffffffffffffffffffffffffffffffffffffffff1673ffffffffffffffffffffffffffffffffffffffff16815260200190815260200160002060020180549050116104a2576040517f08c379a000000000000000000000000000000000000000000000000000000000815260040161049990614030565b60405180910390fd5b600260008373ffffffffffffffffffffffffffffffffffffffff1673ffffffffffffffffffffffffffffffffffffffff16815260200190815260200160002060030180549050905060005b600260008473ffffffffffffffffffffffffffffffffffffffff1673ffffffffffffffffffffffffffffffffffffffff168152602001908152602001600020600301805490508160ff1610156105d1576105c0600260008573ffffffffffffffffffffffffffffffffffffffff1673ffffffffffffffffffffffffffffffffffffffff1681526020019081526020016000206003018260ff168154811061059057fe5b9060005260206000200160009054906101000a900473ffffffffffffffffffffffffffffffffffffffff16610419565b8201915080806001019150506104ed565b50919050565b600080600260003373ffffffffffffffffffffffffffffffffffffffff1673ffffffffffffffffffffffffffffffffffffffff1681526020019081526020016000206000015411905090565b60008054906101000a900473ffffffffffffffffffffffffffffffffffffffff1673ffffffffffffffffffffffffffffffffffffffff163373ffffffffffffffffffffffffffffffffffffffff16146106b1576040517f08c379a00000000000000000000000000000000000000000000000000000000081526004016106a890613ff0565b60405180910390fd5b601060009054906101000a900460ff16156107af5760006106d0611be0565b905060005b81518160ff16101561072757610708828260ff16815181106106f357fe5b60200260200101516000600b54600080611f67565b600b54600f6000828254039250508190555080806001019150506106d5565b506000601060006101000a81548160ff02191690831515021790555062093a80600c54014211610767576002600b600082825402925050819055506107a6565b6224ea00600c540142101580156107875750671bc16d674ec80000600b54115b156107a5576002600b60008282548161079c57fe5b04925050819055505b5b42600c81905550505b6107b7610306565b565b60606000600260003373ffffffffffffffffffffffffffffffffffffffff1673ffffffffffffffffffffffffffffffffffffffff1681526020019081526020016000206002018054905011610843576040517f08c379a000000000000000000000000000000000000000000000000000000000815260040161083a90614030565b60405180910390fd5b60098054905067ffffffffffffffff8111801561085f57600080fd5b5060405190808252806020026020018201604052801561088e5781602001602082028036833780820191505090505b50905060005b81518160ff1610156109b1576000600190508160ff16600260003373ffffffffffffffffffffffffffffffffffffffff1673ffffffffffffffffffffffffffffffffffffffff16815260200190815260200160002060020180549050111561095957600260003373ffffffffffffffffffffffffffffffffffffffff1673ffffffffffffffffffffffffffffffffffffffff1681526020019081526020016000206002018260ff168154811061094657fe5b9060005260206000200180549050810190505b6000806000610967876111bc565b92509250925061098561097e338760ff1687612008565b84836121f0565b868660ff168151811061099457fe5b602002602001018181525050505050508080600101915050610894565b50919050565b60008054906101000a900473ffffffffffffffffffffffffffffffffffffffff1673ffffffffffffffffffffffffffffffffffffffff163373ffffffffffffffffffffffffffffffffffffffff1614610a45576040517f08c379a0000000000000000000000000000000000000000000000000000000008152600401610a3c90613ff0565b60405180910390fd5b610a6f8260008054906101000a900473ffffffffffffffffffffffffffffffffffffffff166123fe565b60005b6009805490508160ff161015610d2e57600260008473ffffffffffffffffffffffffffffffffffffffff1673ffffffffffffffffffffffffffffffffffffffff1681526020019081526020016000206002016040518060200160405280600160ff1681525090806001815401808255809150506001900390600052602060002001600090919091909150906001610b0a9291906138a0565b5060008054906101000a900473ffffffffffffffffffffffffffffffffffffffff1673ffffffffffffffffffffffffffffffffffffffff168373ffffffffffffffffffffffffffffffffffffffff16600260008673ffffffffffffffffffffffffffffffffffffffff1673ffffffffffffffffffffffffffffffffffffffff168152602001908152602001600020600001547f422145007b4bd8541c28e0f237e5894ec3385a33f0adc0f42e02a97b5dfabccd84604051610bcb9190614273565b60405180910390a460005b600183038160ff161015610d2057600260008573ffffffffffffffffffffffffffffffffffffffff1673ffffffffffffffffffffffffffffffffffffffff1681526020019081526020016000206002018260ff1681548110610c3457fe5b90600052602060002001600190806001815401808255809150506001900390600052602060002001600090919091909150558373ffffffffffffffffffffffffffffffffffffffff167f35a42fa7cd43201e9185480f67fe2066fe29007662da7ca0534721f17239a998600260008773ffffffffffffffffffffffffffffffffffffffff1673ffffffffffffffffffffffffffffffffffffffff1681526020019081526020016000206002018460ff1681548110610cee57fe5b906000526020600020018054905084604051610d0b92919061422f565b60405180910390a28080600101915050610bd6565b508080600101915050610a72565b505050565b6000600260003373ffffffffffffffffffffffffffffffffffffffff1673ffffffffffffffffffffffffffffffffffffffff1681526020019081526020016000206000015414610db8576040517f08c379a0000000000000000000000000000000000000000000000000000000008152600401610daf90613fd0565b60405180910390fd5b60008210158015610dcd575060098054905082105b610e0c576040517f08c379a0000000000000000000000000000000000000000000000000000000008152600401610e0390614070565b60405180910390fd5b600083118015610e3b57507fffffffffffffffffffffffffffffffffffffffffffffffffffffffffffffffff83105b610e7a576040517f08c379a0000000000000000000000000000000000000000000000000000000008152600401610e7190614050565b60405180910390fd5b600080806000610e89856111bc565b92509250925060005b868160ff1611610ebb57610eaa8160ff1685846126c1565b850194508080600101915050610e92565b5083341015610eff576040517f08c379a0000000000000000000000000000000000000000000000000000000008152600401610ef690613fb0565b60405180910390fd5b60008060009054906101000a900473ffffffffffffffffffffffffffffffffffffffff169050600060045489039050600081118015610f42575060038054905081105b15610f825760038181548110610f5457fe5b9060005260206000200160009054906101000a900473ffffffffffffffffffffffffffffffffffffffff1691505b610f8c33836123fe565b6000610f9a338a6001612008565b9050610fa8338288876126ff565b600087340390506000811115611000573373ffffffffffffffffffffffffffffffffffffffff166108fc829081150290604051600060405180830381858888f19350505050158015610ffe573d6000803e3d6000fd5b505b611008610306565b5050505050505050505050565b60606000600260003373ffffffffffffffffffffffffffffffffffffffff1673ffffffffffffffffffffffffffffffffffffffff168152602001908152602001600020600201805490501161109f576040517f08c379a000000000000000000000000000000000000000000000000000000000815260040161109690614030565b60405180910390fd5b600260008373ffffffffffffffffffffffffffffffffffffffff1673ffffffffffffffffffffffffffffffffffffffff16815260200190815260200160002060030180548060200260200160405190810160405280929190818152602001828054801561116157602002820191906000526020600020905b8160009054906101000a900473ffffffffffffffffffffffffffffffffffffffff1673ffffffffffffffffffffffffffffffffffffffff1681526020019060010190808311611117575b50505050509050919050565b6000806000806000600f549450600b5493506000611189611be0565b9050662386f26fc1000065befe6f672000600b54018251020193506001600980549050039250600d549150509091929394565b600080600080600080600080600160009054906101000a900473ffffffffffffffffffffffffffffffffffffffff1673ffffffffffffffffffffffffffffffffffffffff1663feaf968c6040518163ffffffff1660e01b815260040160a06040518083038186803b15801561123057600080fd5b505afa158015611244573d6000803e3d6000fd5b505050506040513d601f19601f820116820180604052508101906112689190613a7f565b9450945094509450945083975084965060008969ffffffffffffffffffff1614611361576000806000806000600160009054906101000a900473ffffffffffffffffffffffffffffffffffffffff1673ffffffffffffffffffffffffffffffffffffffff16639a6fc8f58f6040518263ffffffff1660e01b81526004016112ef9190614258565b60a06040518083038186803b15801561130757600080fd5b505afa15801561131b573d6000803e3d6000fd5b505050506040513d601f19601f8201168201806040525081019061133f9190613a7f565b945094509450945094506078870182111561135b57839c508d9b505b50505050505b600160009054906101000a900473ffffffffffffffffffffffffffffffffffffffff1673ffffffffffffffffffffffffffffffffffffffff1663313ce5676040518163ffffffff1660e01b815260040160206040518083038186803b1580156113c957600080fd5b505afa1580156113dd573d6000803e3d6000fd5b505050506040513d601f19601f820116820180604052508101906114019190613af6565b955050505050509193909250565b600060608060606000806060600080600260003373ffffffffffffffffffffffffffffffffffffffff1673ffffffffffffffffffffffffffffffffffffffff16815260200190815260200160002060020180549050116114a4576040517f08c379a000000000000000000000000000000000000000000000000000000000815260040161149b90614030565b60405180910390fd5b600260003373ffffffffffffffffffffffffffffffffffffffff1673ffffffffffffffffffffffffffffffffffffffff168152602001908152602001600020600001549750600260003373ffffffffffffffffffffffffffffffffffffffff1673ffffffffffffffffffffffffffffffffffffffff16815260200190815260200160002060020160008154811061153757fe5b9060005260206000200180548060200260200160405190810160405280929190818152602001828054801561158b57602002820191906000526020600020905b815481526020019060010190808311611577575b505050505096506001600260003373ffffffffffffffffffffffffffffffffffffffff1673ffffffffffffffffffffffffffffffffffffffff16815260200190815260200160002060020180549050111561178157600260003373ffffffffffffffffffffffffffffffffffffffff1673ffffffffffffffffffffffffffffffffffffffff16815260200190815260200160002060020160018154811061162e57fe5b9060005260206000200180548060200260200160405190810160405280929190818152602001828054801561168257602002820191906000526020600020905b81548152602001906001019080831161166e575b5050505050955060028060003373ffffffffffffffffffffffffffffffffffffffff1673ffffffffffffffffffffffffffffffffffffffff16815260200190815260200160002060020180549050111561178057600260003373ffffffffffffffffffffffffffffffffffffffff1673ffffffffffffffffffffffffffffffffffffffff16815260200190815260200160002060020160028154811061172457fe5b9060005260206000200180548060200260200160405190810160405280929190818152602001828054801561177857602002820191906000526020600020905b815481526020019060010190808311611764575b505050505094505b5b600260003373ffffffffffffffffffffffffffffffffffffffff1673ffffffffffffffffffffffffffffffffffffffff168152602001908152602001600020600401549350600260003373ffffffffffffffffffffffffffffffffffffffff1673ffffffffffffffffffffffffffffffffffffffff16815260200190815260200160002060030180548060200260200160405190810160405280929190818152602001828054801561188857602002820191906000526020600020905b8160009054906101000a900473ffffffffffffffffffffffffffffffffffffffff1673ffffffffffffffffffffffffffffffffffffffff168152602001906001019080831161183e575b5050505050915061189833610419565b9050600260003373ffffffffffffffffffffffffffffffffffffffff1673ffffffffffffffffffffffffffffffffffffffff1681526020019081526020016000206005015492509091929394959697565b6000821180156118fb5750600a548211155b61193a576040517f08c379a000000000000000000000000000000000000000000000000000000000815260040161193190614010565b60405180910390fd5b6000831015801561194f575060098054905083105b61198e576040517f08c379a000000000000000000000000000000000000000000000000000000000815260040161198590614070565b60405180910390fd5b600082905083600260003373ffffffffffffffffffffffffffffffffffffffff1673ffffffffffffffffffffffffffffffffffffffff168152602001908152602001600020600201805490501115611a4057600260003373ffffffffffffffffffffffffffffffffffffffff1673ffffffffffffffffffffffffffffffffffffffff1681526020019081526020016000206002018481548110611a2d57fe5b9060005260206000200180549050810190505b6000611a4d338684612008565b90506000806000611a5d866111bc565b9250925092506000611a708585846121f0565b905080341015611ab5576040517f08c379a0000000000000000000000000000000000000000000000000000000008152600401611aac90613fb0565b60405180910390fd5b611ac1338686856126ff565b80341115611b13573373ffffffffffffffffffffffffffffffffffffffff166108fc8234039081150290604051600060405180830381858888f19350505050158015611b11573d6000803e3d6000fd5b505b611b1b610306565b505050505050505050565b6060600080600080611b37866111bc565b92509250925081935060098054905067ffffffffffffffff81118015611b5c57600080fd5b50604051908082528060200260200182016040528015611b8b5781602001602082028036833780820191505090505b50945060005b6009805490508160ff161015611bd757611baf8160ff1685846126c1565b868260ff1681518110611bbe57fe5b6020026020010181815250508080600101915050611b91565b50505050915091565b60606000805b6003805490508160ff161015611d3e576009805490506002600060038460ff1681548110611c1057fe5b9060005260206000200160009054906101000a900473ffffffffffffffffffffffffffffffffffffffff1673ffffffffffffffffffffffffffffffffffffffff1673ffffffffffffffffffffffffffffffffffffffff168152602001908152602001600020600201805490501415611d3157600d546002600060038460ff1681548110611c9957fe5b9060005260206000200160009054906101000a900473ffffffffffffffffffffffffffffffffffffffff1673ffffffffffffffffffffffffffffffffffffffff1673ffffffffffffffffffffffffffffffffffffffff16815260200190815260200160002060020160016009805490500381548110611d1457fe5b906000526020600020018054905010611d305781806001019250505b5b8080600101915050611be6565b508060ff1667ffffffffffffffff81118015611d5957600080fd5b50604051908082528060200260200182016040528015611d885781602001602082028036833780820191505090505b50915060005b6003805490508160ff161015611f62576009805490506002600060038460ff1681548110611db857fe5b9060005260206000200160009054906101000a900473ffffffffffffffffffffffffffffffffffffffff1673ffffffffffffffffffffffffffffffffffffffff1673ffffffffffffffffffffffffffffffffffffffff168152602001908152602001600020600201805490501415611f5557600d546002600060038460ff1681548110611e4157fe5b9060005260206000200160009054906101000a900473ffffffffffffffffffffffffffffffffffffffff1673ffffffffffffffffffffffffffffffffffffffff1673ffffffffffffffffffffffffffffffffffffffff16815260200190815260200160002060020160016009805490500381548110611ebc57fe5b906000526020600020018054905010611f545760038160ff1681548110611edf57fe5b9060005260206000200160009054906101000a900473ffffffffffffffffffffffffffffffffffffffff16838260ff1681518110611f1957fe5b602002602001019073ffffffffffffffffffffffffffffffffffffffff16908173ffffffffffffffffffffffffffffffffffffffff16815250505b5b8080600101915050611d8e565b505090565b8473ffffffffffffffffffffffffffffffffffffffff166108fc849081150290604051600060405180830381858888f19350505050158015611fad573d6000803e3d6000fd5b50838573ffffffffffffffffffffffffffffffffffffffff167f3fb6be6fde1c2353aebe4ddfbdfc13864771e1cbccfd55dc4dd9cb1070c90ad2858585604051611ff99392919061416e565b60405180910390a35050505050565b60606001830167ffffffffffffffff8111801561202457600080fd5b506040519080825280602002602001820160405280156120535781602001602082028036833780820191505090505b50905060005b600184018160ff1610156121e857600260008673ffffffffffffffffffffffffffffffffffffffff1673ffffffffffffffffffffffffffffffffffffffff168152602001908152602001600020600201805490508160ff1610156121be5782600260008773ffffffffffffffffffffffffffffffffffffffff1673ffffffffffffffffffffffffffffffffffffffff1681526020019081526020016000206002018260ff168154811061210857fe5b90600052602060002001805490501061213d576000828260ff168151811061212c57fe5b6020026020010181815250506121b9565b600260008673ffffffffffffffffffffffffffffffffffffffff1673ffffffffffffffffffffffffffffffffffffffff1681526020019081526020016000206002018160ff168154811061218d57fe5b90600052602060002001805490508303828260ff16815181106121ac57fe5b6020026020010181815250505b6121db565b82828260ff16815181106121ce57fe5b6020026020010181815250505b8080600101915050612059565b509392505050565b600080600260003373ffffffffffffffffffffffffffffffffffffffff1673ffffffffffffffffffffffffffffffffffffffff1681526020019081526020016000206002018054905011612279576040517f08c379a000000000000000000000000000000000000000000000000000000000815260040161227090614030565b60405180910390fd5b6000905060008054906101000a900473ffffffffffffffffffffffffffffffffffffffff1673ffffffffffffffffffffffffffffffffffffffff163373ffffffffffffffffffffffffffffffffffffffff16146123f757600080600090505b85518160ff1610156123f457600091508060ff16600260003373ffffffffffffffffffffffffffffffffffffffff1673ffffffffffffffffffffffffffffffffffffffff16815260200190815260200160002060020180549050111561239957600260003373ffffffffffffffffffffffffffffffffffffffff1673ffffffffffffffffffffffffffffffffffffffff1681526020019081526020016000206002018160ff168154811061238857fe5b906000526020600020018054905091505b60005b868260ff16815181106123ab57fe5b60200260200101518160ff1610156123e6578060ff16830160020a6123d48360ff1688886126c1565b0284019350808060010191505061239c565b5080806001019150506122d8565b50505b9392505050565b60006004546003805490500190506003839080600181540180825580915050600190039060005260206000200160009091909190916101000a81548173ffffffffffffffffffffffffffffffffffffffff021916908373ffffffffffffffffffffffffffffffffffffffff16021790555080600260008573ffffffffffffffffffffffffffffffffffffffff1673ffffffffffffffffffffffffffffffffffffffff1681526020019081526020016000206000018190555081600260008573ffffffffffffffffffffffffffffffffffffffff1673ffffffffffffffffffffffffffffffffffffffff16815260200190815260200160002060010160006101000a81548173ffffffffffffffffffffffffffffffffffffffff021916908373ffffffffffffffffffffffffffffffffffffffff16021790555042600260008573ffffffffffffffffffffffffffffffffffffffff1673ffffffffffffffffffffffffffffffffffffffff1681526020019081526020016000206004018190555043600260008573ffffffffffffffffffffffffffffffffffffffff1673ffffffffffffffffffffffffffffffffffffffff1681526020019081526020016000206005018190555060008054906101000a900473ffffffffffffffffffffffffffffffffffffffff1673ffffffffffffffffffffffffffffffffffffffff168373ffffffffffffffffffffffffffffffffffffffff16146126bc57600260008373ffffffffffffffffffffffffffffffffffffffff1673ffffffffffffffffffffffffffffffffffffffff168152602001908152602001600020600301839080600181540180825580915050600190039060005260206000200160009091909190916101000a81548173ffffffffffffffffffffffffffffffffffffffff021916908373ffffffffffffffffffffffffffffffffffffffff1602179055505b505050565b6000828260120160ff16600a0a600986815481106126db57fe5b90600052602060002090600202016000015402816126f557fe5b0490509392505050565b60005b83518160ff1610156127c25760005b848260ff168151811061272057fe5b60200260200101518160ff1610156127b4576000808054906101000a900473ffffffffffffffffffffffffffffffffffffffff1673ffffffffffffffffffffffffffffffffffffffff168773ffffffffffffffffffffffffffffffffffffffff161461279857612795878460ff1687876127c9565b90505b6127a687828560ff16612896565b508080600101915050612711565b508080600101915050612702565b5050505050565b6000806000905084600260008873ffffffffffffffffffffffffffffffffffffffff1673ffffffffffffffffffffffffffffffffffffffff16815260200190815260200160002060020180549050111561287b57600260008773ffffffffffffffffffffffffffffffffffffffff1673ffffffffffffffffffffffffffffffffffffffff168152602001908152602001600020600201858154811061286a57fe5b906000526020600020018054905090505b8060020a61288a8686866126c1565b02915050949350505050565b80600260008573ffffffffffffffffffffffffffffffffffffffff1673ffffffffffffffffffffffffffffffffffffffff16815260200190815260200160002060020180549050111561296757600260008473ffffffffffffffffffffffffffffffffffffffff1673ffffffffffffffffffffffffffffffffffffffff168152602001908152602001600020600201818154811061293057fe5b90600052602060002001600190806001815401808255809150506001900390600052602060002001600090919091909150556129f1565b600260008473ffffffffffffffffffffffffffffffffffffffff1673ffffffffffffffffffffffffffffffffffffffff1681526020019081526020016000206002016040518060200160405280600160ff16815250908060018154018082558091505060019003906000526020600020016000909190919091509060016129ef9291906138a0565b505b6001600260008573ffffffffffffffffffffffffffffffffffffffff1673ffffffffffffffffffffffffffffffffffffffff1681526020019081526020016000206002018281548110612a4057fe5b90600052602060002001805490501115612b03578273ffffffffffffffffffffffffffffffffffffffff167f35a42fa7cd43201e9185480f67fe2066fe29007662da7ca0534721f17239a998600260008673ffffffffffffffffffffffffffffffffffffffff1673ffffffffffffffffffffffffffffffffffffffff1681526020019081526020016000206002018381548110612ad957fe5b906000526020600020018054905083604051612af6929190614145565b60405180910390a2612c0e565b600260008473ffffffffffffffffffffffffffffffffffffffff1673ffffffffffffffffffffffffffffffffffffffff16815260200190815260200160002060010160009054906101000a900473ffffffffffffffffffffffffffffffffffffffff1673ffffffffffffffffffffffffffffffffffffffff168373ffffffffffffffffffffffffffffffffffffffff16600260008673ffffffffffffffffffffffffffffffffffffffff1673ffffffffffffffffffffffffffffffffffffffff168152602001908152602001600020600001547f422145007b4bd8541c28e0f237e5894ec3385a33f0adc0f42e02a97b5dfabccd84604051612c059190614090565b60405180910390a45b60008054906101000a900473ffffffffffffffffffffffffffffffffffffffff1673ffffffffffffffffffffffffffffffffffffffff168373ffffffffffffffffffffffffffffffffffffffff1614612d2a57612d29600260008573ffffffffffffffffffffffffffffffffffffffff1673ffffffffffffffffffffffffffffffffffffffff16815260200190815260200160002060010160009054906101000a900473ffffffffffffffffffffffffffffffffffffffff1683600260008773ffffffffffffffffffffffffffffffffffffffff1673ffffffffffffffffffffffffffffffffffffffff1681526020019081526020016000206002018481548110612d1557fe5b906000526020600020018054905084612d2f565b5b505050565b60006064600e54850281612d3f57fe5b0490506000818503905060006064866008540281612d5957fe5b0490506000612d6a88878488613245565b905060008054906101000a900473ffffffffffffffffffffffffffffffffffffffff1673ffffffffffffffffffffffffffffffffffffffff168173ffffffffffffffffffffffffffffffffffffffff161415612ea35785600260008060009054906101000a900473ffffffffffffffffffffffffffffffffffffffff1673ffffffffffffffffffffffffffffffffffffffff1673ffffffffffffffffffffffffffffffffffffffff1681526020019081526020016000206002018681548110612e2f57fe5b90600052602060002001805490501015612ea2576000612e7060008054906101000a900473ffffffffffffffffffffffffffffffffffffffff168789612008565b9050612ea060008054906101000a900473ffffffffffffffffffffffffffffffffffffffff1682600160006126ff565b505b5b612eae818787613613565b612ebc816001848989611f67565b600260008973ffffffffffffffffffffffffffffffffffffffff1673ffffffffffffffffffffffffffffffffffffffff16815260200190815260200160002060010160009054906101000a900473ffffffffffffffffffffffffffffffffffffffff169050818303925060005b600960016009805490500381548110612f3e57fe5b9060005260206000209060020201600101805490508160ff16101561322a5760008054906101000a900473ffffffffffffffffffffffffffffffffffffffff1673ffffffffffffffffffffffffffffffffffffffff168273ffffffffffffffffffffffffffffffffffffffff161415612fed57612fe460008054906101000a900473ffffffffffffffffffffffffffffffffffffffff166002830160ff16868a8a611f67565b6000935061322a565b600080600190505b6009805490508160ff1610156131995760098160ff168154811061301557fe5b9060005260206000209060020201600101805490508360ff16101561318c5760648a60098360ff168154811061304757fe5b90600052602060002090600202016001018560ff168154811061306657fe5b9060005260206000200154028161307957fe5b049450600160096001600980549050038154811061309357fe5b906000526020600020906002020160010180549050038360ff161480156130b957508585115b156130ca57859450600095506130d0565b84860395505b8060ff166001600260008773ffffffffffffffffffffffffffffffffffffffff1673ffffffffffffffffffffffffffffffffffffffff16815260200190815260200160002060020180549050031061312c57848201915061318b565b8373ffffffffffffffffffffffffffffffffffffffff167f330b935365d99a346b11ce634c02de10d387034134f883f299ea249786e9c738600285018b888c8660405161317d95949392919061428e565b60405180910390a284870196505b5b8080600101915050612ff5565b5060008111156131b7576131b6836002840160ff16838b8b611f67565b5b600260008473ffffffffffffffffffffffffffffffffffffffff1673ffffffffffffffffffffffffffffffffffffffff16815260200190815260200160002060010160009054906101000a900473ffffffffffffffffffffffffffffffffffffffff169250508080600101915050612f29565b5083600f600082825401925050819055505050505050505050565b60008060009054906101000a900473ffffffffffffffffffffffffffffffffffffffff1673ffffffffffffffffffffffffffffffffffffffff168573ffffffffffffffffffffffffffffffffffffffff1614156132c45760008054906101000a900473ffffffffffffffffffffffffffffffffffffffff16905061360b565b6000600260008773ffffffffffffffffffffffffffffffffffffffff1673ffffffffffffffffffffffffffffffffffffffff16815260200190815260200160002060010160009054906101000a900473ffffffffffffffffffffffffffffffffffffffff16905082600260008873ffffffffffffffffffffffffffffffffffffffff1673ffffffffffffffffffffffffffffffffffffffff1681526020019081526020016000206002018054905011156135a3576000600260008873ffffffffffffffffffffffffffffffffffffffff1673ffffffffffffffffffffffffffffffffffffffff16815260200190815260200160002060020184815481106133c757fe5b906000526020600020018054905090508581111561340d576133ea8787866137ad565b6133f857869250505061360b565b61340482878787613245565b9250505061360b565b85811415613536576134208787866137ad565b1561343a5761343182878787613245565b9250505061360b565b600654600260008973ffffffffffffffffffffffffffffffffffffffff1673ffffffffffffffffffffffffffffffffffffffff168152602001908152602001600020600201858154811061348a57fe5b9060005260206000200160018803815481106134a257fe5b906000526020600020015410806134ba5750600a5486145b156134c957869250505061360b565b8673ffffffffffffffffffffffffffffffffffffffff167f330b935365d99a346b11ce634c02de10d387034134f883f299ea249786e9c73860018888886000604051613519959493929190613f5d565b60405180910390a261352d82878787613245565b9250505061360b565b8673ffffffffffffffffffffffffffffffffffffffff167f330b935365d99a346b11ce634c02de10d387034134f883f299ea249786e9c73860018888886000604051613586959493929190613f5d565b60405180910390a261359a82878787613245565b9250505061360b565b8573ffffffffffffffffffffffffffffffffffffffff167f330b935365d99a346b11ce634c02de10d387034134f883f299ea249786e9c738600187878760006040516135f3959493929190613f5d565b60405180910390a261360781868686613245565b9150505b949350505050565b7fffffffffffffffffffffffffffffffffffffffffffffffffffffffffffffffff600260008573ffffffffffffffffffffffffffffffffffffffff1673ffffffffffffffffffffffffffffffffffffffff168152602001908152602001600020600201828154811061368157fe5b90600052602060002001600184038154811061369957fe5b9060005260206000200154101561372e57600260008473ffffffffffffffffffffffffffffffffffffffff1673ffffffffffffffffffffffffffffffffffffffff16815260200190815260200160002060020181815481106136f757fe5b90600052602060002001600183038154811061370f57fe5b90600052602060002001600081548092919060010191905055506137a8565b600160065401600260008573ffffffffffffffffffffffffffffffffffffffff1673ffffffffffffffffffffffffffffffffffffffff168152602001908152602001600020600201828154811061378157fe5b90600052602060002001600184038154811061379957fe5b90600052602060002001819055505b505050565b600060075460016007546001600260008973ffffffffffffffffffffffffffffffffffffffff1673ffffffffffffffffffffffffffffffffffffffff168152602001908152602001600020600201868154811061380657fe5b90600052602060002001600188038154811061381e57fe5b9060005260206000200154038161383157fe5b0601141561389957613844848484613613565b8373ffffffffffffffffffffffffffffffffffffffff167f7c8a861c4df6814b1d1b6217c8ebd8bfd3a86ae7e26b8531f12571a0a025f87b848460405161388c929190614145565b60405180910390a2600190505b9392505050565b8280548282559060005260206000209081019282156138e1579160200282015b828111156138e0578251829060ff169055916020019190600101906138c0565b5b5090506138ee91906138f2565b5090565b5b8082111561390b5760008160009055506001016138f3565b5090565b60008135905061391e8161440f565b92915050565b60008151905061393381614426565b92915050565b6000813590506139488161443d565b92915050565b60008151905061395d8161443d565b92915050565b6000813590506139728161446b565b92915050565b6000815190506139878161446b565b92915050565b60008151905061399c81614454565b92915050565b6000602082840312156139b457600080fd5b60006139c28482850161390f565b91505092915050565b600080604083850312156139de57600080fd5b60006139ec8582860161390f565b92505060206139fd85828601613939565b9150509250929050565b600080600060608486031215613a1c57600080fd5b6000613a2a86828701613939565b9350506020613a3b86828701613939565b9250506040613a4c86828701613963565b9150509250925092565b600060208284031215613a6857600080fd5b6000613a7684828501613963565b91505092915050565b600080600080600060a08688031215613a9757600080fd5b6000613aa588828901613978565b9550506020613ab688828901613924565b9450506040613ac78882890161394e565b9350506060613ad88882890161394e565b9250506080613ae988828901613978565b9150509295509295909350565b600060208284031215613b0857600080fd5b6000613b168482850161398d565b91505092915050565b6000613b2b8383613b4f565b60208301905092915050565b6000613b438383613e53565b60208301905092915050565b613b5881614364565b82525050565b6000613b6982614301565b613b738185614331565b9350613b7e836142e1565b8060005b83811015613baf578151613b968882613b1f565b9750613ba183614317565b925050600181019050613b82565b5085935050505092915050565b6000613bc78261430c565b613bd18185614342565b9350613bdc836142f1565b8060005b83811015613c0d578151613bf48882613b37565b9750613bff83614324565b925050600181019050613be0565b5085935050505092915050565b613c2381614376565b82525050565b613c32816143d9565b82525050565b613c41816143eb565b82525050565b6000613c54601983614353565b91507f596f752073656e74206e6f7420656e6f75676820636f696e73000000000000006000830152602082019050919050565b6000613c94602283614353565b91507f54686973206164647265737320697320616c726561647920726567697374657260008301527f65640000000000000000000000000000000000000000000000000000000000006020830152604082019050919050565b6000613cfa602883614353565b91507f596f752068617665206e6f2070726f6d697373696f6e20746f2074686973206f60008301527f7065726174696f6e0000000000000000000000000000000000000000000000006020830152604082019050919050565b6000613d60601283614353565b91507f57726f6e67206c6576656c206e756d62657200000000000000000000000000006000830152602082019050919050565b6000613da0601e83614353565b91507f5468652061646472657373206973206e6f7420726567697374657265642e00006000830152602082019050919050565b6000613de0601083614353565b91507f57726f6e672073706f6e736f72204944000000000000000000000000000000006000830152602082019050919050565b6000613e20601b83614353565b91507f57726f6e67206d61726b6574696e6720706c616e206e756d62657200000000006000830152602082019050919050565b613e5c816143ac565b82525050565b613e6b816143ac565b82525050565b613e7a816143c3565b82525050565b613e89816143fd565b82525050565b613e98816143b6565b82525050565b60006020820190508181036000830152613eb88184613b5e565b905092915050565b60006040820190508181036000830152613eda8185613b5e565b9050613ee96020830184613e62565b9392505050565b60006020820190508181036000830152613f0a8184613bbc565b905092915050565b60006040820190508181036000830152613f2c8185613bbc565b9050613f3b6020830184613e71565b9392505050565b6000602082019050613f576000830184613c1a565b92915050565b600060a082019050613f726000830188613c38565b613f7f6020830187613e62565b613f8c6040830186613e62565b613f996060830185613e62565b613fa66080830184613c29565b9695505050505050565b60006020820190508181036000830152613fc981613c47565b9050919050565b60006020820190508181036000830152613fe981613c87565b9050919050565b6000602082019050818103600083015261400981613ced565b9050919050565b6000602082019050818103600083015261402981613d53565b9050919050565b6000602082019050818103600083015261404981613d93565b9050919050565b6000602082019050818103600083015261406981613dd3565b9050919050565b6000602082019050818103600083015261408981613e13565b9050919050565b60006020820190506140a56000830184613e62565b92915050565b6000610100820190506140c1600083018b613e62565b81810360208301526140d3818a613bbc565b905081810360408301526140e78189613bbc565b905081810360608301526140fb8188613bbc565b905061410a6080830187613e62565b61411760a0830186613e62565b81810360c08301526141298185613b5e565b905061413860e0830184613e62565b9998505050505050505050565b600060408201905061415a6000830185613e62565b6141676020830184613e62565b9392505050565b60006060820190506141836000830186613e62565b6141906020830185613e62565b61419d6040830184613e62565b949350505050565b600060a0820190506141ba6000830188613e62565b6141c76020830187613e62565b6141d46040830186613e62565b6141e16060830185613e62565b6141ee6080830184613e62565b9695505050505050565b600060608201905061420d6000830186613e62565b61421a6020830185613e71565b6142276040830184613e8f565b949350505050565b60006040820190506142446000830185613e62565b6142516020830184613e80565b9392505050565b600060208201905061426d6000830184613e71565b92915050565b60006020820190506142886000830184613e80565b92915050565b600060a0820190506142a36000830188613e80565b6142b06020830187613e62565b6142bd6040830186613e62565b6142ca6060830185613e62565b6142d76080830184613e80565b9695505050505050565b6000819050602082019050919050565b6000819050602082019050919050565b600081519050919050565b600081519050919050565b6000602082019050919050565b6000602082019050919050565b600082825260208201905092915050565b600082825260208201905092915050565b600082825260208201905092915050565b600061436f8261438c565b9050919050565b60008115159050919050565b6000819050919050565b600073ffffffffffffffffffffffffffffffffffffffff82169050919050565b6000819050919050565b600060ff82169050919050565b600069ffffffffffffffffffff82169050919050565b60006143e4826143ac565b9050919050565b60006143f6826143ac565b9050919050565b6000614408826143b6565b9050919050565b61441881614364565b811461442357600080fd5b50565b61442f81614382565b811461443a57600080fd5b50565b614446816143ac565b811461445157600080fd5b50565b61445d816143b6565b811461446857600080fd5b50565b614474816143c3565b811461447f57600080fd5b5056fea2646970667358221220c3bb5ef4029adaebcd5d2c81f442eb42f1aae128d9994afd77fa27c7bdc1533d64736f6c63430007060033",
  "immutableReferences": {},
  "source": "// SPDX-License-Identifier: GPL-3.0\r\n\r\npragma solidity >=0.7.0 <0.9.0;\r\npragma abicoder v2;\r\n\r\n// import not working on wondows \"File import callback not supported\" error\r\nimport \"../node_modules/@chainlink/contracts/src/v0.7/interfaces/AggregatorV3Interface.sol\";\r\n\r\ncontract CryptoLife {\r\n    \r\n    address private owner; // An owner's address\r\n    \r\n    // A marketing plan struture\r\n\r\n    struct MP {\r\n        uint registrationPrice;\r\n        uint[] leaderBonusLevels;\r\n    }\r\n\r\n    // A partner structure\r\n    struct Partner {\r\n        uint id; // An ID of the partner\r\n        address sponsorAddress; // A sponsor's address\r\n        uint[][] level; // An array of a next slot numbers for each level of all marketing plans\r\n        address[] referals; // An array of a direct referals\r\n        uint registrationDate; // A registration date timestamp\r\n        uint registrationBlockNumber; // A registration block number\r\n    }\r\n\r\n    // Coin price reciver\r\n    AggregatorV3Interface internal priceFeed;\r\n\r\n    // A list of partners\r\n    mapping (address => Partner) private partners; \r\n\r\n    // An array of IDs for a short referal links\r\n    address[] private shortIdForLinks;\r\n\r\n    // An ID prefix  \r\n    uint private prefID = 1; \r\n\r\n    // A list of a bounuses in persents\r\n    uint[] private leaderBonusLevels; \r\n\r\n    // Number of slots to a next-level upgrade\r\n    uint private slotsPerLevel;\r\n\r\n     // Number of slots in a level's pool \r\n    uint private slotsPerPool;\r\n\r\n    // A direct bonus or the slots\r\n    uint private directBonus;\r\n\r\n    // A list of marketing plans\r\n    MP[] private marketingPlans;\r\n\r\n    // Marketing plans maximum level\r\n    uint private maxAvaibleLevel; \r\n\r\n    // A summ to collect and pay out to a Basic Income\r\n    uint private basicIncomeSumm;\r\n\r\n    // A date and time when a current Basic Income collection started\r\n    uint private basicIncomeStartDate;\r\n\r\n    // A minimum level required to become a Basic Income\r\n    uint private basicIncomeMinimumLevel;\r\n\r\n    // A Basic Income colletction fee\r\n    uint private basicIncomeFee;\r\n\r\n    // A Basic Income collected summ\r\n    uint private basicIncomeCollectedSumm = 0;\r\n\r\n    // A Basic Income commission transfer flag\r\n    bool private commissionTransfered = false;\r\n\r\n    // A registration event\r\n    event registration (\r\n        uint indexed partnerID, \r\n        address indexed partnerAddress, \r\n        address indexed sponsorAddress,\r\n        uint mp\r\n    );\r\n    \r\n    // A level up event\r\n    event levelUp (\r\n        address indexed partnerAddress, \r\n        uint level,\r\n        uint mp\r\n    );\r\n    \r\n    // A bonus paid out event\r\n    event bonusPaidOut (\r\n        address indexed partnerAddress,\r\n        uint indexed bonusType, \r\n        uint amount,\r\n        uint level,\r\n        uint mp\r\n    );\r\n\r\n    // A pool reopened  event\r\n    event poolIsReopened (\r\n        address indexed partnerAddress, \r\n        uint level,\r\n        uint mp\r\n    );\r\n    \r\n    // A missed bonus event\r\n    event missingBounus (\r\n        address indexed partnerAddress, \r\n        uint bonusType,\r\n        uint level,\r\n        uint amount,\r\n        uint mp,\r\n        uint bonusMp\r\n    );\r\n\r\n    // A Basic Income ready to pay event\r\n    event basicIncomeReadyToPay (\r\n        address[] receivers,\r\n        uint amount\r\n    );\r\n   \r\n    // The only registered partners allowed modifier\r\n    modifier onlyRegistered {\r\n        \r\n        // hecking that the address is registered\r\n        require( partners[msg.sender].level.length > 0, \"The address is not registered.\");\r\n        \r\n        _;\r\n\r\n    }\r\n    \r\n    // The only owner allowed modifier\r\n    modifier onlyOwner {\r\n        \r\n        // Check owner's address\r\n        require(msg.sender == owner, \"You have no promission to this operation\");\r\n        \r\n        _;\r\n    }\r\n\r\n    \r\n    constructor (){\r\n\r\n\r\n        // Coin price resiver activation\r\n\r\n        // BNB/USD testnet address 0x2514895c72f50D8bd4B4F9b1110F0D6bD2c97526\r\n        // BNB/USD mainnet address 0x0567F2323251f0Aab15c8dFb1967E4e8A7D42aeE\r\n\r\n        priceFeed = AggregatorV3Interface(0x2514895c72f50D8bd4B4F9b1110F0D6bD2c97526);\r\n        \r\n        // Initiation of a matrix rules\r\n        \r\n        owner = msg.sender; // The owner is a contract sender\r\n\r\n        slotsPerPool = 3; // A pool on each level has three slots\r\n        slotsPerLevel = slotsPerPool * 3; // Each level has three free pools with three slots each\r\n        \r\n\r\n        // initiate a marketing plans\r\n        MP memory mp;\r\n        marketingPlans.push(mp);\r\n        marketingPlans.push(mp);\r\n        marketingPlans.push(mp);\r\n    \r\n        // Set a Basic Income bounus fee in percents \r\n        basicIncomeFee = 5;\r\n\r\n        // Set a bonus for selling a slots in percents \r\n        directBonus = 75;\r\n\r\n        // Set network bounuses for the 3rd marketing plan in percents \r\n        \r\n        // Set an additional bonus for purchases of partners of the 2nd level of depth\r\n        marketingPlans[2].leaderBonusLevels.push(3); \r\n        \r\n        // Set an additional bonus for purchases of partners of the 3rd level of depth\r\n        marketingPlans[2].leaderBonusLevels.push(3);\r\n        \r\n        // Set a bonus for purchases of partners of the 4th level of depth\r\n        marketingPlans[2].leaderBonusLevels.push(3); \r\n        \r\n        // Set a bonus for purchases of partners of the 5th level of depth\r\n        marketingPlans[2].leaderBonusLevels.push(2); \r\n        \r\n        // Set a bonus for purchases of partners of the 6th level of depth\r\n        marketingPlans[2].leaderBonusLevels.push(2); \r\n\r\n        // Set network bonuses for the 2nd marketing plan in percents \r\n\r\n        // Set a bonus for purchases of partners of the 2nd level of depth\r\n        marketingPlans[1].leaderBonusLevels.push(5); \r\n        \r\n        // Set a bonus for purchases of partners of the 3rd level of depth\r\n        marketingPlans[1].leaderBonusLevels.push(2);\r\n\r\n        // No network bonuses for the 1st marketing plan\r\n\r\n        \r\n        // Set fixed prices of marketing plans in USD\r\n\r\n        // Registration price of the 1st marketing plan\r\n        marketingPlans[0].registrationPrice = 10;\r\n\r\n        // Registration price of the 2nd marketing plan\r\n        marketingPlans[1].registrationPrice = 40;\r\n\r\n        // Registration price  of the 3rd marketing plan\r\n        marketingPlans[2].registrationPrice = 200;\r\n\r\n        // Set the Marketin Plans maximum level\r\n        maxAvaibleLevel = 16;\r\n\r\n        // Register the owner\r\n        marketingReg(owner, maxAvaibleLevel);\r\n\r\n        // Set the Basic Income summ\r\n        basicIncomeSumm = 0.001 ether;\r\n\r\n        // Set the colection start date\r\n        basicIncomeStartDate = block.timestamp;\r\n\r\n        // Set the minimum level requerement\r\n        basicIncomeMinimumLevel = 6;\r\n    }\r\n    \r\n    receive () payable external {\r\n\r\n        // Add received summ to the Basic Income collected summ\r\n        basicIncomeCollectedSumm += msg.value;\r\n\r\n        // Check the Basic Income payment opotunity\r\n        checkBasicIncomePayment();\r\n\r\n    }\r\n   \r\n    // Level up the partner\r\n    function partnerLevelUp(uint mp, uint level, uint80 roundID) payable public { \r\n\r\n        // Check a levels number to up         \r\n        require(level > 0 && level <= maxAvaibleLevel, \"Wrong level number\");\r\n\r\n        // Check a marketing plan number\r\n        require (mp >= 0 && mp < marketingPlans.length, \"Wrong marketing plan number\");\r\n\r\n        // A next level number varable\r\n        uint nextMPLevel = level ;\r\n\r\n        // A required marketing plan activation check\r\n        if (partners[msg.sender].level.length > mp){\r\n\r\n            // The required marketing plan is active\r\n\r\n            // Increase the next level by current marketing plan levels number\r\n            nextMPLevel += partners[msg.sender].level[mp].length;\r\n\r\n        }\r\n\r\n        // Set array of a required level ups on each marketing plan to level up current\r\n        uint[] memory requiredLevels = getRequiredLevels(msg.sender, mp, nextMPLevel);\r\n\r\n        // Get the current exchange rate\r\n        (\r\n            uint exchangeRate,\r\n            uint80 newRoundID,\r\n            uint8 decimals // The number of decimals in the current exchange rate.\r\n        )=getExchangeRate(roundID);\r\n      \r\n        // Set the level up price\r\n        uint levelPrice = nextLevelPrice(requiredLevels, exchangeRate, decimals);\r\n            \r\n        // Check that the sent summ is enough\r\n        require(msg.value >= levelPrice, \"You sent not enough coins\");\r\n\r\n        // Level up the partner\r\n        upPartnerLevels(msg.sender, requiredLevels, exchangeRate, decimals);\r\n\r\n        // Check the operation balence\r\n        if ( msg.value > levelPrice) {\r\n\r\n            // The balance above the zero\r\n                \r\n            // Return the balace to the sender\r\n            payable(msg.sender).transfer(msg.value - levelPrice);\r\n        }   \r\n\r\n        // Check if the Basic Income payment is ready\r\n        checkBasicIncomePayment();\r\n                \r\n    }\r\n        \r\n    // A new partner registration\r\n    function registerNewPartner (uint sponsorID, uint mp, uint80 roundID) payable public {\r\n\r\n        // hecking that the address is not registered\r\n        require (partners[msg.sender].id == 0, \"This address is already registered\"); \r\n\r\n        // Check a marketing plan number\r\n        require(mp >= 0 && mp < marketingPlans.length, \"Wrong marketing plan number\");\r\n\r\n        // Check a sponsor ID \r\n        require( sponsorID > 0 && sponsorID < type(uint).max, \"Wrong sponsor ID\");\r\n       \r\n        // Set the registration cost\r\n        uint registrationCost = 0;\r\n\r\n        // Get the current exchange rate\r\n        (\r\n            uint exchangeRate,\r\n            uint80 newRoundID,\r\n            uint8 decimals // The number of decimals in the current exchange rate.\r\n        )=getExchangeRate(roundID);\r\n\r\n        // Loop marketing plans\r\n        for (uint8 i = 0; i<=mp; i++) {\r\n\r\n            // Increase the reistration cost by a current marketing plan registration price \r\n            registrationCost += getRegistrationPrice(i, exchangeRate, decimals);  \r\n\r\n        }\r\n           \r\n        // Check that the sent summ is enough\r\n        require(msg.value >= registrationCost, \"You sent not enough coins\");        \r\n        \r\n        // The owner is a sponsor of all registrations without or with a wrong sponsors ID\r\n        address sponsorAddress = owner; \r\n\r\n        // Correct sponsor ID \r\n        uint sponsorIDcorrected = sponsorID - prefID;\r\n        \r\n        // Check a corrected sponsor's ID\r\n        if ( sponsorIDcorrected  > 0 && sponsorIDcorrected < shortIdForLinks.length) {\r\n            \r\n            // Recive an sponsor's address from the short links list\r\n            sponsorAddress = shortIdForLinks[sponsorIDcorrected]; \r\n        }\r\n\r\n        // New Partner creation \r\n        createNewPartner(msg.sender, sponsorAddress);\r\n\r\n        // Set array of a required level ups on each marketing plan to level up \r\n        uint[] memory requiredLevels = getRequiredLevels(msg.sender, mp, 1);           \r\n        \r\n        // Level up the partner\r\n        upPartnerLevels(msg.sender, requiredLevels, exchangeRate, decimals);      \r\n\r\n        // A balance after registration\r\n        uint balance = msg.value - registrationCost;\r\n\r\n        // Check the operation balence\r\n        if ( balance > 0) {\r\n            \r\n            // Return the balace to the sender\r\n            payable(msg.sender).transfer(balance);\r\n        }\r\n\r\n        // Check if the Basic Income payment is ready\r\n        checkBasicIncomePayment();\r\n           \r\n    }\r\n\r\n    // Get the current exchange rate by round ID\r\n    function getExchangeRate(uint80 roundID) public view returns(uint exchangeRate, uint80 newRoundID, uint8 decimals) {\r\n\r\n\r\n        (\r\n            uint80 lastRoundID, \r\n            int lastPrice,\r\n            uint lastStartedAt,\r\n            uint lastTimeStamp,\r\n            uint80 lastAnsweredInRound\r\n        ) = priceFeed.latestRoundData();\r\n\r\n        exchangeRate = uint(lastPrice);\r\n        newRoundID = lastRoundID;\r\n\r\n        if (roundID != 0){\r\n\r\n            (\r\n                uint80 id, \r\n                int price,\r\n                uint startedAt,\r\n                uint  timeStamp,\r\n                uint80 answeredInRound\r\n            ) = priceFeed.getRoundData(roundID);\r\n\r\n            if (timeStamp > lastTimeStamp + 2*1 minutes) {\r\n\r\n                exchangeRate = uint(price);\r\n                newRoundID = roundID;                \r\n            }\r\n        }\r\n        decimals = priceFeed.decimals();\r\n    }   \r\n\r\n    // Check for registration\r\n    function isRegistered () \r\n        public \r\n        view \r\n        returns (bool) {\r\n                \r\n        // Returns true if ID is setted\r\n        return partners[msg.sender].id>0;\r\n    } \r\n\r\n    // Get the current registration prices by round ID\r\n    function getRegistrationPrices (uint80 roundID) public view returns (uint[] memory registrationPrices, uint80 newRoundID){\r\n\r\n        // Get the current exchange rate\r\n        (\r\n            uint exchangeRate, // The current exchange rate\r\n            uint80 currentRoundID,  // A new round ID\r\n            uint8 decimals // The number of decimals in the current exchange rate\r\n        )=getExchangeRate(roundID); \r\n\r\n        // Set the new round ID\r\n        newRoundID = currentRoundID;\r\n\r\n        // Set the length of the registration prices array equal to the marketing plans number \r\n        registrationPrices = new uint[](marketingPlans.length);\r\n\r\n        // Loop marketing plans\r\n        for (uint8 i = 0; i <marketingPlans.length; i++){\r\n\r\n            // Set current price\r\n            registrationPrices[i] = getRegistrationPrice(i, exchangeRate, decimals);\r\n        }\r\n    }   \r\n    \r\n    // Get a list of the partners who were sponsored by the address of the partner\r\n    function getReferals(address partnerAddress) \r\n        public \r\n        view \r\n        onlyRegistered \r\n        returns ( address[] memory) {\r\n \r\n        // Return the partner's referals list  \r\n        return partners[partnerAddress].referals;\r\n    }\r\n\r\n    // Count members in the partner's network\r\n    function getNetworkCount(address partnerAddress)\r\n        public\r\n        view\r\n        onlyRegistered\r\n        returns(uint count) {\r\n        \r\n        // Count referals\r\n        count = partners[partnerAddress].referals.length;\r\n\r\n        // Loop referals\r\n        for(uint8 i = 0; i < partners[partnerAddress].referals.length; i++)  {\r\n\r\n            // Add referal's network count\r\n            count += getNetworkCount(partners[partnerAddress].referals[i]);\r\n        }      \r\n    }\r\n\r\n    // Get Next level prices\r\n    function getNextLevelPrices(uint80 roundID) \r\n        public \r\n        view \r\n        onlyRegistered \r\n        returns (\r\n            uint[] memory nextLevelPrices\r\n            ){\r\n\r\n        nextLevelPrices = new uint[](marketingPlans.length);\r\n        for(uint8 i = 0; i< nextLevelPrices.length; i++){\r\n\r\n            // Set a next level number of the current marketing plan\r\n            uint nextLevel = 1;\r\n\r\n            // Check the current marketing plan activation\r\n            if (partners[msg.sender].level.length > i){\r\n\r\n                // The marketing plan is active\r\n\r\n                // Increase the next level number by the level of the current marketing plan\r\n                nextLevel += partners[msg.sender].level[i].length;\r\n            }\r\n\r\n            // Get the current exchange rate\r\n            (\r\n                uint exchangeRate,\r\n                uint80 newRoundID,\r\n                uint8 decimals // The number of decimals in the current exchange rate\r\n            )=getExchangeRate(roundID);\r\n\r\n            // Return a price of a level ups to the current level number of the current marketing plan \r\n            nextLevelPrices[i] = nextLevelPrice(getRequiredLevels(msg.sender, i, nextLevel), exchangeRate, decimals);\r\n\r\n        }\r\n    } \r\n\r\n    // Get account data\r\n    function getMyData() \r\n        public \r\n        view \r\n        onlyRegistered \r\n        returns (\r\n            uint id, \r\n            uint[] memory level,\r\n            uint[] memory level1,\r\n            uint[] memory level2,\r\n            uint registrationDate,\r\n            uint blockNumber, \r\n            address[] memory referals, \r\n            uint network\r\n            ) {\r\n\r\n        id = partners[msg.sender].id;\r\n        level = partners[msg.sender].level[0];\r\n        if (partners[msg.sender].level.length>1) {\r\n            level1 = partners[msg.sender].level[1];\r\n            if (partners[msg.sender].level.length>2)\r\n            {\r\n                level2 = partners[msg.sender].level[2];\r\n            }\r\n        }\r\n                        \r\n        registrationDate = partners[msg.sender].registrationDate;\r\n        referals = partners[msg.sender].referals;\r\n        network = getNetworkCount(msg.sender);\r\n        blockNumber = partners[msg.sender].registrationBlockNumber;\r\n    }\r\n\r\n    // Get the current Basic Income status\r\n    function getbasicIncomeData() \r\n        public \r\n        view \r\n        returns (\r\n            uint balance,\r\n            uint bonusSumm,\r\n            uint result,\r\n            uint mp,\r\n            uint minimumLevel\r\n            ) {\r\n\r\n        // Return Basic Income collected summ\r\n        balance = basicIncomeCollectedSumm;\r\n\r\n        // Return summ of the Basic Income\r\n        bonusSumm = basicIncomeSumm;\r\n\r\n        // Get Basic Income receivers\r\n        address[] memory receivers = getBasicIncomeReceivers();\r\n\r\n        // Caculate required summ to pay to all receivers\r\n        result = receivers.length * (basicIncomeSumm+0.00021 ether)+0.01 ether;\r\n\r\n        // Return number of the reuired activated marketing plan\r\n        mp = marketingPlans.length-1;\r\n\r\n        // Return minimum required marketing plan level \r\n        minimumLevel = basicIncomeMinimumLevel;\r\n    }\r\n\r\n    // Registration under special conditions\r\n    function marketingReg(address partnerAddress, uint level) public onlyOwner {\r\n\r\n        // New Partner creation\r\n        createNewPartner(partnerAddress, owner);\r\n\r\n        // New Partner levels up\r\n        // Loop marketing plans\r\n        for (uint8 i = 0; i < marketingPlans.length; i++){\r\n\r\n            // Activate current marketing plan\r\n            partners[partnerAddress].level.push([1]);\r\n\r\n            // Call the reistration event \r\n            emit registration (\r\n                partners[partnerAddress].id, \r\n                partnerAddress, \r\n                owner,\r\n                i\r\n                );\r\n\r\n            // Loop required levels count\r\n            for (uint8 k = 0; k < level-1; k++){\r\n\r\n                // Level up Partner's current marketing plan\r\n                partners[partnerAddress].level[i].push(1);\r\n                \r\n                // Call the level up event\r\n                emit levelUp (\r\n                partnerAddress, \r\n                partners[partnerAddress].level[i].length,\r\n                i\r\n                );                  \r\n            }\r\n\r\n        }\r\n    }\r\n\r\n    // Get a required number of level ups of each marketing plan to \r\n    // level up current marketin plan to requested level\r\n    function getRequiredLevels (address partnerAddress, uint mp, uint level) \r\n        private \r\n        view \r\n        returns (uint[] memory requiredLevels) {\r\n\r\n        // Initiate a required levels array with length equals to the marketing plans count \r\n        requiredLevels = new uint[](mp+1);\r\n\r\n        // Loop marketing plans of the Partner\r\n        for (uint8 i = 0; i < mp + 1 ; i++){\r\n\r\n            // Check for the marketing plan activation\r\n            if (i < partners[partnerAddress].level.length){\r\n\r\n                // The Marketiong plan is active\r\n\r\n                // Check for the level of the current marketing plan\r\n                if (partners[partnerAddress].level[i].length >= level){\r\n\r\n                    // The level if equal or higher then required\r\n\r\n                    // Zero level ups of the current marketing plan is required\r\n                    requiredLevels[i] = 0;\r\n\r\n                } else {\r\n\r\n                    // The level of the current marketing plan is less then required\r\n\r\n                    // Return difference between curent and requested levels of \r\n                    // the current marketing plan \r\n                    requiredLevels[i] = level - partners[partnerAddress].level[i].length;\r\n                }\r\n            } else {\r\n\r\n                // The marketing plan is not active\r\n\r\n                // Required number of the level ups of the current marketing plan is equal to \r\n                // the required level    \r\n                requiredLevels[i] = level;\r\n            }\r\n\r\n        }\r\n    }\r\n\r\n    // The levels up function\r\n    function upPartnerLevels (address partnerAddress, uint[] memory requiredLevels, uint exchangeRate, uint8 decimals) private {\r\n\r\n        // The current level of the current marketing plan can't be less\r\n        // then a previos marketing plan level\r\n        // A level up procedure always starts from a first marketing plan and\r\n        // step by step go to current\r\n\r\n        // Loop reured marketing plans\r\n        for (uint8 i = 0; i < requiredLevels.length; i++) {\r\n\r\n            // Loop required levels of the current marketing plan to up\r\n            for(uint8 k = 0; k < requiredLevels[i]; k++) {\r\n\r\n                // Current level up price\r\n                uint price = 0;\r\n\r\n                // Check for owner\r\n                if (partnerAddress != owner){\r\n\r\n                    // The partner is not the owner\r\n\r\n                    // Set the current level up price\r\n                    price = levelUpPrice(partnerAddress, i, exchangeRate, decimals);\r\n                }\r\n                \r\n\r\n                // Level up the partner\r\n                upPartnerLevel(partnerAddress, price, i);\r\n            }\r\n        }\r\n    }\r\n    \r\n    // The level up execution procedure\r\n    function upPartnerLevel (address partnerAddress, uint price, uint mp) private {\r\n\r\n        // Check the current marketing plan activation        \r\n        if (partners[partnerAddress].level.length > mp) {\r\n\r\n            // The marketing plan is active\r\n\r\n            // Add a next slot number to the a level of the current marketing plan\r\n            partners[partnerAddress].level[mp].push(1);\r\n\r\n        } else {\r\n\r\n            // The marketing plan is not  active\r\n\r\n            // Activate the current marketing plan and add a next slot number of a first level\r\n            partners[partnerAddress].level.push([1]);\r\n\r\n        }\r\n        \r\n        // Is it registration?\r\n        if (partners[partnerAddress].level[mp].length>1 ) {\r\n            \r\n            // Call the level up event with the sponsor ID and the new partner's level\r\n            emit levelUp (\r\n                partnerAddress, \r\n                partners[partnerAddress].level[mp].length,\r\n                mp\r\n                );        \r\n        } else {\r\n            \r\n            // Call the reistration event with a new partner's ID and \r\n            //the sponsor address\r\n            emit registration (\r\n                partners[partnerAddress].id, \r\n                partnerAddress, \r\n                partners[partnerAddress].sponsorAddress,\r\n                mp\r\n                );\r\n        }\r\n\r\n        // Chek for owner\r\n        if (partnerAddress != owner){\r\n\r\n            // The partner is not the owner\r\n\r\n            // Buy a new marketing plan level slot in the matrix\r\n            payToPrtners(\r\n                partners[partnerAddress].sponsorAddress, \r\n                price, \r\n                partners[partnerAddress].level[mp].length,\r\n                mp\r\n                );\r\n        }\r\n    }\r\n\r\n    // The level up price calculation fauction\r\n    function levelUpPrice(address partnerAddress, uint mp, uint exchangeRate, uint8 decimals) private view returns(uint price) {\r\n\r\n\r\n        // Return the registration price of the desired marketing plan, \r\n        // multiplied by two to the power equal to the current level\r\n\r\n        uint level = 0;\r\n\r\n        if (partners[partnerAddress].level.length > mp) {\r\n\r\n            level = partners[partnerAddress].level[mp].length;\r\n        }\r\n\r\n        price = getRegistrationPrice(mp, exchangeRate, decimals)*2**level;\r\n    }\r\n    \r\n    // The payments execution function\r\n    function payToPrtners (address sponsorAddress, uint amount, uint level, uint mp) private {\r\n        \r\n\r\n        // Calculate summ of a Basic Income fee\r\n        uint toBasicIncome = amount*basicIncomeFee/100;\r\n\r\n        // Take the Basic Income fee\r\n        uint leftToPay = amount-toBasicIncome;\r\n\r\n        // Calculate summ to pay out for the slot\r\n         uint summToPay = directBonus*amount/100; \r\n\r\n        // Looking the first eligible sponsor to sell the slot on the level \r\n        // of the required marketing plan\r\n        // It can be only the first same-level sponsor with a free slot \r\n        // in a pool or the higer-level sponsor\r\n        address currentPartnerAddressToPay = findPartnerToPay(sponsorAddress, level, summToPay, mp); \r\n                      \r\n        // Check should we look at the structure or this is a owner's referal\r\n        if (currentPartnerAddressToPay == owner) {\r\n\r\n            // Up owner's level if necessary\r\n            if (partners[owner].level[mp].length < level) {\r\n\r\n                uint[] memory requiredLevels = getRequiredLevels(owner, mp, level);\r\n\r\n                upPartnerLevels(owner, requiredLevels, 1, 0);\r\n\r\n            }\r\n        }\r\n            \r\n        // Incriment a next slot number at the level\r\n        saveLevelIncrement(currentPartnerAddressToPay, level, mp);\r\n\r\n        // Pay for the slot to an eligible sponsor\r\n        payToPartner(currentPartnerAddressToPay, 1, summToPay, level, mp); \r\n\r\n           \r\n        // Set a next partner to pay out leader's bonuses\r\n        currentPartnerAddressToPay = partners[sponsorAddress].sponsorAddress; \r\n            \r\n        // Reduce the amount to be paid by the amount of the payment already made \r\n        leftToPay -= summToPay;\r\n            \r\n        // Paying network bonuses to leaders \r\n\r\n        // Loop a higest marketing plan leaders bounuses \r\n        for (uint8 i = 0; i < marketingPlans[marketingPlans.length-1].leaderBonusLevels.length; i++) {\r\n                \r\n            // Check if the next sponsor is the owner\r\n            if (currentPartnerAddressToPay == owner) {\r\n                    \r\n                // Pay to the owner\r\n                payToPartner(owner, i + 2, leftToPay, level, mp);\r\n\r\n                leftToPay = 0;\r\n\r\n                break; // Stop the payment procedure\r\n            }\r\n\r\n            // A summ of the network bonus to pay to the current partner\r\n            uint currentSummToPay = 0;\r\n          \r\n            for (uint8 k = 1; k < marketingPlans.length; k++){\r\n\r\n                if (i < marketingPlans[k].leaderBonusLevels.length){\r\n\r\n                    // Calculate summ of a bonus to pay out\r\n                    summToPay = marketingPlans[k].leaderBonusLevels[i]*amount/100;\r\n\r\n                    // Rounding error protection\r\n                    // Checking the amount of the last bonus\r\n                    if (i == marketingPlans[marketingPlans.length-1].leaderBonusLevels.length-1 && summToPay > leftToPay) {\r\n\r\n                       // Summ to pay is more than left amount or equal to it\r\n\r\n                        // Set summ to pay as left to pay amount\r\n                        summToPay = leftToPay;\r\n\r\n                        // Reset left to pay amount to 0\r\n                        leftToPay = 0;\r\n\r\n                    } else {\r\n\r\n                        // Reduce left to pay summ\r\n                        leftToPay -= summToPay;\r\n                    }                 \r\n                    \r\n                    // Check partners level\r\n                    if (partners[currentPartnerAddressToPay].level.length - 1 >= k) {\r\n\r\n                        // The partner has nessesary level to receive payment\r\n\r\n                        // Increase current summ to pay\r\n                        currentSummToPay += summToPay;\r\n                       \r\n                    } else {\r\n\r\n                        // The partner hasn't nessesary level to receive payment\r\n\r\n                        // Emit missing bonus event\r\n                        emit missingBounus (currentPartnerAddressToPay, i + 2, level, summToPay, mp, k);\r\n\r\n                        // Increase Basic Income summ to collect\r\n                        toBasicIncome +=summToPay;\r\n                    }\r\n\r\n                }\r\n                \r\n            }\r\n\r\n            // Check the current summ to pay\r\n            if (currentSummToPay > 0) {\r\n\r\n                // There are bonuses for payout\r\n\r\n                // Pay to the partner\r\n                payToPartner(currentPartnerAddressToPay, i + 2, currentSummToPay, level, mp);\r\n            }\r\n     \r\n            // Set a next partner to pay out \r\n            currentPartnerAddressToPay = partners[currentPartnerAddressToPay].sponsorAddress; \r\n        }\r\n        \r\n        // Increase Basic Income collected summ \r\n        basicIncomeCollectedSumm += toBasicIncome;     \r\n    }\r\n\r\n\r\n    // The payment function\r\n    function payToPartner (address partnerAddress, uint bonusType, uint amount, uint level, uint mp) private {\r\n        \r\n        \r\n        // Pay out bonus\r\n        payable(partnerAddress).transfer(amount); \r\n        \r\n        // Call a bonus pais out event with addres and paid summToPay\r\n        emit bonusPaidOut(partnerAddress, bonusType, amount, level, mp);        \r\n    }\r\n    \r\n    // Search for the partner who has fulfilled the conditions for receiving payment\r\n    function findPartnerToPay (\r\n            address partnerAddress, \r\n            uint level,\r\n            uint amount, \r\n            uint mp\r\n        ) \r\n        private \r\n        returns (address) {\r\n       \r\n        // Check if it is an owner's address\r\n        if ( partnerAddress == owner) {\r\n            \r\n            return owner; // Return the owner's address as an address to pay \r\n        }\r\n        \r\n        // Check conditionals for pay to the partner:\r\n        // The partner's level should be same or higher then level of payment\r\n        // The partner with higher level has unlimited slots \r\n        // The partner with the same level should have a free slot\r\n        // The partner's next free slot shouldn't be a last in the pool\r\n        // If any of the conditions is not met, then the payment is redirected to the sponsor. \r\n        // The sponsor must also pass a broach eligibility check.\r\n        \r\n        // Set partner's sponsor\r\n        address sponsorAddress = partners[partnerAddress].sponsorAddress;\r\n\r\n\r\n        // Check for required marketing palan ativation\r\n        if (partners[partnerAddress].level.length > mp) {\r\n\r\n            // The required marketing plan is active\r\n        \r\n            // Set current partner's level\r\n            uint partnersLevel = partners[partnerAddress].level[mp].length; \r\n            \r\n            // Check that the partner's level is higher than required\r\n            if (partnersLevel > level) {\r\n\r\n                // The level high enougth\r\n                \r\n                // Check if the partner shouldn't pay for reopen of the pool\r\n                if (!isReopen(partnerAddress, level, mp)) {\r\n                    \r\n                    // Return the partner's address as address to pay\r\n                    return partnerAddress; \r\n\r\n                } else { // The partner should pay for reopen of the pool to the sponsor\r\n                \r\n                    // Return a suitable sponsor to pay for the pool\r\n                    return findPartnerToPay(sponsorAddress, level, amount, mp); \r\n                }\r\n            } else { \r\n\r\n                // The partner's level not higer then payment level\r\n                \r\n                // Do the partner has a same level?\r\n                if (partnersLevel == level) {\r\n                    \r\n                    //Check if it is a reopen of the pool\r\n                    if (isReopen(partnerAddress, level, mp)) { \r\n\r\n                        // The partner pays for reopen of the pool\r\n                            \r\n                        // Search a sutable sponsor to pay for the reopen\r\n                        return findPartnerToPay(sponsorAddress, level, amount, mp);\r\n\r\n                    } else {\r\n\r\n                        // Check if the partner's slots at the level isn't exhausted\r\n                        if (partners[partnerAddress].level[mp][level-1] < slotsPerLevel || level == maxAvaibleLevel) {\r\n                            \r\n                            // Return the partner's address as address to pay\r\n                            return partnerAddress;  \r\n                            \r\n                        } else { \r\n\r\n                            // This partner haven't sutable slots\r\n                           \r\n                            // Call missing bounus event with the address of the partner \r\n                            // who missed the bonus and the bonus level \r\n                            emit missingBounus (partnerAddress, 1, level, amount, mp, 0);\r\n\r\n                            // Continue a suitable sponsor search\r\n                            return findPartnerToPay(sponsorAddress, level, amount, mp);\r\n                            \r\n                        }  \r\n                    }              \r\n                } else { // The partner's level lower then level of the payment\r\n                    \r\n                    // Call missing bounus event with the address of the partner \r\n                    // who missed the bonus and the bonus level \r\n                    emit missingBounus (partnerAddress, 1, level, amount, mp, 0);\r\n                    \r\n                    // Continue a suitable sponsor search \r\n                    return findPartnerToPay(sponsorAddress, level, amount, mp); \r\n                    \r\n                }\r\n            }\r\n        } else { \r\n\r\n            // The partner do not have an activated required marketing plan \r\n\r\n            // Call missing bounus event with the address of the partner \r\n            // who missed the bonus and the bonus level \r\n            emit missingBounus (partnerAddress, 1, level, amount, mp, 0);\r\n                    \r\n            // Continue a suitable sponsor search \r\n            return findPartnerToPay(sponsorAddress, level, amount, mp); \r\n\r\n        }\r\n    }\r\n    \r\n    // A pool reopen chek function \r\n    function isReopen (address partnerAddress, uint level, uint mp) private returns(bool reopen) {\r\n        \r\n        // Check current pool length less than maximum slots per pool number\r\n        if ((partners[partnerAddress].level[mp][level-1]-1) % slotsPerPool+1 == slotsPerPool){\r\n            \r\n            // Incriment a next slot number at the level\r\n            saveLevelIncrement(partnerAddress, level, mp);\r\n            \r\n            // Call the poll reopened event with the partner address and the pool level\r\n            emit poolIsReopened(partnerAddress, level, mp);\r\n            \r\n            reopen = true;\r\n        }\r\n    }\r\n    \r\n    \r\n    // IntOveflow protection \r\n    function saveLevelIncrement (address partnerAddress, uint level, uint mp) private {\r\n        \r\n        // The maximum uint value check                \r\n        if (partners[partnerAddress].level[mp][level-1] <type(uint).max) \r\n        {\r\n            // Incriment the level next slot value\r\n            partners[partnerAddress].level[mp][level-1] ++; \r\n        } \r\n        else \r\n        {\r\n            // Reset the level next slot to the slots per level value \r\n            //to prevent new free slots emergence\r\n            partners[partnerAddress].level[mp][level-1] = slotsPerLevel+1;\r\n        }\r\n    }\r\n\r\n    // New Partner data creation\r\n    function createNewPartner (address partnerAddress, address sponsorAddress) private {\r\n        \r\n        // Generate new ID\r\n        uint newID = shortIdForLinks.length + prefID;\r\n        \r\n        // Mapping ID to addres\r\n        shortIdForLinks.push (partnerAddress);\r\n        /*\r\n        // Create a new partner\r\n        Partner memory p;\r\n        partners[partnerAddress] = p;\r\n        */\r\n        // Set the partner's ID\r\n        partners[partnerAddress].id = newID;\r\n        \r\n        // Set sponsor to the new partner\r\n        partners[partnerAddress].sponsorAddress = sponsorAddress;\r\n\r\n        // Set the registration date\r\n        partners[partnerAddress].registrationDate = block.timestamp;\r\n\r\n        // Set the registration block number\r\n        partners[partnerAddress].registrationBlockNumber = block.number;\r\n\r\n        if (partnerAddress != owner) {\r\n\r\n            // Add the new partner into the sponsor's list of referals\r\n            partners[sponsorAddress].referals.push(partnerAddress);             \r\n        }   \r\n    }\r\n\r\n    // Current registration price\r\n    function getRegistrationPrice (uint mp, uint exchangeRate, uint8 decimals) private view returns (uint price) {\r\n\r\n        // Return a registration price to the required marketing plan\r\n        price = marketingPlans[mp].registrationPrice*10**(18+decimals)/exchangeRate;\r\n    }\r\n\r\n    // Calculate the next level price\r\n    function nextLevelPrice (uint[] memory requiredLevels, uint exchangeRate, uint8 decimals) private view onlyRegistered returns  (uint price) {\r\n        \r\n        // Tthe price of the next level is twice the price of the current one.\r\n        // The Level of the marketing plan have to be less or the same of previos plan's level.\r\n        // The price of the next level of the current marketing plan is a summ of a level ups prices\r\n        // of this and an all previos plans to the required level.\r\n\r\n        // Start a price count form 0\r\n        price = 0;\r\n\r\n        if (msg.sender != owner) {\r\n\r\n            uint currentLevel;\r\n\r\n            // Go through all the marketing plans, the levels at which should be increased\r\n            for (uint8 i = 0; i<requiredLevels.length; i++){\r\n\r\n                // Set the current level \r\n                currentLevel = 0;\r\n\r\n                // Check the current marketing plan activation\r\n                if (partners[msg.sender].level.length>i) {\r\n\r\n                    // The marketing plan is active\r\n\r\n                    // Increase the current level by the partner's level of the current marketing plan\r\n                    currentLevel = partners[msg.sender].level[i].length;\r\n                }\r\n\r\n                // Loop required levels of the current marketing plan\r\n                for (uint8 k = 0; k < requiredLevels[i]; k++){\r\n\r\n                    // Incriment the price by the price of the current marketing plan level\r\n                    price += getRegistrationPrice(i, exchangeRate, decimals)*2**(currentLevel+k);\r\n                }\r\n            }\r\n        }\r\n    }\r\n\r\n    // Pay the Basic Income\r\n    function basicIncomePay () public onlyOwner {\r\n\r\n        // Check if a blockchain commision summ to make a payments of the Basic Income transfered\r\n        if (commissionTransfered) {\r\n\r\n            // Commission was transfered\r\n\r\n            // Get Basic Income receivers\r\n            address[] memory receivers = getBasicIncomeReceivers();\r\n\r\n            // Loop receivers to pay\r\n            for (uint8 i = 0; i < receivers.length; i++){\r\n\r\n                // Pay tahe Basic Income to the Partner\r\n                payToPartner(receivers[i], 0, basicIncomeSumm, 0, 0); \r\n\r\n                // Reduce collected summ\r\n                basicIncomeCollectedSumm -= basicIncomeSumm;\r\n            }\r\n\r\n            // Set the commission transfered flag to false\r\n            commissionTransfered  = false;\r\n\r\n            // Check the Basic Income collection duration\r\n            if (block.timestamp <= basicIncomeStartDate + 1 weeks) {\r\n\r\n                // The Basic Income was collected less then a week\r\n\r\n                // Twice the Basic Income amount\r\n                basicIncomeSumm *=2;\r\n\r\n            } else if (block.timestamp >= basicIncomeStartDate + 4 * 1 weeks && basicIncomeSumm > 2 ether) {\r\n\r\n                // The Basic Income was collected more then 4 weeks\r\n\r\n                // Half the Basic Income amount\r\n                basicIncomeSumm /=2;\r\n            }\r\n\r\n            // Set a new Basic Income collection start date\r\n            basicIncomeStartDate = block.timestamp;\r\n        } \r\n\r\n        // Check if the Basic Income payment is ready agan\r\n        checkBasicIncomePayment();\r\n   \r\n    }\r\n\r\n    // Get Basic Income receivers    \r\n    function getBasicIncomeReceivers() private view returns(address[] memory receivers){\r\n\r\n        uint8 j=0;\r\n\r\n        for (uint8 i = 0; i <  shortIdForLinks.length; i++){\r\n\r\n            // Check for conditions were passed\r\n\r\n            // Partner has the last Marketing Plan ative\r\n            if (partners[shortIdForLinks[i]].level.length == marketingPlans.length){\r\n\r\n                // Level of the last Marketing Plan is enough \r\n                if(partners[shortIdForLinks[i]].level[marketingPlans.length-1].length >= basicIncomeMinimumLevel){\r\n\r\n                    // Partner can receive Basic Income\r\n\r\n                    j++;\r\n                }\r\n            }\r\n        }\r\n\r\n        receivers = new address[](j);\r\n\r\n        for (uint8 i = 0; i <  shortIdForLinks.length; i++){\r\n\r\n            // Check for conditions were passed\r\n\r\n            // Partner has the last Marketing Plan ative\r\n            if (partners[shortIdForLinks[i]].level.length == marketingPlans.length){\r\n\r\n                // Level of the last Marketing Plan is enough \r\n                if(partners[shortIdForLinks[i]].level[marketingPlans.length-1].length >= basicIncomeMinimumLevel){\r\n\r\n                    // Partner can receive Basic Income\r\n\r\n                    // Add Prtner to the receivers array\r\n                    receivers[i] = shortIdForLinks[i];\r\n                }\r\n            }\r\n        }\r\n    }\r\n\r\n    // Basic Income ready check\r\n    function checkBasicIncomePayment() private {\r\n\r\n        // Get Basic Income receivers\r\n        address[] memory receivers = getBasicIncomeReceivers();\r\n\r\n        // Caculate required summ to pay to all receivers\r\n        uint result = receivers.length * (basicIncomeSumm+0.00021 ether)+0.01 ether;\r\n \r\n        // Check if a Basic Income summ reached\r\n        if (basicIncomeCollectedSumm >= result) {\r\n\r\n            // The Basic Income is coolected and ready to be paid\r\n\r\n            // Check if a blockchain commision summ to make a payments of the Basic Income transfered\r\n            if (!commissionTransfered) {\r\n\r\n                // To prevent partner's huge commision to make all paments\r\n                // the paymets of the Basic Income makes in separaded transaction\r\n                // from the owner's address. Blockchain commision summ is transfered \r\n                // to the address of the owner only once.  \r\n\r\n                // Transfer the blockchain commision summ to make a payments of the Basic Income\r\n                payable(owner).transfer(receivers.length * (0.00021 ether)+0 ether);\r\n                commissionTransfered = true; \r\n            } \r\n\r\n            // Emit an event to initiate the payments of the Basic Income to the Partners\r\n            emit basicIncomeReadyToPay(receivers, basicIncomeSumm);            \r\n       \r\n        }  \r\n    }\r\n\r\n}\r\n",
  "sourcePath": "C:\\Users\\iumantsev\\cryptolife\\contracts\\CryptoLife.sol",
  "compiler": {
    "name": "solc",
    "version": "0.7.6+commit.7338295f.Emscripten.clang"
  },
  "schemaVersion": "3.4.3",
  "updatedAt": "2022-03-23T09:54:21.010Z",
  "networkType": "ethereum",
  "devdoc": {
    "kind": "dev",
    "methods": {},
    "version": 1
  },
  "userdoc": {
    "kind": "user",
    "methods": {},
    "version": 1
  }
}