{
  "contractName": "CryptoLife",
  "abi": [
    {
      "inputs": [],
      "stateMutability": "nonpayable",
      "type": "constructor"
    },
    {
      "anonymous": false,
      "inputs": [
        {
          "indexed": true,
          "internalType": "address",
          "name": "partnerAddress",
          "type": "address"
        },
        {
          "indexed": true,
          "internalType": "uint256",
          "name": "bonusType",
          "type": "uint256"
        },
        {
          "indexed": false,
          "internalType": "uint256",
          "name": "amount",
          "type": "uint256"
        },
        {
          "indexed": false,
          "internalType": "uint256",
          "name": "level",
          "type": "uint256"
        },
        {
          "indexed": false,
          "internalType": "uint256",
          "name": "mp",
          "type": "uint256"
        }
      ],
      "name": "bonusPaidOut",
      "type": "event"
    },
    {
      "anonymous": false,
      "inputs": [
        {
          "indexed": true,
          "internalType": "address",
          "name": "partnerAddress",
          "type": "address"
        },
        {
          "indexed": false,
          "internalType": "uint256",
          "name": "level",
          "type": "uint256"
        },
        {
          "indexed": false,
          "internalType": "uint256",
          "name": "mp",
          "type": "uint256"
        }
      ],
      "name": "levelUp",
      "type": "event"
    },
    {
      "anonymous": false,
      "inputs": [
        {
          "indexed": true,
          "internalType": "address",
          "name": "partnerAddress",
          "type": "address"
        },
        {
          "indexed": false,
          "internalType": "uint256",
          "name": "bonusType",
          "type": "uint256"
        },
        {
          "indexed": false,
          "internalType": "uint256",
          "name": "level",
          "type": "uint256"
        },
        {
          "indexed": false,
          "internalType": "uint256",
          "name": "amount",
          "type": "uint256"
        },
        {
          "indexed": false,
          "internalType": "uint256",
          "name": "mp",
          "type": "uint256"
        },
        {
          "indexed": false,
          "internalType": "uint256",
          "name": "bonusMp",
          "type": "uint256"
        }
      ],
      "name": "missingBounus",
      "type": "event"
    },
    {
      "anonymous": false,
      "inputs": [
        {
          "indexed": true,
          "internalType": "address",
          "name": "partnerAddress",
          "type": "address"
        },
        {
          "indexed": false,
          "internalType": "uint256",
          "name": "level",
          "type": "uint256"
        },
        {
          "indexed": false,
          "internalType": "uint256",
          "name": "mp",
          "type": "uint256"
        }
      ],
      "name": "poolIsReopened",
      "type": "event"
    },
    {
      "anonymous": false,
      "inputs": [
        {
          "indexed": true,
          "internalType": "uint256",
          "name": "partnerID",
          "type": "uint256"
        },
        {
          "indexed": true,
          "internalType": "address",
          "name": "partnerAddress",
          "type": "address"
        },
        {
          "indexed": true,
          "internalType": "address",
          "name": "sponsorAddress",
          "type": "address"
        },
        {
          "indexed": false,
          "internalType": "uint256",
          "name": "mp",
          "type": "uint256"
        }
      ],
      "name": "registration",
      "type": "event"
    },
    {
      "anonymous": false,
      "inputs": [
        {
          "indexed": false,
          "internalType": "uint256",
          "name": "price",
          "type": "uint256"
        },
        {
          "indexed": false,
          "internalType": "uint256",
          "name": "sendAmount",
          "type": "uint256"
        }
      ],
      "name": "test",
      "type": "event"
    },
    {
      "anonymous": false,
      "inputs": [
        {
          "indexed": false,
          "internalType": "uint256",
          "name": "notReceived",
          "type": "uint256"
        },
        {
          "indexed": false,
          "internalType": "uint256",
          "name": "leftToPay",
          "type": "uint256"
        }
      ],
      "name": "test2",
      "type": "event"
    },
    {
      "inputs": [
        {
          "internalType": "uint256",
          "name": "mp",
          "type": "uint256"
        },
        {
          "internalType": "uint256",
          "name": "level",
          "type": "uint256"
        },
        {
          "internalType": "uint80",
          "name": "roundID",
          "type": "uint80"
        }
      ],
      "name": "partnerLevelUp",
      "outputs": [],
      "stateMutability": "payable",
      "type": "function",
      "payable": true
    },
    {
      "inputs": [
        {
          "internalType": "uint256",
          "name": "sponsorID",
          "type": "uint256"
        },
        {
          "internalType": "uint256",
          "name": "mp",
          "type": "uint256"
        },
        {
          "internalType": "uint80",
          "name": "roundID",
          "type": "uint80"
        }
      ],
      "name": "registerNewPartner",
      "outputs": [],
      "stateMutability": "payable",
      "type": "function",
      "payable": true
    },
    {
      "inputs": [
        {
          "internalType": "uint80",
          "name": "roundID",
          "type": "uint80"
        }
      ],
      "name": "getExchangeRate",
      "outputs": [
        {
          "internalType": "uint256",
          "name": "exchangeRate",
          "type": "uint256"
        },
        {
          "internalType": "uint80",
          "name": "newRoundID",
          "type": "uint80"
        },
        {
          "internalType": "uint8",
          "name": "decimals",
          "type": "uint8"
        }
      ],
      "stateMutability": "view",
      "type": "function",
      "constant": true
    },
    {
      "inputs": [],
      "name": "isRegistered",
      "outputs": [
        {
          "internalType": "bool",
          "name": "",
          "type": "bool"
        }
      ],
      "stateMutability": "view",
      "type": "function",
      "constant": true
    },
    {
      "inputs": [
        {
          "internalType": "uint80",
          "name": "roundID",
          "type": "uint80"
        }
      ],
      "name": "getRegistrationPrices",
      "outputs": [
        {
          "internalType": "uint256[]",
          "name": "registrationPrices",
          "type": "uint256[]"
        },
        {
          "internalType": "uint80",
          "name": "newRoundID",
          "type": "uint80"
        }
      ],
      "stateMutability": "view",
      "type": "function",
      "constant": true
    },
    {
      "inputs": [
        {
          "internalType": "address",
          "name": "partnerAddress",
          "type": "address"
        }
      ],
      "name": "getReferals",
      "outputs": [
        {
          "internalType": "address[]",
          "name": "",
          "type": "address[]"
        }
      ],
      "stateMutability": "view",
      "type": "function",
      "constant": true
    },
    {
      "inputs": [
        {
          "internalType": "address",
          "name": "partnerAddress",
          "type": "address"
        }
      ],
      "name": "getNetworkCount",
      "outputs": [
        {
          "internalType": "uint256",
          "name": "count",
          "type": "uint256"
        }
      ],
      "stateMutability": "view",
      "type": "function",
      "constant": true
    },
    {
      "inputs": [
        {
          "internalType": "uint80",
          "name": "roundID",
          "type": "uint80"
        }
      ],
      "name": "getNextLevelPrices",
      "outputs": [
        {
          "internalType": "uint256[]",
          "name": "nextLevelPrices",
          "type": "uint256[]"
        }
      ],
      "stateMutability": "view",
      "type": "function",
      "constant": true
    },
    {
      "inputs": [],
      "name": "getMyData",
      "outputs": [
        {
          "internalType": "uint256",
          "name": "id",
          "type": "uint256"
        },
        {
          "internalType": "uint256[]",
          "name": "level",
          "type": "uint256[]"
        },
        {
          "internalType": "uint256[]",
          "name": "level1",
          "type": "uint256[]"
        },
        {
          "internalType": "uint256[]",
          "name": "level2",
          "type": "uint256[]"
        },
        {
          "internalType": "uint256",
          "name": "registrationDate",
          "type": "uint256"
        },
        {
          "internalType": "uint256",
          "name": "blockNumber",
          "type": "uint256"
        },
        {
          "internalType": "address[]",
          "name": "referals",
          "type": "address[]"
        },
        {
          "internalType": "uint256",
          "name": "network",
          "type": "uint256"
        }
      ],
      "stateMutability": "view",
      "type": "function",
      "constant": true
    },
    {
      "inputs": [],
      "name": "getTopLeaderData",
      "outputs": [
        {
          "internalType": "address",
          "name": "topLeader",
          "type": "address"
        },
        {
          "internalType": "uint256",
          "name": "balance",
          "type": "uint256"
        },
        {
          "internalType": "uint256",
          "name": "bonusSumm",
          "type": "uint256"
        },
        {
          "internalType": "uint256",
          "name": "result",
          "type": "uint256"
        },
        {
          "internalType": "uint256",
          "name": "delta",
          "type": "uint256"
        },
        {
          "internalType": "uint256",
          "name": "mp",
          "type": "uint256"
        },
        {
          "internalType": "uint256",
          "name": "minimumLevel",
          "type": "uint256"
        }
      ],
      "stateMutability": "view",
      "type": "function",
      "constant": true
    },
    {
      "inputs": [
        {
          "internalType": "address",
          "name": "partnerAddress",
          "type": "address"
        },
        {
          "internalType": "uint256",
          "name": "level",
          "type": "uint256"
        }
      ],
      "name": "marketingReg",
      "outputs": [],
      "stateMutability": "nonpayable",
      "type": "function"
    },
    {
      "inputs": [],
      "name": "getAdress",
      "outputs": [
        {
          "internalType": "address",
          "name": "contractAddress",
          "type": "address"
        }
      ],
      "stateMutability": "view",
      "type": "function",
      "constant": true
    }
  ],
  "bytecode": "0x6080604052600160045560006010553480156200001b57600080fd5b50732514895c72f50d8bd4b4f9b1110f0d6bd2c97526600160006101000a81548173ffffffffffffffffffffffffffffffffffffffff021916908373ffffffffffffffffffffffffffffffffffffffff160217905550336000806101000a81548173ffffffffffffffffffffffffffffffffffffffff021916908373ffffffffffffffffffffffffffffffffffffffff16021790555060036007819055506009600681905550620000cb62000c5c565b60098190806001815401808255809150506001900390600052602060002090600202016000909190919091506000820151816000015560208201518160010190805190602001906200011f92919062000c76565b50505060098190806001815401808255809150506001900390600052602060002090600202016000909190919091506000820151816000015560208201518160010190805190602001906200017692919062000c76565b5050506009819080600181540180825580915050600190039060005260206000209060020201600090919091909150600082015181600001556020820151816001019080519060200190620001cd92919062000c76565b5050506005600f81905550604b6008819055506009600281548110620001ef57fe5b90600052602060002090600202016001016003908060018154018082558091505060019003906000526020600020016000909190919091505560096002815481106200023757fe5b90600052602060002090600202016001016003908060018154018082558091505060019003906000526020600020016000909190919091505560096002815481106200027f57fe5b9060005260206000209060020201600101600390806001815401808255809150506001900390600052602060002001600090919091909150556009600281548110620002c757fe5b90600052602060002090600202016001016002908060018154018082558091505060019003906000526020600020016000909190919091505560096002815481106200030f57fe5b90600052602060002090600202016001016002908060018154018082558091505060019003906000526020600020016000909190919091505560096001815481106200035757fe5b90600052602060002090600202016001016005908060018154018082558091505060019003906000526020600020016000909190919091505560096001815481106200039f57fe5b906000526020600020906002020160010160029080600181540180825580915050600190039060005260206000200160009091909190915055600a6009600081548110620003e957fe5b906000526020600020906002020160000181905550602860096001815481106200040f57fe5b90600052602060002090600202016000018190555060c860096002815481106200043557fe5b906000526020600020906002020160000181905550600360008054906101000a900473ffffffffffffffffffffffffffffffffffffffff169080600181540180825580915050600190039060005260206000200160009091909190916101000a81548173ffffffffffffffffffffffffffffffffffffffff021916908373ffffffffffffffffffffffffffffffffffffffff160217905550620004d762000cc8565b80600260008060009054906101000a900473ffffffffffffffffffffffffffffffffffffffff1673ffffffffffffffffffffffffffffffffffffffff1673ffffffffffffffffffffffffffffffffffffffff1681526020019081526020016000206000820151816000015560208201518160010160006101000a81548173ffffffffffffffffffffffffffffffffffffffff021916908373ffffffffffffffffffffffffffffffffffffffff1602179055506040820151816002019080519060200190620005a792919062000d14565b506060820151816003019080519060200190620005c692919062000d7b565b506080820151816004015560a08201518160050155905050600454600260008060009054906101000a900473ffffffffffffffffffffffffffffffffffffffff1673ffffffffffffffffffffffffffffffffffffffff1673ffffffffffffffffffffffffffffffffffffffff1681526020019081526020016000206000018190555042600260008060009054906101000a900473ffffffffffffffffffffffffffffffffffffffff1673ffffffffffffffffffffffffffffffffffffffff1673ffffffffffffffffffffffffffffffffffffffff1681526020019081526020016000206004018190555043600260008060009054906101000a900473ffffffffffffffffffffffffffffffffffffffff1673ffffffffffffffffffffffffffffffffffffffff1673ffffffffffffffffffffffffffffffffffffffff1681526020019081526020016000206005018190555060008054906101000a900473ffffffffffffffffffffffffffffffffffffffff16600260008060009054906101000a900473ffffffffffffffffffffffffffffffffffffffff1673ffffffffffffffffffffffffffffffffffffffff1673ffffffffffffffffffffffffffffffffffffffff16815260200190815260200160002060010160006101000a81548173ffffffffffffffffffffffffffffffffffffffff021916908373ffffffffffffffffffffffffffffffffffffffff16021790555060005b6009805490508160ff161015620008a857600260008060009054906101000a900473ffffffffffffffffffffffffffffffffffffffff1673ffffffffffffffffffffffffffffffffffffffff1673ffffffffffffffffffffffffffffffffffffffff1681526020019081526020016000206002016040518060200160405280600160ff16815250908060018154018082558091505060019003906000526020600020016000909190919091509060016200089992919062000e0a565b508080600101915050620007dd565b5060008054906101000a900473ffffffffffffffffffffffffffffffffffffffff1673ffffffffffffffffffffffffffffffffffffffff1660008054906101000a900473ffffffffffffffffffffffffffffffffffffffff1673ffffffffffffffffffffffffffffffffffffffff16600260008060009054906101000a900473ffffffffffffffffffffffffffffffffffffffff1673ffffffffffffffffffffffffffffffffffffffff1673ffffffffffffffffffffffffffffffffffffffff168152602001908152602001600020600001547f422145007b4bd8541c28e0f237e5894ec3385a33f0adc0f42e02a97b5dfabccd6000604051620009ad919062000efe565b60405180910390a460008054906101000a900473ffffffffffffffffffffffffffffffffffffffff1673ffffffffffffffffffffffffffffffffffffffff1660008054906101000a900473ffffffffffffffffffffffffffffffffffffffff1673ffffffffffffffffffffffffffffffffffffffff16600260008060009054906101000a900473ffffffffffffffffffffffffffffffffffffffff1673ffffffffffffffffffffffffffffffffffffffff1673ffffffffffffffffffffffffffffffffffffffff168152602001908152602001600020600001547f422145007b4bd8541c28e0f237e5894ec3385a33f0adc0f42e02a97b5dfabccd600160405162000ab9919062000f1b565b60405180910390a460008054906101000a900473ffffffffffffffffffffffffffffffffffffffff1673ffffffffffffffffffffffffffffffffffffffff1660008054906101000a900473ffffffffffffffffffffffffffffffffffffffff1673ffffffffffffffffffffffffffffffffffffffff16600260008060009054906101000a900473ffffffffffffffffffffffffffffffffffffffff1673ffffffffffffffffffffffffffffffffffffffff1673ffffffffffffffffffffffffffffffffffffffff168152602001908152602001600020600001547f422145007b4bd8541c28e0f237e5894ec3385a33f0adc0f42e02a97b5dfabccd600260405162000bc5919062000f38565b60405180910390a467016345785d8a0000600a8190555042600b8190555060008054906101000a900473ffffffffffffffffffffffffffffffffffffffff16600c60006101000a81548173ffffffffffffffffffffffffffffffffffffffff021916908373ffffffffffffffffffffffffffffffffffffffff1602179055506000600d819055506006600e81905550505062000f9b565b604051806040016040528060008152602001606081525090565b82805482825590600052602060002090810192821562000cb5579160200282015b8281111562000cb457825182559160200191906001019062000c97565b5b50905062000cc4919062000e61565b5090565b6040518060c0016040528060008152602001600073ffffffffffffffffffffffffffffffffffffffff168152602001606081526020016060815260200160008152602001600081525090565b82805482825590600052602060002090810192821562000d68579160200282015b8281111562000d6757825182908051906020019062000d5692919062000c76565b509160200191906001019062000d35565b5b50905062000d77919062000e80565b5090565b82805482825590600052602060002090810192821562000df7579160200282015b8281111562000df65782518260006101000a81548173ffffffffffffffffffffffffffffffffffffffff021916908373ffffffffffffffffffffffffffffffffffffffff1602179055509160200191906001019062000d9c565b5b50905062000e06919062000e61565b5090565b82805482825590600052602060002090810192821562000e4e579160200282015b8281111562000e4d578251829060ff1690559160200191906001019062000e2b565b5b50905062000e5d919062000e61565b5090565b5b8082111562000e7c57600081600090555060010162000e62565b5090565b5b8082111562000ea4576000818162000e9a919062000ea8565b5060010162000e81565b5090565b508054600082559060005260206000209081019062000ec8919062000e61565b50565b62000ed68162000f5f565b82525050565b62000ee78162000f73565b82525050565b62000ef88162000f87565b82525050565b600060208201905062000f15600083018462000ecb565b92915050565b600060208201905062000f32600083018462000edc565b92915050565b600060208201905062000f4f600083018462000eed565b92915050565b6000819050919050565b600062000f6c8262000f55565b9050919050565b600062000f808262000f55565b9050919050565b600062000f948262000f55565b9050919050565b6143af8062000fab6000396000f3fe6080604052600436106100a65760003560e01c8063b64ac50111610064578063b64ac501146101c0578063bdfbab66146101f1578063cb137e5b1461022e578063d9c8a38b1461026d578063e3f324881461029f578063f8b7e36e146102bb576100a6565b806228bef0146100ab57806322366844146100e85780636b37d3621461011357806371c8872a1461013e578063958d1a911461017b578063a232703f146101a4575b600080fd5b3480156100b757600080fd5b506100d260048036038101906100cd91906137d7565b6102f9565b6040516100df9190613fda565b60405180910390f35b3480156100f457600080fd5b506100fd6104b7565b60405161010a9190613e6c565b60405180910390f35b34801561011f57600080fd5b50610128610503565b6040516101359190613d6e565b60405180910390f35b34801561014a57600080fd5b506101656004803603810190610160919061388b565b61050b565b6040516101729190613e1a565b60405180910390f35b34801561018757600080fd5b506101a2600480360381019061019d9190613800565b610709565b005b6101be60048036038101906101b9919061383c565b610aae565b005b3480156101cc57600080fd5b506101d5610da5565b6040516101e89796959493929190613d89565b60405180910390f35b3480156101fd57600080fd5b50610218600480360381019061021391906137d7565b610e08565b6040516102259190613df8565b60405180910390f35b34801561023a57600080fd5b506102556004803603810190610250919061388b565b610f60565b604051610264939291906140ef565b60405180910390f35b34801561027957600080fd5b506102826111b3565b604051610296989796959493929190613ff5565b60405180910390f35b6102b960048036038101906102b4919061383c565b61168d565b005b3480156102c757600080fd5b506102e260048036038101906102dd919061388b565b6118c8565b6040516102f0929190613e3c565b60405180910390f35b600080600260003373ffffffffffffffffffffffffffffffffffffffff1673ffffffffffffffffffffffffffffffffffffffff1681526020019081526020016000206002018054905011610382576040517f08c379a000000000000000000000000000000000000000000000000000000000815260040161037990613f7a565b60405180910390fd5b600260008373ffffffffffffffffffffffffffffffffffffffff1673ffffffffffffffffffffffffffffffffffffffff16815260200190815260200160002060030180549050905060005b600260008473ffffffffffffffffffffffffffffffffffffffff1673ffffffffffffffffffffffffffffffffffffffff168152602001908152602001600020600301805490508160ff1610156104b1576104a0600260008573ffffffffffffffffffffffffffffffffffffffff1673ffffffffffffffffffffffffffffffffffffffff1681526020019081526020016000206003018260ff168154811061047057fe5b9060005260206000200160009054906101000a900473ffffffffffffffffffffffffffffffffffffffff166102f9565b8201915080806001019150506103cd565b50919050565b600080600260003373ffffffffffffffffffffffffffffffffffffffff1673ffffffffffffffffffffffffffffffffffffffff1681526020019081526020016000206000015411905090565b600030905090565b60606000600260003373ffffffffffffffffffffffffffffffffffffffff1673ffffffffffffffffffffffffffffffffffffffff1681526020019081526020016000206002018054905011610595576040517f08c379a000000000000000000000000000000000000000000000000000000000815260040161058c90613f7a565b60405180910390fd5b60098054905067ffffffffffffffff811180156105b157600080fd5b506040519080825280602002602001820160405280156105e05781602001602082028036833780820191505090505b50905060005b81518160ff161015610703576000600190508160ff16600260003373ffffffffffffffffffffffffffffffffffffffff1673ffffffffffffffffffffffffffffffffffffffff1681526020019081526020016000206002018054905011156106ab57600260003373ffffffffffffffffffffffffffffffffffffffff1673ffffffffffffffffffffffffffffffffffffffff1681526020019081526020016000206002018260ff168154811061069857fe5b9060005260206000200180549050810190505b60008060006106b987610f60565b9250925092506106d76106d0338760ff1687611982565b8483611b6a565b868660ff16815181106106e657fe5b6020026020010181815250505050505080806001019150506105e6565b50919050565b60008054906101000a900473ffffffffffffffffffffffffffffffffffffffff1673ffffffffffffffffffffffffffffffffffffffff163373ffffffffffffffffffffffffffffffffffffffff1614610797576040517f08c379a000000000000000000000000000000000000000000000000000000000815260040161078e90613f5a565b60405180910390fd5b6107c18260008054906101000a900473ffffffffffffffffffffffffffffffffffffffff16611d78565b60005b6009805490508160ff161015610a8057600260008473ffffffffffffffffffffffffffffffffffffffff1673ffffffffffffffffffffffffffffffffffffffff1681526020019081526020016000206002016040518060200160405280600160ff168152509080600181540180825580915050600190039060005260206000200160009091909190915090600161085c9291906136d5565b5060005b600183038160ff1610156109aa57600260008573ffffffffffffffffffffffffffffffffffffffff1673ffffffffffffffffffffffffffffffffffffffff1681526020019081526020016000206002018260ff16815481106108be57fe5b90600052602060002001600190806001815401808255809150506001900390600052602060002001600090919091909150558373ffffffffffffffffffffffffffffffffffffffff167f35a42fa7cd43201e9185480f67fe2066fe29007662da7ca0534721f17239a998600260008773ffffffffffffffffffffffffffffffffffffffff1673ffffffffffffffffffffffffffffffffffffffff1681526020019081526020016000206002018460ff168154811061097857fe5b906000526020600020018054905084604051610995929190614126565b60405180910390a28080600101915050610860565b5060008054906101000a900473ffffffffffffffffffffffffffffffffffffffff1673ffffffffffffffffffffffffffffffffffffffff168373ffffffffffffffffffffffffffffffffffffffff16600260008673ffffffffffffffffffffffffffffffffffffffff1673ffffffffffffffffffffffffffffffffffffffff168152602001908152602001600020600001547f422145007b4bd8541c28e0f237e5894ec3385a33f0adc0f42e02a97b5dfabccd84604051610a6b919061416a565b60405180910390a480806001019150506107c4565b50610aaa60008054906101000a900473ffffffffffffffffffffffffffffffffffffffff16611fe7565b5050565b6000600260003373ffffffffffffffffffffffffffffffffffffffff1673ffffffffffffffffffffffffffffffffffffffff1681526020019081526020016000206000015414610b33576040517f08c379a0000000000000000000000000000000000000000000000000000000008152600401610b2a90613f1a565b60405180910390fd5b60008210158015610b48575060098054905082105b610b87576040517f08c379a0000000000000000000000000000000000000000000000000000000008152600401610b7e90613fba565b60405180910390fd5b600083118015610bb657507fffffffffffffffffffffffffffffffffffffffffffffffffffffffffffffffff83105b610bf5576040517f08c379a0000000000000000000000000000000000000000000000000000000008152600401610bec90613f9a565b60405180910390fd5b600080806000610c0485610f60565b92509250925060005b868160ff1611610c3657610c258160ff1685846121b8565b850194508080600101915050610c0d565b5083341015610c7a576040517f08c379a0000000000000000000000000000000000000000000000000000000008152600401610c7190613efa565b60405180910390fd5b60008060009054906101000a900473ffffffffffffffffffffffffffffffffffffffff169050600060045489039050600081118015610cbd575060038054905081105b15610cfd5760038181548110610ccf57fe5b9060005260206000200160009054906101000a900473ffffffffffffffffffffffffffffffffffffffff1691505b610d073383611d78565b610d1082611fe7565b6000610d1e338a6001611982565b9050610d2c338288876121f6565b600087340390506000811115610d84573373ffffffffffffffffffffffffffffffffffffffff166108fc829081150290604051600060405180830381858888f19350505050158015610d82573d6000803e3d6000fd5b505b600a5460105410610d9857610d976122c0565b5b5050505050505050505050565b6000806000806000806000600c60009054906101000a900473ffffffffffffffffffffffffffffffffffffffff1696506010549550600a549450600d549350610ded336123b9565b92506001600980549050039150600e54905090919293949596565b60606000600260003373ffffffffffffffffffffffffffffffffffffffff1673ffffffffffffffffffffffffffffffffffffffff1681526020019081526020016000206002018054905011610e92576040517f08c379a0000000000000000000000000000000000000000000000000000000008152600401610e8990613f7a565b60405180910390fd5b600260008373ffffffffffffffffffffffffffffffffffffffff1673ffffffffffffffffffffffffffffffffffffffff168152602001908152602001600020600301805480602002602001604051908101604052809291908181526020018280548015610f5457602002820191906000526020600020905b8160009054906101000a900473ffffffffffffffffffffffffffffffffffffffff1673ffffffffffffffffffffffffffffffffffffffff1681526020019060010190808311610f0a575b50505050509050919050565b600080600080600080600080600160009054906101000a900473ffffffffffffffffffffffffffffffffffffffff1673ffffffffffffffffffffffffffffffffffffffff1663feaf968c6040518163ffffffff1660e01b815260040160a06040518083038186803b158015610fd457600080fd5b505afa158015610fe8573d6000803e3d6000fd5b505050506040513d601f19601f8201168201806040525081019061100c91906138b4565b9450945094509450945083975084965060008969ffffffffffffffffffff1614611105576000806000806000600160009054906101000a900473ffffffffffffffffffffffffffffffffffffffff1673ffffffffffffffffffffffffffffffffffffffff16639a6fc8f58f6040518263ffffffff1660e01b8152600401611093919061414f565b60a06040518083038186803b1580156110ab57600080fd5b505afa1580156110bf573d6000803e3d6000fd5b505050506040513d601f19601f820116820180604052508101906110e391906138b4565b94509450945094509450607887018211156110ff57839c508d9b505b50505050505b600160009054906101000a900473ffffffffffffffffffffffffffffffffffffffff1673ffffffffffffffffffffffffffffffffffffffff1663313ce5676040518163ffffffff1660e01b815260040160206040518083038186803b15801561116d57600080fd5b505afa158015611181573d6000803e3d6000fd5b505050506040513d601f19601f820116820180604052508101906111a5919061392b565b955050505050509193909250565b600060608060606000806060600080600260003373ffffffffffffffffffffffffffffffffffffffff1673ffffffffffffffffffffffffffffffffffffffff1681526020019081526020016000206002018054905011611248576040517f08c379a000000000000000000000000000000000000000000000000000000000815260040161123f90613f7a565b60405180910390fd5b600260003373ffffffffffffffffffffffffffffffffffffffff1673ffffffffffffffffffffffffffffffffffffffff168152602001908152602001600020600001549750600260003373ffffffffffffffffffffffffffffffffffffffff1673ffffffffffffffffffffffffffffffffffffffff1681526020019081526020016000206002016000815481106112db57fe5b9060005260206000200180548060200260200160405190810160405280929190818152602001828054801561132f57602002820191906000526020600020905b81548152602001906001019080831161131b575b505050505096506001600260003373ffffffffffffffffffffffffffffffffffffffff1673ffffffffffffffffffffffffffffffffffffffff16815260200190815260200160002060020180549050111561152557600260003373ffffffffffffffffffffffffffffffffffffffff1673ffffffffffffffffffffffffffffffffffffffff1681526020019081526020016000206002016001815481106113d257fe5b9060005260206000200180548060200260200160405190810160405280929190818152602001828054801561142657602002820191906000526020600020905b815481526020019060010190808311611412575b5050505050955060028060003373ffffffffffffffffffffffffffffffffffffffff1673ffffffffffffffffffffffffffffffffffffffff16815260200190815260200160002060020180549050111561152457600260003373ffffffffffffffffffffffffffffffffffffffff1673ffffffffffffffffffffffffffffffffffffffff1681526020019081526020016000206002016002815481106114c857fe5b9060005260206000200180548060200260200160405190810160405280929190818152602001828054801561151c57602002820191906000526020600020905b815481526020019060010190808311611508575b505050505094505b5b600260003373ffffffffffffffffffffffffffffffffffffffff1673ffffffffffffffffffffffffffffffffffffffff168152602001908152602001600020600401549350600260003373ffffffffffffffffffffffffffffffffffffffff1673ffffffffffffffffffffffffffffffffffffffff16815260200190815260200160002060030180548060200260200160405190810160405280929190818152602001828054801561162c57602002820191906000526020600020905b8160009054906101000a900473ffffffffffffffffffffffffffffffffffffffff1673ffffffffffffffffffffffffffffffffffffffff16815260200190600101908083116115e2575b5050505050915061163c336102f9565b9050600260003373ffffffffffffffffffffffffffffffffffffffff1673ffffffffffffffffffffffffffffffffffffffff1681526020019081526020016000206005015492509091929394959697565b600082116116d0576040517f08c379a00000000000000000000000000000000000000000000000000000000081526004016116c790613f3a565b60405180910390fd5b600083101580156116e5575060098054905083105b611724576040517f08c379a000000000000000000000000000000000000000000000000000000000815260040161171b90613fba565b60405180910390fd5b600082905083600260003373ffffffffffffffffffffffffffffffffffffffff1673ffffffffffffffffffffffffffffffffffffffff1681526020019081526020016000206002018054905011156117d657600260003373ffffffffffffffffffffffffffffffffffffffff1673ffffffffffffffffffffffffffffffffffffffff16815260200190815260200160002060020184815481106117c357fe5b9060005260206000200180549050810190505b60006117e3338684611982565b905060008060006117f386610f60565b9250925092506000611806858584611b6a565b90508034101561184b576040517f08c379a000000000000000000000000000000000000000000000000000000000815260040161184290613eda565b60405180910390fd5b611857338686856121f6565b803411156118a9573373ffffffffffffffffffffffffffffffffffffffff166108fc8234039081150290604051600060405180830381858888f193505050501580156118a7573d6000803e3d6000fd5b505b600a54601054106118bd576118bc6122c0565b5b505050505050505050565b60606000806000806118d986610f60565b92509250925081935060098054905067ffffffffffffffff811180156118fe57600080fd5b5060405190808252806020026020018201604052801561192d5781602001602082028036833780820191505090505b50945060005b6009805490508160ff161015611979576119518160ff1685846121b8565b868260ff168151811061196057fe5b6020026020010181815250508080600101915050611933565b50505050915091565b60606001830167ffffffffffffffff8111801561199e57600080fd5b506040519080825280602002602001820160405280156119cd5781602001602082028036833780820191505090505b50905060005b600184018160ff161015611b6257600260008673ffffffffffffffffffffffffffffffffffffffff1673ffffffffffffffffffffffffffffffffffffffff168152602001908152602001600020600201805490508160ff161015611b385782600260008773ffffffffffffffffffffffffffffffffffffffff1673ffffffffffffffffffffffffffffffffffffffff1681526020019081526020016000206002018260ff1681548110611a8257fe5b906000526020600020018054905010611ab7576000828260ff1681518110611aa657fe5b602002602001018181525050611b33565b600260008673ffffffffffffffffffffffffffffffffffffffff1673ffffffffffffffffffffffffffffffffffffffff1681526020019081526020016000206002018160ff1681548110611b0757fe5b90600052602060002001805490508303828260ff1681518110611b2657fe5b6020026020010181815250505b611b55565b82828260ff1681518110611b4857fe5b6020026020010181815250505b80806001019150506119d3565b509392505050565b600080600260003373ffffffffffffffffffffffffffffffffffffffff1673ffffffffffffffffffffffffffffffffffffffff1681526020019081526020016000206002018054905011611bf3576040517f08c379a0000000000000000000000000000000000000000000000000000000008152600401611bea90613f7a565b60405180910390fd5b6000905060008054906101000a900473ffffffffffffffffffffffffffffffffffffffff1673ffffffffffffffffffffffffffffffffffffffff163373ffffffffffffffffffffffffffffffffffffffff1614611d7157600080600090505b85518160ff161015611d6e57600091508060ff16600260003373ffffffffffffffffffffffffffffffffffffffff1673ffffffffffffffffffffffffffffffffffffffff168152602001908152602001600020600201805490501115611d1357600260003373ffffffffffffffffffffffffffffffffffffffff1673ffffffffffffffffffffffffffffffffffffffff1681526020019081526020016000206002018160ff1681548110611d0257fe5b906000526020600020018054905091505b60005b868260ff1681518110611d2557fe5b60200260200101518160ff161015611d60578060ff16830160020a611d4e8360ff1688886121b8565b02840193508080600101915050611d16565b508080600101915050611c52565b50505b9392505050565b60006004546003805490500190506003839080600181540180825580915050600190039060005260206000200160009091909190916101000a81548173ffffffffffffffffffffffffffffffffffffffff021916908373ffffffffffffffffffffffffffffffffffffffff16021790555080600260008573ffffffffffffffffffffffffffffffffffffffff1673ffffffffffffffffffffffffffffffffffffffff1681526020019081526020016000206000018190555081600260008573ffffffffffffffffffffffffffffffffffffffff1673ffffffffffffffffffffffffffffffffffffffff16815260200190815260200160002060010160006101000a81548173ffffffffffffffffffffffffffffffffffffffff021916908373ffffffffffffffffffffffffffffffffffffffff16021790555042600260008573ffffffffffffffffffffffffffffffffffffffff1673ffffffffffffffffffffffffffffffffffffffff1681526020019081526020016000206004018190555043600260008573ffffffffffffffffffffffffffffffffffffffff1673ffffffffffffffffffffffffffffffffffffffff16815260200190815260200160002060050181905550600260008373ffffffffffffffffffffffffffffffffffffffff1673ffffffffffffffffffffffffffffffffffffffff168152602001908152602001600020600301839080600181540180825580915050600190039060005260206000200160009091909190916101000a81548173ffffffffffffffffffffffffffffffffffffffff021916908373ffffffffffffffffffffffffffffffffffffffff160217905550505050565b600980549050600260008373ffffffffffffffffffffffffffffffffffffffff1673ffffffffffffffffffffffffffffffffffffffff16815260200190815260200160002060020180549050148061208a575060008054906101000a900473ffffffffffffffffffffffffffffffffffffffff1673ffffffffffffffffffffffffffffffffffffffff168173ffffffffffffffffffffffffffffffffffffffff16145b156121b557600e54600260008373ffffffffffffffffffffffffffffffffffffffff1673ffffffffffffffffffffffffffffffffffffffff168152602001908152602001600020600201600160098054905003815481106120e757fe5b906000526020600020018054905010158061214d575060008054906101000a900473ffffffffffffffffffffffffffffffffffffffff1673ffffffffffffffffffffffffffffffffffffffff168173ffffffffffffffffffffffffffffffffffffffff16145b156121b457600061215d826123b9565b9050600d548111156121b25781600c60006101000a81548173ffffffffffffffffffffffffffffffffffffffff021916908373ffffffffffffffffffffffffffffffffffffffff16021790555080600d819055505b505b5b50565b6000828260120160ff16600a0a600986815481106121d257fe5b90600052602060002090600202016000015402816121ec57fe5b0490509392505050565b60005b83518160ff1610156122b95760005b848260ff168151811061221757fe5b60200260200101518160ff1610156122ab576000808054906101000a900473ffffffffffffffffffffffffffffffffffffffff1673ffffffffffffffffffffffffffffffffffffffff168773ffffffffffffffffffffffffffffffffffffffff161461228f5761228c878460ff1687876124e9565b90505b61229d87828560ff166125b6565b508080600101915050612208565b5080806001019150506121f9565b5050505050565b6122f3600c60009054906101000a900473ffffffffffffffffffffffffffffffffffffffff166000600a54600080612acf565b60008054906101000a900473ffffffffffffffffffffffffffffffffffffffff16600c60006101000a81548173ffffffffffffffffffffffffffffffffffffffff021916908373ffffffffffffffffffffffffffffffffffffffff16021790555062093a80600b54420311612378576002600a600082825402925050819055506123a0565b6224ea00600b5442031061239f576002600a60008282548161239657fe5b04925050819055505b5b42600b819055506000600d819055506000601081905550565b6000805b600260008473ffffffffffffffffffffffffffffffffffffffff1673ffffffffffffffffffffffffffffffffffffffff168152602001908152602001600020600301805490508110156124e357600b5460026000600260008773ffffffffffffffffffffffffffffffffffffffff1673ffffffffffffffffffffffffffffffffffffffff168152602001908152602001600020600301848154811061245e57fe5b9060005260206000200160009054906101000a900473ffffffffffffffffffffffffffffffffffffffff1673ffffffffffffffffffffffffffffffffffffffff1673ffffffffffffffffffffffffffffffffffffffff1681526020019081526020016000206004015411156124d65781806001019250505b80806001019150506123bd565b50919050565b6000806000905084600260008873ffffffffffffffffffffffffffffffffffffffff1673ffffffffffffffffffffffffffffffffffffffff16815260200190815260200160002060020180549050111561259b57600260008773ffffffffffffffffffffffffffffffffffffffff1673ffffffffffffffffffffffffffffffffffffffff168152602001908152602001600020600201858154811061258a57fe5b906000526020600020018054905090505b8060020a6125aa8686866121b8565b02915050949350505050565b80600260008573ffffffffffffffffffffffffffffffffffffffff1673ffffffffffffffffffffffffffffffffffffffff16815260200190815260200160002060020180549050111561268757600260008473ffffffffffffffffffffffffffffffffffffffff1673ffffffffffffffffffffffffffffffffffffffff168152602001908152602001600020600201818154811061265057fe5b9060005260206000200160019080600181540180825580915050600190039060005260206000200160009091909190915055612711565b600260008473ffffffffffffffffffffffffffffffffffffffff1673ffffffffffffffffffffffffffffffffffffffff1681526020019081526020016000206002016040518060200160405280600160ff168152509080600181540180825580915050600190039060005260206000200160009091909190915090600161270f9291906136d5565b505b6001600260008573ffffffffffffffffffffffffffffffffffffffff1673ffffffffffffffffffffffffffffffffffffffff168152602001908152602001600020600201828154811061276057fe5b90600052602060002001805490501115612823578273ffffffffffffffffffffffffffffffffffffffff167f35a42fa7cd43201e9185480f67fe2066fe29007662da7ca0534721f17239a998600260008673ffffffffffffffffffffffffffffffffffffffff1673ffffffffffffffffffffffffffffffffffffffff16815260200190815260200160002060020183815481106127f957fe5b90600052602060002001805490508360405161281692919061408f565b60405180910390a261292e565b600260008473ffffffffffffffffffffffffffffffffffffffff1673ffffffffffffffffffffffffffffffffffffffff16815260200190815260200160002060010160009054906101000a900473ffffffffffffffffffffffffffffffffffffffff1673ffffffffffffffffffffffffffffffffffffffff168373ffffffffffffffffffffffffffffffffffffffff16600260008673ffffffffffffffffffffffffffffffffffffffff1673ffffffffffffffffffffffffffffffffffffffff168152602001908152602001600020600001547f422145007b4bd8541c28e0f237e5894ec3385a33f0adc0f42e02a97b5dfabccd846040516129259190613fda565b60405180910390a45b60008054906101000a900473ffffffffffffffffffffffffffffffffffffffff1673ffffffffffffffffffffffffffffffffffffffff168373ffffffffffffffffffffffffffffffffffffffff1614612aca57612a49600260008573ffffffffffffffffffffffffffffffffffffffff1673ffffffffffffffffffffffffffffffffffffffff16815260200190815260200160002060010160009054906101000a900473ffffffffffffffffffffffffffffffffffffffff1683600260008773ffffffffffffffffffffffffffffffffffffffff1673ffffffffffffffffffffffffffffffffffffffff1681526020019081526020016000206002018481548110612a3557fe5b906000526020600020018054905084612b70565b60016009805490500381148015612aba57506006600260008573ffffffffffffffffffffffffffffffffffffffff1673ffffffffffffffffffffffffffffffffffffffff1681526020019081526020016000206002018281548110612aaa57fe5b9060005260206000200180549050145b15612ac957612ac883611fe7565b5b5b505050565b8473ffffffffffffffffffffffffffffffffffffffff166108fc849081150290604051600060405180830381858888f19350505050158015612b15573d6000803e3d6000fd5b50838573ffffffffffffffffffffffffffffffffffffffff167f3fb6be6fde1c2353aebe4ddfbdfc13864771e1cbccfd55dc4dd9cb1070c90ad2858585604051612b61939291906140b8565b60405180910390a35050505050565b60006064600f54850281612b8057fe5b0490506000818503905060006064866008540281612b9a57fe5b0490506000612bab88878488613086565b905060008054906101000a900473ffffffffffffffffffffffffffffffffffffffff1673ffffffffffffffffffffffffffffffffffffffff168173ffffffffffffffffffffffffffffffffffffffff161415612ce45785600260008060009054906101000a900473ffffffffffffffffffffffffffffffffffffffff1673ffffffffffffffffffffffffffffffffffffffff1673ffffffffffffffffffffffffffffffffffffffff1681526020019081526020016000206002018681548110612c7057fe5b90600052602060002001805490501015612ce3576000612cb160008054906101000a900473ffffffffffffffffffffffffffffffffffffffff168789611982565b9050612ce160008054906101000a900473ffffffffffffffffffffffffffffffffffffffff1682600160006121f6565b505b5b612cef818787613448565b612cfd816001848989612acf565b600260008973ffffffffffffffffffffffffffffffffffffffff1673ffffffffffffffffffffffffffffffffffffffff16815260200190815260200160002060010160009054906101000a900473ffffffffffffffffffffffffffffffffffffffff169050818303925060005b600960016009805490500381548110612d7f57fe5b9060005260206000209060020201600101805490508160ff16101561306b5760008054906101000a900473ffffffffffffffffffffffffffffffffffffffff1673ffffffffffffffffffffffffffffffffffffffff168273ffffffffffffffffffffffffffffffffffffffff161415612e2e57612e2560008054906101000a900473ffffffffffffffffffffffffffffffffffffffff166002830160ff16868a8a612acf565b6000935061306b565b600080600190505b6009805490508160ff161015612fda5760098160ff1681548110612e5657fe5b9060005260206000209060020201600101805490508360ff161015612fcd5760648a60098360ff1681548110612e8857fe5b90600052602060002090600202016001018560ff1681548110612ea757fe5b90600052602060002001540281612eba57fe5b0494506001600960016009805490500381548110612ed457fe5b906000526020600020906002020160010180549050038360ff16148015612efa57508585115b15612f0b5785945060009550612f11565b84860395505b8060ff166001600260008773ffffffffffffffffffffffffffffffffffffffff1673ffffffffffffffffffffffffffffffffffffffff168152602001908152602001600020600201805490500310612f6d578482019150612fcc565b8373ffffffffffffffffffffffffffffffffffffffff167f330b935365d99a346b11ce634c02de10d387034134f883f299ea249786e9c738600285018b888c86604051612fbe959493929190614185565b60405180910390a284870196505b5b8080600101915050612e36565b506000811115612ff857612ff7836002840160ff16838b8b612acf565b5b600260008473ffffffffffffffffffffffffffffffffffffffff1673ffffffffffffffffffffffffffffffffffffffff16815260200190815260200160002060010160009054906101000a900473ffffffffffffffffffffffffffffffffffffffff169250508080600101915050612d6a565b50836010600082825401925050819055505050505050505050565b60008060009054906101000a900473ffffffffffffffffffffffffffffffffffffffff1673ffffffffffffffffffffffffffffffffffffffff168573ffffffffffffffffffffffffffffffffffffffff1614156131055760008054906101000a900473ffffffffffffffffffffffffffffffffffffffff169050613440565b6000600260008773ffffffffffffffffffffffffffffffffffffffff1673ffffffffffffffffffffffffffffffffffffffff16815260200190815260200160002060010160009054906101000a900473ffffffffffffffffffffffffffffffffffffffff16905082600260008873ffffffffffffffffffffffffffffffffffffffff1673ffffffffffffffffffffffffffffffffffffffff1681526020019081526020016000206002018054905011156133d8576000600260008873ffffffffffffffffffffffffffffffffffffffff1673ffffffffffffffffffffffffffffffffffffffff168152602001908152602001600020600201848154811061320857fe5b906000526020600020018054905090508581111561324e5761322b8787866135e2565b613239578692505050613440565b61324582878787613086565b92505050613440565b8581141561336b576132618787866135e2565b1561327b5761327282878787613086565b92505050613440565b600654600260008973ffffffffffffffffffffffffffffffffffffffff1673ffffffffffffffffffffffffffffffffffffffff16815260200190815260200160002060020185815481106132cb57fe5b9060005260206000200160018803815481106132e357fe5b906000526020600020015410156132fe578692505050613440565b8673ffffffffffffffffffffffffffffffffffffffff167f330b935365d99a346b11ce634c02de10d387034134f883f299ea249786e9c7386001888888600060405161334e959493929190613e87565b60405180910390a261336282878787613086565b92505050613440565b8673ffffffffffffffffffffffffffffffffffffffff167f330b935365d99a346b11ce634c02de10d387034134f883f299ea249786e9c738600188888860006040516133bb959493929190613e87565b60405180910390a26133cf82878787613086565b92505050613440565b8573ffffffffffffffffffffffffffffffffffffffff167f330b935365d99a346b11ce634c02de10d387034134f883f299ea249786e9c73860018787876000604051613428959493929190613e87565b60405180910390a261343c81868686613086565b9150505b949350505050565b7fffffffffffffffffffffffffffffffffffffffffffffffffffffffffffffffff600260008573ffffffffffffffffffffffffffffffffffffffff1673ffffffffffffffffffffffffffffffffffffffff16815260200190815260200160002060020182815481106134b657fe5b9060005260206000200160018403815481106134ce57fe5b9060005260206000200154101561356357600260008473ffffffffffffffffffffffffffffffffffffffff1673ffffffffffffffffffffffffffffffffffffffff168152602001908152602001600020600201818154811061352c57fe5b90600052602060002001600183038154811061354457fe5b90600052602060002001600081548092919060010191905055506135dd565b600160065401600260008573ffffffffffffffffffffffffffffffffffffffff1673ffffffffffffffffffffffffffffffffffffffff16815260200190815260200160002060020182815481106135b657fe5b9060005260206000200160018403815481106135ce57fe5b90600052602060002001819055505b505050565b600060075460016007546001600260008973ffffffffffffffffffffffffffffffffffffffff1673ffffffffffffffffffffffffffffffffffffffff168152602001908152602001600020600201868154811061363b57fe5b90600052602060002001600188038154811061365357fe5b9060005260206000200154038161366657fe5b060114156136ce57613679848484613448565b8373ffffffffffffffffffffffffffffffffffffffff167f7c8a861c4df6814b1d1b6217c8ebd8bfd3a86ae7e26b8531f12571a0a025f87b84846040516136c192919061408f565b60405180910390a2600190505b9392505050565b828054828255906000526020600020908101928215613716579160200282015b82811115613715578251829060ff169055916020019190600101906136f5565b5b5090506137239190613727565b5090565b5b80821115613740576000816000905550600101613728565b5090565b60008135905061375381614306565b92915050565b6000815190506137688161431d565b92915050565b60008135905061377d81614334565b92915050565b60008151905061379281614334565b92915050565b6000813590506137a781614362565b92915050565b6000815190506137bc81614362565b92915050565b6000815190506137d18161434b565b92915050565b6000602082840312156137e957600080fd5b60006137f784828501613744565b91505092915050565b6000806040838503121561381357600080fd5b600061382185828601613744565b92505060206138328582860161376e565b9150509250929050565b60008060006060848603121561385157600080fd5b600061385f8682870161376e565b93505060206138708682870161376e565b925050604061388186828701613798565b9150509250925092565b60006020828403121561389d57600080fd5b60006138ab84828501613798565b91505092915050565b600080600080600060a086880312156138cc57600080fd5b60006138da888289016137ad565b95505060206138eb88828901613759565b94505060406138fc88828901613783565b935050606061390d88828901613783565b925050608061391e888289016137ad565b9150509295509295909350565b60006020828403121561393d57600080fd5b600061394b848285016137c2565b91505092915050565b60006139608383613984565b60208301905092915050565b60006139788383613d23565b60208301905092915050565b61398d8161425b565b82525050565b61399c8161425b565b82525050565b60006139ad826141f8565b6139b78185614228565b93506139c2836141d8565b8060005b838110156139f35781516139da8882613954565b97506139e58361420e565b9250506001810190506139c6565b5085935050505092915050565b6000613a0b82614203565b613a158185614239565b9350613a20836141e8565b8060005b83811015613a51578151613a38888261396c565b9750613a438361421b565b925050600181019050613a24565b5085935050505092915050565b613a678161426d565b82525050565b613a76816142d0565b82525050565b613a85816142e2565b82525050565b6000613a9860198361424a565b91507f596f752073656e74206e6f7420656e6f75676820636f696e73000000000000006000830152602082019050919050565b6000613ad860518361424a565b91507f596f752073656e74206e6f7420656e6f75676820636f696e732e20457863686160008301527f6e6765207261746573206d61792068617665206368616e6765642073696e636560208301527f20746865206c617374207570646174652e0000000000000000000000000000006040830152606082019050919050565b6000613b6460228361424a565b91507f54686973206164647265737320697320616c726561647920726567697374657260008301527f65640000000000000000000000000000000000000000000000000000000000006020830152604082019050919050565b6000613bca601b8361424a565b91507f4c6576656c206861766520746f2062652061626f7665207a65726f00000000006000830152602082019050919050565b6000613c0a60288361424a565b91507f596f752068617665206e6f2070726f6d697373696f6e20746f2074686973206f60008301527f7065726174696f6e0000000000000000000000000000000000000000000000006020830152604082019050919050565b6000613c70601e8361424a565b91507f5468652061646472657373206973206e6f7420726567697374657265642e00006000830152602082019050919050565b6000613cb060108361424a565b91507f57726f6e672073706f6e736f72204944000000000000000000000000000000006000830152602082019050919050565b6000613cf0601b8361424a565b91507f57726f6e67206d61726b6574696e6720706c616e206e756d62657200000000006000830152602082019050919050565b613d2c816142a3565b82525050565b613d3b816142a3565b82525050565b613d4a816142ba565b82525050565b613d59816142f4565b82525050565b613d68816142ad565b82525050565b6000602082019050613d836000830184613993565b92915050565b600060e082019050613d9e600083018a613993565b613dab6020830189613d32565b613db86040830188613d32565b613dc56060830187613d32565b613dd26080830186613d32565b613ddf60a0830185613d32565b613dec60c0830184613d32565b98975050505050505050565b60006020820190508181036000830152613e1281846139a2565b905092915050565b60006020820190508181036000830152613e348184613a00565b905092915050565b60006040820190508181036000830152613e568185613a00565b9050613e656020830184613d41565b9392505050565b6000602082019050613e816000830184613a5e565b92915050565b600060a082019050613e9c6000830188613a7c565b613ea96020830187613d32565b613eb66040830186613d32565b613ec36060830185613d32565b613ed06080830184613a6d565b9695505050505050565b60006020820190508181036000830152613ef381613a8b565b9050919050565b60006020820190508181036000830152613f1381613acb565b9050919050565b60006020820190508181036000830152613f3381613b57565b9050919050565b60006020820190508181036000830152613f5381613bbd565b9050919050565b60006020820190508181036000830152613f7381613bfd565b9050919050565b60006020820190508181036000830152613f9381613c63565b9050919050565b60006020820190508181036000830152613fb381613ca3565b9050919050565b60006020820190508181036000830152613fd381613ce3565b9050919050565b6000602082019050613fef6000830184613d32565b92915050565b60006101008201905061400b600083018b613d32565b818103602083015261401d818a613a00565b905081810360408301526140318189613a00565b905081810360608301526140458188613a00565b90506140546080830187613d32565b61406160a0830186613d32565b81810360c083015261407381856139a2565b905061408260e0830184613d32565b9998505050505050505050565b60006040820190506140a46000830185613d32565b6140b16020830184613d32565b9392505050565b60006060820190506140cd6000830186613d32565b6140da6020830185613d32565b6140e76040830184613d32565b949350505050565b60006060820190506141046000830186613d32565b6141116020830185613d41565b61411e6040830184613d5f565b949350505050565b600060408201905061413b6000830185613d32565b6141486020830184613d50565b9392505050565b60006020820190506141646000830184613d41565b92915050565b600060208201905061417f6000830184613d50565b92915050565b600060a08201905061419a6000830188613d50565b6141a76020830187613d32565b6141b46040830186613d32565b6141c16060830185613d32565b6141ce6080830184613d50565b9695505050505050565b6000819050602082019050919050565b6000819050602082019050919050565b600081519050919050565b600081519050919050565b6000602082019050919050565b6000602082019050919050565b600082825260208201905092915050565b600082825260208201905092915050565b600082825260208201905092915050565b600061426682614283565b9050919050565b60008115159050919050565b6000819050919050565b600073ffffffffffffffffffffffffffffffffffffffff82169050919050565b6000819050919050565b600060ff82169050919050565b600069ffffffffffffffffffff82169050919050565b60006142db826142a3565b9050919050565b60006142ed826142a3565b9050919050565b60006142ff826142ad565b9050919050565b61430f8161425b565b811461431a57600080fd5b50565b61432681614279565b811461433157600080fd5b50565b61433d816142a3565b811461434857600080fd5b50565b614354816142ad565b811461435f57600080fd5b50565b61436b816142ba565b811461437657600080fd5b5056fea264697066735822122000711c607bbb92ac24dfd2599b2d142e228c367f04b7573d7968e2df484312cf64736f6c63430007060033",
  "immutableReferences": {},
  "source": "// SPDX-License-Identifier: GPL-3.0\r\n\r\npragma solidity >=0.7.0 <0.9.0;\r\npragma abicoder v2;\r\n\r\n// import not working on wondows \"File import callback not supported\" error\r\nimport \"../node_modules/@chainlink/contracts/src/v0.7/interfaces/AggregatorV3Interface.sol\";\r\n\r\ncontract CryptoLife {\r\n    \r\n    address private owner; // An owner's address\r\n    \r\n    // A marketing plan struture\r\n\r\n    struct MP {\r\n        uint registrationPrice;\r\n        uint[] leaderBonusLevels;\r\n    }\r\n\r\n    // A partner structure\r\n    struct Partner {\r\n        uint id; // An ID of the partner\r\n        address sponsorAddress; // A sponsor's address\r\n        uint[][] level; // An array of a next slot numbers for each level of all marketing plans\r\n        address[] referals; // An array of a direct referals\r\n        uint registrationDate; // A registration date timestamp\r\n        uint registrationBlockNumber; // A registration block number\r\n    }\r\n\r\n    // Coin price reciver\r\n    AggregatorV3Interface internal priceFeed;\r\n\r\n    // A list of partners\r\n    mapping (address => Partner) private partners; \r\n\r\n    // An array of IDs for a short referal links\r\n    address[] private shortIdForLinks;\r\n\r\n    // An ID prefix  \r\n    uint private prefID = 1; \r\n\r\n    // A list of a bounuses in persents\r\n    uint[] private leaderBonusLevels; \r\n\r\n    // Number of slots to a next-level upgrade\r\n    uint private slotsPerLevel;\r\n\r\n     // Number of slots in a level's pool \r\n    uint private slotsPerPool;\r\n\r\n    // A direct bonus or the slots\r\n    uint private directBonus;\r\n\r\n    // A list of marketing plans\r\n    MP[] private marketingPlans; \r\n\r\n    // A summ to collect and pay out to a Top Leader\r\n    uint private topLeaderBonusSumm;\r\n\r\n    // A date and time when a current Top Leader bonus collection started\r\n    uint private topLeaderStartDate;\r\n\r\n    // A current Top Leader address\r\n    address private topLeaderAddress;\r\n\r\n    // A current Top Leader Result\r\n    uint private topLeaderResult;\r\n\r\n    // A minimum level required to become a Top Leader\r\n    uint private topLeaderMinimumLevel;\r\n\r\n    // A Top Leader colletction fee\r\n    uint private topLeaderBonusFee;\r\n\r\n    // A Top Leadr Bonus collected summ\r\n    uint private topLeaderBonusCollectedSumm = 0;\r\n\r\n    // A registration event\r\n    event registration (\r\n        uint indexed partnerID, \r\n        address indexed partnerAddress, \r\n        address indexed sponsorAddress,\r\n        uint mp\r\n    );\r\n    \r\n    // A level up event\r\n    event levelUp (\r\n        address indexed partnerAddress, \r\n        uint level,\r\n        uint mp\r\n    );\r\n    \r\n    // A bonus paid out event\r\n    event bonusPaidOut (\r\n        address indexed partnerAddress,\r\n        uint indexed bonusType, \r\n        uint amount,\r\n        uint level,\r\n        uint mp\r\n    );\r\n\r\n    // A pool reopened  event\r\n    event poolIsReopened (\r\n        address indexed partnerAddress, \r\n        uint level,\r\n        uint mp\r\n    );\r\n    \r\n    // A missed bonus event\r\n    event missingBounus (\r\n        address indexed partnerAddress, \r\n        uint bonusType,\r\n        uint level,\r\n        uint amount,\r\n        uint mp,\r\n        uint bonusMp\r\n    );\r\n\r\n    event test (\r\n        uint price,\r\n        uint sendAmount);\r\n\r\n    event test2 (\r\n        uint notReceived,\r\n        uint leftToPay\r\n       );\r\n\r\n   \r\n    // The only registered partners allowed modifier\r\n    modifier onlyRegistered {\r\n        \r\n        // hecking that the address is registered\r\n        require( partners[msg.sender].level.length > 0, \"The address is not registered.\");\r\n        \r\n        _;\r\n\r\n    }\r\n    \r\n    // The only owner allowed modifier\r\n    modifier onlyOwner {\r\n        \r\n        // Check owner's address\r\n        require(msg.sender == owner, \"You have no promission to this operation\");\r\n        \r\n        _;\r\n    }\r\n\r\n    \r\n    constructor (){\r\n\r\n\r\n        // Coin price resiver activation\r\n\r\n        // BNB/USD testnet address 0x2514895c72f50D8bd4B4F9b1110F0D6bD2c97526\r\n        // BNB/USD mainnet address 0x0567F2323251f0Aab15c8dFb1967E4e8A7D42aeE\r\n\r\n        priceFeed = AggregatorV3Interface(0x2514895c72f50D8bd4B4F9b1110F0D6bD2c97526);\r\n        \r\n        // Initiation of a matrix rules\r\n        \r\n        owner = msg.sender; // The owner is a contract sender\r\n\r\n        slotsPerPool = 3; // A pool on each level has three slots\r\n        slotsPerLevel = 9; // Each level has three free pools with three slots each\r\n        \r\n\r\n        // initiate a marketing plans\r\n        MP memory mp;\r\n        marketingPlans.push(mp);\r\n        marketingPlans.push(mp);\r\n        marketingPlans.push(mp);\r\n    \r\n        // Set a Top Leader bounus fee in percents \r\n        topLeaderBonusFee = 5;\r\n\r\n        // Set a bonus for selling a slots in percents \r\n        directBonus = 75;\r\n\r\n        // Set network bounuses for the 3rd marketing plan in percents \r\n        \r\n        // Set an additional bonus for purchases of partners of the 2nd level of depth\r\n        marketingPlans[2].leaderBonusLevels.push(3); \r\n        \r\n        // Set an additional bonus for purchases of partners of the 3rd level of depth\r\n        marketingPlans[2].leaderBonusLevels.push(3);\r\n        \r\n        // Set a bonus for purchases of partners of the 4th level of depth\r\n        marketingPlans[2].leaderBonusLevels.push(3); \r\n        \r\n        // Set a bonus for purchases of partners of the 5th level of depth\r\n        marketingPlans[2].leaderBonusLevels.push(2); \r\n        \r\n        // Set a bonus for purchases of partners of the 6th level of depth\r\n        marketingPlans[2].leaderBonusLevels.push(2); \r\n\r\n        // Set network bonuses for the 2nd marketing plan in percents \r\n\r\n        // Set a bonus for purchases of partners of the 2nd level of depth\r\n        marketingPlans[1].leaderBonusLevels.push(5); \r\n        \r\n        // Set a bonus for purchases of partners of the 3rd level of depth\r\n        marketingPlans[1].leaderBonusLevels.push(2);\r\n\r\n        // No network bonuses for the 1st marketing plan\r\n\r\n        \r\n        // Set fixed prices of marketing plans in USD\r\n\r\n        // Registration price of the 1st marketing plan\r\n        marketingPlans[0].registrationPrice = 10;\r\n\r\n        // Registration price of the 2nd marketing plan\r\n        marketingPlans[1].registrationPrice = 40;\r\n\r\n        // Registration price  of the 3rd marketing plan\r\n        marketingPlans[2].registrationPrice = 200;\r\n\r\n        // Add short link to owner\r\n        shortIdForLinks.push(owner);\r\n\r\n        // Set the owner as a first partner\r\n        Partner memory p; \r\n        partners[owner] = p;\r\n        \r\n         // Set the owner's ID\r\n        partners[owner].id = prefID;\r\n\r\n        // Set the owner's registration date \r\n        partners[owner].registrationDate = block.timestamp;\r\n\r\n        // Set the owner's registration block number\r\n        partners[owner].registrationBlockNumber = block.number;\r\n\r\n        // Set the owner sponsored by himself\r\n        partners[owner].sponsorAddress = owner;\r\n\r\n        // Set the owner's levels of each marketing plan\r\n\r\n        // Loop marketing plans\r\n        for (uint8 i = 0; i < marketingPlans.length; i++){\r\n\r\n            // Activating the owner's current marketing plan\r\n            partners[owner].level.push([1]);\r\n        }\r\n\r\n        // Call the reistration event\r\n        emit registration(partners[owner].id, owner, owner, 0);\r\n\r\n        // Call the second marketing plan activation event\r\n        emit registration(partners[owner].id, owner, owner, 1);\r\n\r\n        // Call the third marketing plan activation event\r\n        emit registration(partners[owner].id, owner, owner, 2);\r\n\r\n        // Set the Top Leader bonus summ\r\n        topLeaderBonusSumm = 0.1 ether;\r\n\r\n        // Set the colection start date\r\n        topLeaderStartDate = block.timestamp;\r\n\r\n        // Set the current Top Leader\r\n        topLeaderAddress = owner;\r\n\r\n        // Set the current Top Leader result\r\n        topLeaderResult = 0;\r\n\r\n        // Set the minimum level requerement\r\n        topLeaderMinimumLevel = 6;\r\n    }\r\n    \r\n   \r\n    // Level up the partner\r\n    function partnerLevelUp(uint mp, uint level, uint80 roundID) payable public { \r\n\r\n        // Check a levels number to up         \r\n        require(level > 0, \"Level have to be above zero\");\r\n\r\n        // Check a marketing plan number\r\n        require (mp >= 0 && mp < marketingPlans.length, \"Wrong marketing plan number\");\r\n\r\n        // A next level number varable\r\n        uint nextMPLevel = level ;\r\n\r\n        // A required marketing plan activation check\r\n        if (partners[msg.sender].level.length > mp){\r\n\r\n            // The required marketing plan is active\r\n\r\n            // Increase the next level by current marketing plan levels number\r\n            nextMPLevel += partners[msg.sender].level[mp].length;\r\n\r\n        }\r\n\r\n        // Set array of a required level ups on each marketing plan to level up current\r\n        uint[] memory requiredLevels = getRequiredLevels(msg.sender, mp, nextMPLevel);\r\n\r\n        // Get the current exchange rate\r\n        (\r\n            uint exchangeRate,\r\n            uint80 newRoundID,\r\n            uint8 decimals // The number of decimals in the current exchange rate.\r\n        )=getExchangeRate(roundID);\r\n      \r\n        // Set the level up price\r\n        uint levelPrice = nextLevelPrice(requiredLevels, exchangeRate, decimals);\r\n            \r\n        // Check that the sent summ is enough\r\n        require(msg.value >= levelPrice, \"You sent not enough coins\");\r\n\r\n        // Level up the partner\r\n        upPartnerLevels(msg.sender, requiredLevels, exchangeRate, decimals);\r\n\r\n        // Check the operation balence\r\n        if ( msg.value > levelPrice) {\r\n\r\n            // The balance above the zero\r\n                \r\n            // Return the balace to the sender\r\n            payable(msg.sender).transfer(msg.value - levelPrice);\r\n        }   \r\n\r\n        // Check if a Top Leader bonus summ reached\r\n        if (topLeaderBonusCollectedSumm >= topLeaderBonusSumm) {\r\n\r\n            // The Top Leader Bonus is coolected and ready to be paid\r\n\r\n            // Pay the bonus to the Partner\r\n            topLeaderBonusPay(); \r\n       \r\n        }  \r\n                \r\n    }\r\n        \r\n    // A new partner registration\r\n    function registerNewPartner (uint sponsorID, uint mp, uint80 roundID) payable public {\r\n\r\n        // hecking that the address is not registered\r\n        require (partners[msg.sender].id == 0, \"This address is already registered\"); \r\n\r\n        // Check a marketing plan number\r\n        require(mp >= 0 && mp < marketingPlans.length, \"Wrong marketing plan number\");\r\n\r\n        // Check a sponsor ID \r\n        require( sponsorID > 0 && sponsorID < type(uint).max, \"Wrong sponsor ID\");\r\n       \r\n        // Set the registration cost\r\n        uint registrationCost = 0;\r\n\r\n        // Get the current exchange rate\r\n        (\r\n            uint exchangeRate,\r\n            uint80 newRoundID,\r\n            uint8 decimals // The number of decimals in the current exchange rate.\r\n        )=getExchangeRate(roundID);\r\n\r\n        // Loop marketing plans\r\n        for (uint8 i = 0; i<=mp; i++) {\r\n\r\n            // Increase the reistration cost by a current marketing plan registration price \r\n            registrationCost += getRegistrationPrice(i, exchangeRate, decimals);  \r\n\r\n        }\r\n           \r\n        // Check that the sent summ is enough\r\n        require(msg.value >= registrationCost, \"You sent not enough coins. Exchange rates may have changed since the last update.\");        \r\n        \r\n        // The owner is a sponsor of all registrations without or with a wrong sponsors ID\r\n        address sponsorAddress = owner; \r\n\r\n        // Correct sponsor ID \r\n        uint sponsorIDcorrected = sponsorID - prefID;\r\n        \r\n        // Check a corrected sponsor's ID\r\n        if ( sponsorIDcorrected  > 0 && sponsorIDcorrected < shortIdForLinks.length) {\r\n            \r\n            // Recive an sponsor's address from the short links list\r\n            sponsorAddress = shortIdForLinks[sponsorIDcorrected]; \r\n        }\r\n\r\n        // New Partner creation \r\n        createNewPartner(msg.sender, sponsorAddress);\r\n\r\n        // Check and udate a Top Leader status\r\n        topLeaderCheck(sponsorAddress);\r\n\r\n        // Set array of a required level ups on each marketing plan to level up \r\n        uint[] memory requiredLevels = getRequiredLevels(msg.sender, mp, 1);           \r\n        \r\n        // Level up the partner\r\n        upPartnerLevels(msg.sender, requiredLevels, exchangeRate, decimals);      \r\n\r\n        // A balance after registration\r\n        uint balance = msg.value - registrationCost;\r\n\r\n        // Check the operation balence\r\n        if ( balance > 0) {\r\n            \r\n            // Return the balace to the sender\r\n            payable(msg.sender).transfer(balance);\r\n        }\r\n\r\n        // Check if a Top Leader bonus summ reached\r\n        if (topLeaderBonusCollectedSumm >= topLeaderBonusSumm) {\r\n\r\n            // The Top Leader Bonus is coolected and ready to be paid\r\n\r\n            // Pay the bonus to the Partner\r\n            topLeaderBonusPay(); \r\n       \r\n        }  \r\n           \r\n    }\r\n\r\n    // Get the current exchange rate by round ID\r\n    function getExchangeRate(uint80 roundID) public view returns(uint exchangeRate, uint80 newRoundID, uint8 decimals) {\r\n\r\n        (\r\n            uint80 lastRoundID, \r\n            int lastPrice,\r\n            uint lastStartedAt,\r\n            uint lastTimeStamp,\r\n            uint80 lastAnsweredInRound\r\n        ) = priceFeed.latestRoundData();\r\n\r\n        exchangeRate = uint(lastPrice);\r\n        newRoundID = lastRoundID;\r\n\r\n        if (roundID != 0){\r\n\r\n            (\r\n                uint80 id, \r\n                int price,\r\n                uint startedAt,\r\n                uint timeStamp,\r\n                uint80 answeredInRound\r\n            ) = priceFeed.getRoundData(roundID);\r\n\r\n            if (timeStamp > lastTimeStamp + 2*1 minutes) {\r\n\r\n                exchangeRate = uint(price);\r\n                newRoundID = roundID;                \r\n            }\r\n        }\r\n        decimals = priceFeed.decimals();\r\n    }   \r\n    \r\n    // Check for registration\r\n    function isRegistered () \r\n        public \r\n        view \r\n        returns (bool) {\r\n                \r\n        // Returns true if ID is setted\r\n        return partners[msg.sender].id>0;\r\n    } \r\n\r\n    // Get the current registration prices by round ID\r\n    function getRegistrationPrices (uint80 roundID) public view returns (uint[] memory registrationPrices, uint80 newRoundID){\r\n\r\n        // Get the current exchange rate\r\n        (\r\n            uint exchangeRate, // The current exchange rate\r\n            uint80 currentRoundID,  // A new round ID\r\n            uint8 decimals // The number of decimals in the current exchange rate\r\n        )=getExchangeRate(roundID); \r\n\r\n        // Set the new round ID\r\n        newRoundID = currentRoundID;\r\n\r\n        // Set the length of the registration prices array equal to the marketing plans number \r\n        registrationPrices = new uint[](marketingPlans.length);\r\n\r\n        // Loop marketing plans\r\n        for (uint8 i = 0; i <marketingPlans.length; i++){\r\n\r\n            // Set current price\r\n            registrationPrices[i] = getRegistrationPrice(i, exchangeRate, decimals);\r\n        }\r\n    }   \r\n    \r\n    // Get a list of the partners who were sponsored by the address of the partner\r\n    function getReferals(address partnerAddress) \r\n        public \r\n        view \r\n        onlyRegistered \r\n        returns ( address[] memory) {\r\n \r\n        // Return the partner's referals list  \r\n        return partners[partnerAddress].referals;\r\n    }\r\n\r\n    // Count members in the partner's network\r\n    function getNetworkCount(address partnerAddress)\r\n        public\r\n        view\r\n        onlyRegistered\r\n        returns(uint count) {\r\n        \r\n        // Count referals\r\n        count = partners[partnerAddress].referals.length;\r\n\r\n        // Loop referals\r\n        for(uint8 i = 0; i < partners[partnerAddress].referals.length; i++)  {\r\n\r\n            // Add referal's network count\r\n            count += getNetworkCount(partners[partnerAddress].referals[i]);\r\n        }      \r\n    }\r\n\r\n    // Get Next level prices\r\n    function getNextLevelPrices(uint80 roundID) \r\n        public \r\n        view \r\n        onlyRegistered \r\n        returns (\r\n            uint[] memory nextLevelPrices\r\n            ){\r\n\r\n        nextLevelPrices = new uint[](marketingPlans.length);\r\n        for(uint8 i = 0; i< nextLevelPrices.length; i++){\r\n\r\n            // Set a next level number of the current marketing plan\r\n            uint nextLevel = 1;\r\n\r\n            // Check the current marketing plan activation\r\n            if (partners[msg.sender].level.length > i){\r\n\r\n                // The marketing plan is active\r\n\r\n                // Increase the next level number by the level of the current marketing plan\r\n                nextLevel += partners[msg.sender].level[i].length;\r\n            }\r\n\r\n            // Get the current exchange rate\r\n            (\r\n                uint exchangeRate,\r\n                uint80 newRoundID,\r\n                uint8 decimals // The number of decimals in the current exchange rate\r\n            )=getExchangeRate(roundID);\r\n\r\n            // Return a price of a level ups to the current level number of the current marketing plan \r\n            nextLevelPrices[i] = nextLevelPrice(getRequiredLevels(msg.sender, i, nextLevel), exchangeRate, decimals);\r\n\r\n        }\r\n    } \r\n\r\n    // Get account data\r\n    function getMyData() \r\n        public \r\n        view \r\n        onlyRegistered \r\n        returns (\r\n            uint id, \r\n            uint[] memory level,\r\n            uint[] memory level1,\r\n            uint[] memory level2,\r\n            uint registrationDate,\r\n            uint blockNumber, \r\n            address[] memory referals, \r\n            uint network\r\n            ) {\r\n\r\n        id = partners[msg.sender].id;\r\n        level = partners[msg.sender].level[0];\r\n        if (partners[msg.sender].level.length>1) {\r\n            level1 = partners[msg.sender].level[1];\r\n            if (partners[msg.sender].level.length>2)\r\n            {\r\n                level2 = partners[msg.sender].level[2];\r\n            }\r\n        }\r\n                        \r\n        registrationDate = partners[msg.sender].registrationDate;\r\n        referals = partners[msg.sender].referals;\r\n        network = getNetworkCount(msg.sender);\r\n        blockNumber = partners[msg.sender].registrationBlockNumber;\r\n    }\r\n\r\n    // Get the current Top Leader status\r\n    function getTopLeaderData() \r\n        public \r\n        view \r\n        returns (\r\n            address topLeader,\r\n            uint balance,\r\n            uint bonusSumm,\r\n            uint result,\r\n            uint delta,\r\n            uint mp,\r\n            uint minimumLevel\r\n            ) {\r\n\r\n        // Return an address of the Top Leader\r\n        topLeader = topLeaderAddress;\r\n\r\n        // Return Top Leader collected summ\r\n        balance = topLeaderBonusCollectedSumm;\r\n\r\n        // Return summ of the Top Leader bonus\r\n        bonusSumm = topLeaderBonusSumm;\r\n\r\n        // Return result of the Top Leader\r\n        result = topLeaderResult;\r\n\r\n        // Return delta between results of the Top Leader and a message sender\r\n        delta = getSuitableReferalsNumber (msg.sender);\r\n\r\n        // Return number of the reuired activated marketing plan\r\n        mp = marketingPlans.length-1;\r\n\r\n        // Return minimum required marketing plan level \r\n        minimumLevel = topLeaderMinimumLevel;\r\n    }\r\n\r\n    // Registration under special conditions\r\n    function marketingReg(address partnerAddress, uint level) public onlyOwner {\r\n\r\n        // New Partner creation\r\n        createNewPartner(partnerAddress, owner);\r\n\r\n        // New Partner levels up\r\n        // Loop marketing plans\r\n        for (uint8 i = 0; i < marketingPlans.length; i++){\r\n\r\n            // Activate current marketing plan\r\n            partners[partnerAddress].level.push([1]);\r\n\r\n            // Loop required levels count\r\n            for (uint8 k = 0; k < level-1; k++){\r\n\r\n                // Level up Partner's current marketing plan\r\n                partners[partnerAddress].level[i].push(1);\r\n                \r\n                // Call the level up event\r\n                emit levelUp (\r\n                partnerAddress, \r\n                partners[partnerAddress].level[i].length,\r\n                i\r\n                );                  \r\n            }\r\n\r\n            // Call the reistration event \r\n            emit registration (\r\n                partners[partnerAddress].id, \r\n                partnerAddress, \r\n                owner,\r\n                i\r\n                );\r\n        }\r\n\r\n        // Update Top Leader information if necessary \r\n        topLeaderCheck(owner);\r\n    }\r\n\r\n    // Get a required number of level ups of each marketing plan to \r\n    // level up current marketin plan to requested level\r\n    function getRequiredLevels (address partnerAddress, uint mp, uint level) \r\n        private \r\n        view \r\n        returns (uint[] memory requiredLevels) {\r\n\r\n        // Initiate a required levels array with length equals to the marketing plans count \r\n        requiredLevels = new uint[](mp+1);\r\n\r\n        // Loop marketing plans of the Partner\r\n        for (uint8 i = 0; i < mp + 1 ; i++){\r\n\r\n            // Check for the marketing plan activation\r\n            if (i < partners[partnerAddress].level.length){\r\n\r\n                // The Marketiong plan is active\r\n\r\n                // Check for the level of the current marketing plan\r\n                if (partners[partnerAddress].level[i].length >= level){\r\n\r\n                    // The level if equal or higher then required\r\n\r\n                    // Zero level ups of the current marketing plan is required\r\n                    requiredLevels[i] = 0;\r\n\r\n                } else {\r\n\r\n                    // The level of the current marketing plan is less then required\r\n\r\n                    // Return difference between curent and requested levels of \r\n                    // the current marketing plan \r\n                    requiredLevels[i] = level - partners[partnerAddress].level[i].length;\r\n                }\r\n            } else {\r\n\r\n                // The marketing plan is not active\r\n\r\n                // Required number of the level ups of the current marketing plan is equal to \r\n                // the required level    \r\n                requiredLevels[i] = level;\r\n            }\r\n\r\n        }\r\n    }\r\n\r\n    // Get number of referals invited after current Top Leader counting started\r\n    function getSuitableReferalsNumber (address partnerAddress) private  view returns (uint count) {\r\n\r\n        // Counter for a number of suitable referals \r\n        count = 0;\r\n\r\n        // Loop referals of the partner registered after the start date of current Top Leader counting \r\n        for (uint i = 0; i< partners[partnerAddress].referals.length; i++){\r\n\r\n            if (partners[partners[partnerAddress].referals[i]].registrationDate > topLeaderStartDate){\r\n            \r\n                // Increment the counter\r\n                count++;\r\n\r\n            }\r\n\r\n        }        \r\n    }\r\n\r\n    // Check and update curunt Top Leader\r\n    function topLeaderCheck (address partnerAddress) private {\r\n\r\n        // The last marketing plan activation check\r\n        if (partners[partnerAddress].level.length == marketingPlans.length || partnerAddress == owner) {\r\n\r\n            // Partner level check\r\n            if (partners[partnerAddress].level[marketingPlans.length-1].length >= topLeaderMinimumLevel || partnerAddress == owner) {\r\n\r\n                // Set a prtner's result to compare\r\n                uint suitableRaferalsNumber = getSuitableReferalsNumber(partnerAddress);\r\n\r\n               // Best result check\r\n                if (suitableRaferalsNumber> topLeaderResult){\r\n\r\n                    // Update the Top Leader address\r\n                    topLeaderAddress = partnerAddress;\r\n\r\n                    // Update the Top Leader result\r\n                    topLeaderResult = suitableRaferalsNumber;\r\n                }\r\n            }\r\n        }    \r\n    }\r\n\r\n    // The levels up function\r\n    function upPartnerLevels (address partnerAddress, uint[] memory requiredLevels, uint exchangeRate, uint8 decimals) private {\r\n\r\n        // The current level of the current marketing plan can't be less\r\n        // then a previos marketing plan level\r\n        // A level up procedure always starts from a first marketing plan and\r\n        // step by step go to current\r\n\r\n        // Loop reured marketing plans\r\n        for (uint8 i = 0; i < requiredLevels.length; i++) {\r\n\r\n            // Loop required levels of the current marketing plan to up\r\n            for(uint8 k = 0; k < requiredLevels[i]; k++) {\r\n\r\n                // Current level up price\r\n                uint price = 0;\r\n\r\n                // Check for owner\r\n                if (partnerAddress != owner){\r\n\r\n                    // The partner is not the owner\r\n\r\n                    // Set the current level up price\r\n                    price = levelUpPrice(partnerAddress, i, exchangeRate, decimals);\r\n                }\r\n                \r\n\r\n                // Level up the partner\r\n                upPartnerLevel(partnerAddress, price, i);\r\n            }\r\n        }\r\n    }\r\n    \r\n    // The level up execution procedure\r\n    function upPartnerLevel (address partnerAddress, uint price, uint mp) private {\r\n\r\n        // Check the current marketing plan activation        \r\n        if (partners[partnerAddress].level.length > mp) {\r\n\r\n            // The marketing plan is active\r\n\r\n            // Add a next slot number to the a level of the current marketing plan\r\n            partners[partnerAddress].level[mp].push(1);\r\n\r\n        } else {\r\n\r\n            // The marketing plan is not  active\r\n\r\n            // Activate the current marketing plan and add a next slot number of a first level\r\n            partners[partnerAddress].level.push([1]);\r\n\r\n        }\r\n        \r\n        // Is it registration?\r\n        if (partners[partnerAddress].level[mp].length>1 ) {\r\n            \r\n            // Call the level up event with the sponsor ID and the new partner's level\r\n            emit levelUp (\r\n                partnerAddress, \r\n                partners[partnerAddress].level[mp].length,\r\n                mp\r\n                );        \r\n        } else {\r\n            \r\n            // Call the reistration event with a new partner's ID and \r\n            //the sponsor address\r\n            emit registration (\r\n                partners[partnerAddress].id, \r\n                partnerAddress, \r\n                partners[partnerAddress].sponsorAddress,\r\n                mp\r\n                );\r\n        }\r\n\r\n        // Chek for owner\r\n        if (partnerAddress != owner){\r\n\r\n            // The partner is not the owner\r\n\r\n            // Buy a new marketing plan level slot in the matrix\r\n            payToPrtners(\r\n                partners[partnerAddress].sponsorAddress, \r\n                price, \r\n                partners[partnerAddress].level[mp].length,\r\n                mp\r\n                );\r\n\r\n\r\n            // Check for level 6 of the last marketing plan\r\n            if (mp == marketingPlans.length-1 && partners[partnerAddress].level[mp].length == 6) {\r\n\r\n                // Check for a Top Leader conditions\r\n                topLeaderCheck(partnerAddress);\r\n            }\r\n        }\r\n    }\r\n\r\n    // The level up price calculation fauction\r\n    function levelUpPrice(address partnerAddress, uint mp, uint exchangeRate, uint8 decimals) private view returns(uint price) {\r\n\r\n\r\n        // Return the registration price of the desired marketing plan, \r\n        // multiplied by two to the power equal to the current level\r\n\r\n        uint level = 0;\r\n\r\n        if (partners[partnerAddress].level.length > mp) {\r\n\r\n            level = partners[partnerAddress].level[mp].length;\r\n        }\r\n\r\n        price = getRegistrationPrice(mp, exchangeRate, decimals)*2**level;\r\n    }\r\n    \r\n    // The payments execution function\r\n    function payToPrtners (address sponsorAddress, uint amount, uint level, uint mp) private {\r\n        \r\n\r\n        // Calculate summ of a Top Leader bonus fee\r\n        uint toTopLeaderBonus = amount*topLeaderBonusFee/100;\r\n\r\n        // Take the Top Leader bonus fee\r\n        uint leftToPay = amount-toTopLeaderBonus;\r\n\r\n        // Calculate summ to pay out for the slot\r\n         uint summToPay = directBonus*amount/100; \r\n\r\n        // Looking the first eligible sponsor to sell the slot on the level \r\n        // of the required marketing plan\r\n        // It can be only the first same-level sponsor with a free slot \r\n        // in a pool or the higer-level sponsor\r\n        address currentPartnerAddressToPay = findPartnerToPay(sponsorAddress, level, summToPay, mp); \r\n                      \r\n        // Check should we look at the structure or this is a owner's referal\r\n        if (currentPartnerAddressToPay == owner) {\r\n\r\n            // Up owner's level if necessary\r\n            if (partners[owner].level[mp].length < level) {\r\n\r\n                uint[] memory requiredLevels = getRequiredLevels(owner, mp, level);\r\n\r\n                upPartnerLevels(owner, requiredLevels, 1, 0);\r\n\r\n            }\r\n        }\r\n            \r\n        // Incriment a next slot number at the level\r\n        saveLevelIncrement(currentPartnerAddressToPay, level, mp);\r\n\r\n        // Pay for the slot to an eligible sponsor\r\n        payToPartner(currentPartnerAddressToPay, 1, summToPay, level, mp); \r\n\r\n           \r\n        // Set a next partner to pay out leader's bonuses\r\n        currentPartnerAddressToPay = partners[sponsorAddress].sponsorAddress; \r\n            \r\n        // Reduce the amount to be paid by the amount of the payment already made \r\n        leftToPay -= summToPay;\r\n            \r\n        // Paying network bonuses to leaders \r\n\r\n        // Loop a higest marketing plan leaders bounuses \r\n        for (uint8 i = 0; i < marketingPlans[marketingPlans.length-1].leaderBonusLevels.length; i++) {\r\n                \r\n            // Check if the next sponsor is the owner\r\n            if (currentPartnerAddressToPay == owner) {\r\n                    \r\n                // Pay to the owner\r\n                payToPartner(owner, i + 2, leftToPay, level, mp);\r\n\r\n                leftToPay = 0;\r\n\r\n                break; // Stop the payment procedure\r\n            }\r\n\r\n            // A summ of the network bonus to pay to the current partner\r\n            uint currentSummToPay = 0;\r\n          \r\n            for (uint8 k = 1; k < marketingPlans.length; k++){\r\n\r\n                if (i < marketingPlans[k].leaderBonusLevels.length){\r\n\r\n                    // Calculate summ of a bonus to pay out\r\n                    summToPay = marketingPlans[k].leaderBonusLevels[i]*amount/100;\r\n\r\n                    // Rounding error protection\r\n                    // Checking the amount of the last bonus\r\n                    if (i == marketingPlans[marketingPlans.length-1].leaderBonusLevels.length-1 && summToPay > leftToPay) {\r\n\r\n                       // Summ to pay is more than left amount or equal to it\r\n\r\n                        // Set summ to pay as left to pay amount\r\n                        summToPay = leftToPay;\r\n\r\n                        // Reset left to pay amount to 0\r\n                        leftToPay = 0;\r\n\r\n                    } else {\r\n\r\n                        // Reduce left to pay summ\r\n                        leftToPay -= summToPay;\r\n                    }                 \r\n                    \r\n                    // Check partners level\r\n                    if (partners[currentPartnerAddressToPay].level.length - 1 >= k) {\r\n\r\n                        // The partner has nessesary level to receive payment\r\n\r\n                        // Increase current summ to pay\r\n                        currentSummToPay += summToPay;\r\n                       \r\n                    } else {\r\n\r\n                        // The partner hasn't nessesary level to receive payment\r\n\r\n                        // Emit missing bonus event\r\n                        emit missingBounus (currentPartnerAddressToPay, i + 2, level, summToPay, mp, k);\r\n\r\n                        // Increase Top Leader Bonus summ to collect\r\n                        toTopLeaderBonus +=summToPay;\r\n                    }\r\n\r\n                }\r\n                \r\n            }\r\n\r\n            // Check the current summ to pay\r\n            if (currentSummToPay > 0) {\r\n\r\n                // There are bonuses for payout\r\n\r\n                // Pay to the partner\r\n                payToPartner(currentPartnerAddressToPay, i + 2, currentSummToPay, level, mp);\r\n            }\r\n     \r\n            // Set a next partner to pay out \r\n            currentPartnerAddressToPay = partners[currentPartnerAddressToPay].sponsorAddress; \r\n        }\r\n        \r\n        // Increase Top Leader Bonus collected summ \r\n        topLeaderBonusCollectedSumm += toTopLeaderBonus;\r\n     \r\n    }\r\n\r\n\r\n    // The payment function\r\n    function payToPartner (address partnerAddress, uint bonusType, uint amount, uint level, uint mp) private {\r\n        \r\n        \r\n        // Pay out bonus\r\n        payable(partnerAddress).transfer(amount); \r\n        \r\n        // Call a bonus pais out event with addres and paid summToPay\r\n        emit bonusPaidOut(partnerAddress, bonusType, amount, level, mp);        \r\n    }\r\n    \r\n    // Search for the partner who has fulfilled the conditions for receiving payment\r\n    function findPartnerToPay (\r\n            address partnerAddress, \r\n            uint level,\r\n            uint amount, \r\n            uint mp\r\n        ) \r\n        private \r\n        returns (address) {\r\n       \r\n        // Check if it is an owner's address\r\n        if ( partnerAddress == owner) {\r\n            \r\n            return owner; // Return the owner's address as an address to pay \r\n        }\r\n        \r\n        // Check conditionals for pay to the partner:\r\n        // The partner's level should be same or higher then level of payment\r\n        // The partner with higher level has unlimited slots \r\n        // The partner with the same level should have a free slot\r\n        // The partner's next free slot shouldn't be a last in the pool\r\n        // If any of the conditions is not met, then the payment is redirected to the sponsor. \r\n        // The sponsor must also pass a broach eligibility check.\r\n        \r\n        // Set partner's sponsor\r\n        address sponsorAddress = partners[partnerAddress].sponsorAddress;\r\n\r\n\r\n        // Check for required marketing palan ativation\r\n        if (partners[partnerAddress].level.length > mp) {\r\n\r\n            // The required marketing plan is active\r\n        \r\n            // Set current partner's level\r\n            uint partnersLevel = partners[partnerAddress].level[mp].length; \r\n            \r\n            // Check that the partner's level is higher than required\r\n            if (partnersLevel > level) {\r\n\r\n                // The level high enougth\r\n                \r\n                // Check if the partner shouldn't pay for reopen of the pool\r\n                if (!isReopen(partnerAddress, level, mp)) {\r\n                    \r\n                    // Return the partner's address as address to pay\r\n                    return partnerAddress; \r\n\r\n                } else { // The partner should pay for reopen of the pool to the sponsor\r\n                \r\n                    // Return a suitable sponsor to pay for the pool\r\n                    return findPartnerToPay(sponsorAddress, level, amount, mp); \r\n                }\r\n            } else { \r\n\r\n                // The partner's level not higer then payment level\r\n                \r\n                // Do the partner has a same level?\r\n                if (partnersLevel == level) {\r\n                    \r\n                    //Check if it is a reopen of the pool\r\n                    if (isReopen(partnerAddress, level, mp)) { \r\n\r\n                        // The partner pays for reopen of the pool\r\n                            \r\n                        // Search a sutable sponsor to pay for the reopen\r\n                        return findPartnerToPay(sponsorAddress, level, amount, mp);\r\n\r\n                    } else {\r\n\r\n                        // Check if the partner's slots at the level isn't exhausted\r\n                        if (partners[partnerAddress].level[mp][level-1] < slotsPerLevel) {\r\n                            \r\n                            // Return the partner's address as address to pay\r\n                            return partnerAddress;  \r\n                            \r\n                        } else { \r\n\r\n                            // This partner haven't sutable slots\r\n                           \r\n                            // Call missing bounus event with the address of the partner \r\n                            // who missed the bonus and the bonus level \r\n                            emit missingBounus (partnerAddress, 1, level, amount, mp, 0);\r\n\r\n                            // Continue a suitable sponsor search\r\n                            return findPartnerToPay(sponsorAddress, level, amount, mp);\r\n                            \r\n                        }  \r\n                    }              \r\n                } else { // The partner's level lower then level of the payment\r\n                    \r\n                    // Call missing bounus event with the address of the partner \r\n                    // who missed the bonus and the bonus level \r\n                    emit missingBounus (partnerAddress, 1, level, amount, mp, 0);\r\n                    \r\n                    // Continue a suitable sponsor search \r\n                    return findPartnerToPay(sponsorAddress, level, amount, mp); \r\n                    \r\n                }\r\n            }\r\n        } else { \r\n\r\n            // The partner do not have an activated required marketing plan \r\n\r\n            // Call missing bounus event with the address of the partner \r\n            // who missed the bonus and the bonus level \r\n            emit missingBounus (partnerAddress, 1, level, amount, mp, 0);\r\n                    \r\n            // Continue a suitable sponsor search \r\n            return findPartnerToPay(sponsorAddress, level, amount, mp); \r\n\r\n        }\r\n    }\r\n    \r\n    // A pool reopen chek function \r\n    function isReopen (address partnerAddress, uint level, uint mp) private returns(bool reopen) {\r\n        \r\n        // Check current pool length less than maximum slots per pool number\r\n        if ((partners[partnerAddress].level[mp][level-1]-1) % slotsPerPool+1 == slotsPerPool){\r\n            \r\n            // Incriment a next slot number at the level\r\n            saveLevelIncrement(partnerAddress, level, mp);\r\n            \r\n            // Call the poll reopened event with the partner address and the pool level\r\n            emit poolIsReopened(partnerAddress, level, mp);\r\n            \r\n            reopen = true;\r\n        }\r\n    }\r\n    \r\n    \r\n    // IntOveflow protection \r\n    function saveLevelIncrement (address partnerAddress, uint level, uint mp) private {\r\n        \r\n        // The maximum uint value check                \r\n        if (partners[partnerAddress].level[mp][level-1] <type(uint).max) \r\n        {\r\n            // Incriment the level next slot value\r\n            partners[partnerAddress].level[mp][level-1] ++; \r\n        } \r\n        else \r\n        {\r\n            // Reset the level next slot to the slots per level value \r\n            //to prevent new free slots emergence\r\n            partners[partnerAddress].level[mp][level-1] = slotsPerLevel+1;\r\n        }\r\n    }\r\n\r\n    // New Partner data creation\r\n    function createNewPartner (address partnerAddress, address sponsorAddress) private {\r\n        \r\n        // Generate new ID\r\n        uint newID = shortIdForLinks.length + prefID;\r\n        \r\n        // Mapping ID to addres\r\n        shortIdForLinks.push (partnerAddress);\r\n        /*\r\n        // Create a new partner\r\n        Partner memory p;\r\n        partners[partnerAddress] = p;\r\n        */\r\n        // Set the partner's ID\r\n        partners[partnerAddress].id = newID;\r\n        \r\n        // Set sponsor to the new partner\r\n        partners[partnerAddress].sponsorAddress = sponsorAddress;\r\n\r\n        // Set the registration date\r\n        partners[partnerAddress].registrationDate = block.timestamp;\r\n\r\n        // Set the registration block number\r\n        partners[partnerAddress].registrationBlockNumber = block.number;\r\n\r\n        // Add the new partner into the sponsor's list of referals\r\n        partners[sponsorAddress].referals.push(partnerAddress);        \r\n    }\r\n\r\n    // Current registration price\r\n    function getRegistrationPrice (uint mp, uint exchangeRate, uint8 decimals) private view returns (uint price) {\r\n\r\n        // Return a registration price to the required marketing plan\r\n        price = marketingPlans[mp].registrationPrice*10**(18+decimals)/exchangeRate;\r\n    }\r\n\r\n    // Calculate the next level price\r\n    function nextLevelPrice (uint[] memory requiredLevels, uint exchangeRate, uint8 decimals) private view onlyRegistered returns  (uint price) {\r\n        \r\n        // Tthe price of the next level is twice the price of the current one.\r\n        // The Level of the marketing plan have to be less or the same of previos plan's level.\r\n        // The price of the next level of the current marketing plan is a summ of a level ups prices\r\n        // of this and an all previos plans to the required level.\r\n\r\n        // Start a price count form 0\r\n        price = 0;\r\n\r\n        if (msg.sender != owner) {\r\n\r\n            uint currentLevel;\r\n\r\n            // Go through all the marketing plans, the levels at which should be increased\r\n            for (uint8 i = 0; i<requiredLevels.length; i++){\r\n\r\n                // Set the current level \r\n                currentLevel = 0;\r\n\r\n                // Check the current marketing plan activation\r\n                if (partners[msg.sender].level.length>i) {\r\n\r\n                    // The marketing plan is active\r\n\r\n                    // Increase the current level by the partner's level of the current marketing plan\r\n                    currentLevel = partners[msg.sender].level[i].length;\r\n                }\r\n\r\n                // Loop required levels of the current marketing plan\r\n                for (uint8 k = 0; k < requiredLevels[i]; k++){\r\n\r\n                    // Incriment the price by the price of the current marketing plan level\r\n                    price += getRegistrationPrice(i, exchangeRate, decimals)*2**(currentLevel+k);\r\n                }\r\n            }\r\n        }\r\n    }\r\n\r\n    function getAdress() public view returns(address contractAddress) {\r\n\r\n        return address(this);\r\n    }\r\n\r\n    // Pay the Top Leader bonus\r\n    function topLeaderBonusPay () private {\r\n\r\n        // Pay to the partner\r\n        payToPartner(topLeaderAddress, 0, topLeaderBonusSumm, 0, 0); \r\n\r\n         // Set default Top Leader\r\n        topLeaderAddress = owner;\r\n\r\n        // Check the Top Leader bonus collection duration\r\n        if (block.timestamp - topLeaderStartDate <= 1 weeks) {\r\n\r\n            // The Top Leader Bonus was collected less then a week\r\n\r\n            // Twice the Top Leader bonus amount\r\n            topLeaderBonusSumm *=2;\r\n\r\n        } else if (block.timestamp - topLeaderStartDate >= 4 weeks) {\r\n\r\n            // The Top Leader Bonus was collected more then 4 weeks\r\n\r\n            // Half the Top Leader bonus amount\r\n            topLeaderBonusSumm /=2;\r\n        }\r\n\r\n        // Set a new Top Leader collection start date\r\n        topLeaderStartDate = block.timestamp;\r\n\r\n        // Start over counter\r\n        topLeaderResult = 0;   \r\n\r\n        // Restart bonus collection\r\n        topLeaderBonusCollectedSumm = 0;     \r\n    }    \r\n\r\n}\r\n",
  "sourcePath": "C:\\Users\\iumantsev\\cryptolife\\contracts\\CryptoLife.sol",
  "compiler": {
    "name": "solc",
    "version": "0.7.6+commit.7338295f.Emscripten.clang"
  },
  "schemaVersion": "3.4.3",
  "updatedAt": "2021-09-22T15:55:51.280Z",
  "networkType": "ethereum",
  "devdoc": {
    "kind": "dev",
    "methods": {},
    "version": 1
  },
  "userdoc": {
    "kind": "user",
    "methods": {},
    "version": 1
  }
}